{
  "contractName": "UniswapV2Router02",
  "abi": [
    {
      "inputs": [
        {
          "internalType": "address",
          "name": "_factory",
          "type": "address"
        },
        {
          "internalType": "address",
          "name": "_WETH",
          "type": "address"
        }
      ],
      "stateMutability": "nonpayable",
      "type": "constructor"
    },
    {
      "inputs": [],
      "name": "WETH",
      "outputs": [
        {
          "internalType": "address",
          "name": "",
          "type": "address"
        }
      ],
      "stateMutability": "view",
      "type": "function"
    },
    {
      "inputs": [],
      "name": "devWallet",
      "outputs": [
        {
          "internalType": "address",
          "name": "",
          "type": "address"
        }
      ],
      "stateMutability": "view",
      "type": "function"
    },
    {
      "inputs": [],
      "name": "factory",
      "outputs": [
        {
          "internalType": "address",
          "name": "",
          "type": "address"
        }
      ],
      "stateMutability": "view",
      "type": "function"
    },
    {
      "inputs": [],
      "name": "feeWallet",
      "outputs": [
        {
          "internalType": "address",
          "name": "",
          "type": "address"
        }
      ],
      "stateMutability": "view",
      "type": "function"
    },
    {
      "inputs": [],
      "name": "owner",
      "outputs": [
        {
          "internalType": "address",
          "name": "",
          "type": "address"
        }
      ],
      "stateMutability": "view",
      "type": "function"
    },
    {
      "stateMutability": "payable",
      "type": "receive"
    },
    {
      "inputs": [
        {
          "internalType": "address",
          "name": "_new_owner",
          "type": "address"
        }
      ],
      "name": "transferOwnership",
      "outputs": [],
      "stateMutability": "nonpayable",
      "type": "function"
    },
    {
      "inputs": [
        {
          "internalType": "address",
          "name": "_fee_addr",
          "type": "address"
        }
      ],
      "name": "setFeeWallet",
      "outputs": [],
      "stateMutability": "nonpayable",
      "type": "function"
    },
    {
      "inputs": [
        {
          "internalType": "address",
          "name": "_dev_addr",
          "type": "address"
        }
      ],
      "name": "setDevWallet",
      "outputs": [],
      "stateMutability": "nonpayable",
      "type": "function"
    },
    {
      "inputs": [
        {
          "internalType": "address",
          "name": "tokenA",
          "type": "address"
        },
        {
          "internalType": "address",
          "name": "tokenB",
          "type": "address"
        },
        {
          "internalType": "uint256",
          "name": "amountADesired",
          "type": "uint256"
        },
        {
          "internalType": "uint256",
          "name": "amountBDesired",
          "type": "uint256"
        },
        {
          "internalType": "uint256",
          "name": "amountAMin",
          "type": "uint256"
        },
        {
          "internalType": "uint256",
          "name": "amountBMin",
          "type": "uint256"
        },
        {
          "internalType": "address",
          "name": "to",
          "type": "address"
        },
        {
          "internalType": "uint256",
          "name": "deadline",
          "type": "uint256"
        }
      ],
      "name": "addLiquidity",
      "outputs": [
        {
          "internalType": "uint256",
          "name": "amountA",
          "type": "uint256"
        },
        {
          "internalType": "uint256",
          "name": "amountB",
          "type": "uint256"
        },
        {
          "internalType": "uint256",
          "name": "liquidity",
          "type": "uint256"
        }
      ],
      "stateMutability": "nonpayable",
      "type": "function"
    },
    {
      "inputs": [
        {
          "internalType": "address",
          "name": "token",
          "type": "address"
        },
        {
          "internalType": "uint256",
          "name": "amountTokenDesired",
          "type": "uint256"
        },
        {
          "internalType": "uint256",
          "name": "amountTokenMin",
          "type": "uint256"
        },
        {
          "internalType": "uint256",
          "name": "amountETHMin",
          "type": "uint256"
        },
        {
          "internalType": "address",
          "name": "to",
          "type": "address"
        },
        {
          "internalType": "uint256",
          "name": "deadline",
          "type": "uint256"
        }
      ],
      "name": "addLiquidityETH",
      "outputs": [
        {
          "internalType": "uint256",
          "name": "amountToken",
          "type": "uint256"
        },
        {
          "internalType": "uint256",
          "name": "amountETH",
          "type": "uint256"
        },
        {
          "internalType": "uint256",
          "name": "liquidity",
          "type": "uint256"
        }
      ],
      "stateMutability": "payable",
      "type": "function"
    },
    {
      "inputs": [
        {
          "internalType": "address",
          "name": "tokenA",
          "type": "address"
        },
        {
          "internalType": "address",
          "name": "tokenB",
          "type": "address"
        },
        {
          "internalType": "uint256",
          "name": "liquidity",
          "type": "uint256"
        },
        {
          "internalType": "uint256",
          "name": "amountAMin",
          "type": "uint256"
        },
        {
          "internalType": "uint256",
          "name": "amountBMin",
          "type": "uint256"
        },
        {
          "internalType": "address",
          "name": "to",
          "type": "address"
        },
        {
          "internalType": "uint256",
          "name": "deadline",
          "type": "uint256"
        }
      ],
      "name": "removeLiquidity",
      "outputs": [
        {
          "internalType": "uint256",
          "name": "amountA",
          "type": "uint256"
        },
        {
          "internalType": "uint256",
          "name": "amountB",
          "type": "uint256"
        }
      ],
      "stateMutability": "nonpayable",
      "type": "function"
    },
    {
      "inputs": [
        {
          "internalType": "address",
          "name": "token",
          "type": "address"
        },
        {
          "internalType": "uint256",
          "name": "liquidity",
          "type": "uint256"
        },
        {
          "internalType": "uint256",
          "name": "amountTokenMin",
          "type": "uint256"
        },
        {
          "internalType": "uint256",
          "name": "amountETHMin",
          "type": "uint256"
        },
        {
          "internalType": "address",
          "name": "to",
          "type": "address"
        },
        {
          "internalType": "uint256",
          "name": "deadline",
          "type": "uint256"
        }
      ],
      "name": "removeLiquidityETH",
      "outputs": [
        {
          "internalType": "uint256",
          "name": "amountToken",
          "type": "uint256"
        },
        {
          "internalType": "uint256",
          "name": "amountETH",
          "type": "uint256"
        }
      ],
      "stateMutability": "nonpayable",
      "type": "function"
    },
    {
      "inputs": [
        {
          "internalType": "address",
          "name": "tokenA",
          "type": "address"
        },
        {
          "internalType": "address",
          "name": "tokenB",
          "type": "address"
        },
        {
          "internalType": "uint256",
          "name": "liquidity",
          "type": "uint256"
        },
        {
          "internalType": "uint256",
          "name": "amountAMin",
          "type": "uint256"
        },
        {
          "internalType": "uint256",
          "name": "amountBMin",
          "type": "uint256"
        },
        {
          "internalType": "address",
          "name": "to",
          "type": "address"
        },
        {
          "internalType": "uint256",
          "name": "deadline",
          "type": "uint256"
        },
        {
          "internalType": "bool",
          "name": "approveMax",
          "type": "bool"
        },
        {
          "internalType": "uint8",
          "name": "v",
          "type": "uint8"
        },
        {
          "internalType": "bytes32",
          "name": "r",
          "type": "bytes32"
        },
        {
          "internalType": "bytes32",
          "name": "s",
          "type": "bytes32"
        }
      ],
      "name": "removeLiquidityWithPermit",
      "outputs": [
        {
          "internalType": "uint256",
          "name": "amountA",
          "type": "uint256"
        },
        {
          "internalType": "uint256",
          "name": "amountB",
          "type": "uint256"
        }
      ],
      "stateMutability": "nonpayable",
      "type": "function"
    },
    {
      "inputs": [
        {
          "internalType": "address",
          "name": "token",
          "type": "address"
        },
        {
          "internalType": "uint256",
          "name": "liquidity",
          "type": "uint256"
        },
        {
          "internalType": "uint256",
          "name": "amountTokenMin",
          "type": "uint256"
        },
        {
          "internalType": "uint256",
          "name": "amountETHMin",
          "type": "uint256"
        },
        {
          "internalType": "address",
          "name": "to",
          "type": "address"
        },
        {
          "internalType": "uint256",
          "name": "deadline",
          "type": "uint256"
        },
        {
          "internalType": "bool",
          "name": "approveMax",
          "type": "bool"
        },
        {
          "internalType": "uint8",
          "name": "v",
          "type": "uint8"
        },
        {
          "internalType": "bytes32",
          "name": "r",
          "type": "bytes32"
        },
        {
          "internalType": "bytes32",
          "name": "s",
          "type": "bytes32"
        }
      ],
      "name": "removeLiquidityETHWithPermit",
      "outputs": [
        {
          "internalType": "uint256",
          "name": "amountToken",
          "type": "uint256"
        },
        {
          "internalType": "uint256",
          "name": "amountETH",
          "type": "uint256"
        }
      ],
      "stateMutability": "nonpayable",
      "type": "function"
    },
    {
      "inputs": [
        {
          "internalType": "address",
          "name": "token",
          "type": "address"
        },
        {
          "internalType": "uint256",
          "name": "liquidity",
          "type": "uint256"
        },
        {
          "internalType": "uint256",
          "name": "amountTokenMin",
          "type": "uint256"
        },
        {
          "internalType": "uint256",
          "name": "amountETHMin",
          "type": "uint256"
        },
        {
          "internalType": "address",
          "name": "to",
          "type": "address"
        },
        {
          "internalType": "uint256",
          "name": "deadline",
          "type": "uint256"
        }
      ],
      "name": "removeLiquidityETHSupportingFeeOnTransferTokens",
      "outputs": [
        {
          "internalType": "uint256",
          "name": "amountETH",
          "type": "uint256"
        }
      ],
      "stateMutability": "nonpayable",
      "type": "function"
    },
    {
      "inputs": [
        {
          "internalType": "address",
          "name": "token",
          "type": "address"
        },
        {
          "internalType": "uint256",
          "name": "liquidity",
          "type": "uint256"
        },
        {
          "internalType": "uint256",
          "name": "amountTokenMin",
          "type": "uint256"
        },
        {
          "internalType": "uint256",
          "name": "amountETHMin",
          "type": "uint256"
        },
        {
          "internalType": "address",
          "name": "to",
          "type": "address"
        },
        {
          "internalType": "uint256",
          "name": "deadline",
          "type": "uint256"
        },
        {
          "internalType": "bool",
          "name": "approveMax",
          "type": "bool"
        },
        {
          "internalType": "uint8",
          "name": "v",
          "type": "uint8"
        },
        {
          "internalType": "bytes32",
          "name": "r",
          "type": "bytes32"
        },
        {
          "internalType": "bytes32",
          "name": "s",
          "type": "bytes32"
        }
      ],
      "name": "removeLiquidityETHWithPermitSupportingFeeOnTransferTokens",
      "outputs": [
        {
          "internalType": "uint256",
          "name": "amountETH",
          "type": "uint256"
        }
      ],
      "stateMutability": "nonpayable",
      "type": "function"
    },
    {
      "inputs": [
        {
          "internalType": "uint256",
          "name": "amountIn",
          "type": "uint256"
        },
        {
          "internalType": "uint256",
          "name": "amountOutMin",
          "type": "uint256"
        },
        {
          "internalType": "address[]",
          "name": "path",
          "type": "address[]"
        },
        {
          "internalType": "address",
          "name": "to",
          "type": "address"
        },
        {
          "internalType": "uint256",
          "name": "deadline",
          "type": "uint256"
        }
      ],
      "name": "swapExactTokensForTokens",
      "outputs": [
        {
          "internalType": "uint256[]",
          "name": "amounts",
          "type": "uint256[]"
        }
      ],
      "stateMutability": "nonpayable",
      "type": "function"
    },
    {
      "inputs": [
        {
          "internalType": "uint256",
          "name": "amountOut",
          "type": "uint256"
        },
        {
          "internalType": "uint256",
          "name": "amountInMax",
          "type": "uint256"
        },
        {
          "internalType": "address[]",
          "name": "path",
          "type": "address[]"
        },
        {
          "internalType": "address",
          "name": "to",
          "type": "address"
        },
        {
          "internalType": "uint256",
          "name": "deadline",
          "type": "uint256"
        }
      ],
      "name": "swapTokensForExactTokens",
      "outputs": [
        {
          "internalType": "uint256[]",
          "name": "amounts",
          "type": "uint256[]"
        }
      ],
      "stateMutability": "nonpayable",
      "type": "function"
    },
    {
      "inputs": [
        {
          "internalType": "uint256",
          "name": "amountOutMin",
          "type": "uint256"
        },
        {
          "internalType": "address[]",
          "name": "path",
          "type": "address[]"
        },
        {
          "internalType": "address",
          "name": "to",
          "type": "address"
        },
        {
          "internalType": "uint256",
          "name": "deadline",
          "type": "uint256"
        }
      ],
      "name": "swapExactETHForTokens",
      "outputs": [
        {
          "internalType": "uint256[]",
          "name": "amounts",
          "type": "uint256[]"
        }
      ],
      "stateMutability": "payable",
      "type": "function"
    },
    {
      "inputs": [
        {
          "internalType": "uint256",
          "name": "amountOut",
          "type": "uint256"
        },
        {
          "internalType": "uint256",
          "name": "amountInMax",
          "type": "uint256"
        },
        {
          "internalType": "address[]",
          "name": "path",
          "type": "address[]"
        },
        {
          "internalType": "address",
          "name": "to",
          "type": "address"
        },
        {
          "internalType": "uint256",
          "name": "deadline",
          "type": "uint256"
        }
      ],
      "name": "swapTokensForExactETH",
      "outputs": [
        {
          "internalType": "uint256[]",
          "name": "amounts",
          "type": "uint256[]"
        }
      ],
      "stateMutability": "nonpayable",
      "type": "function"
    },
    {
      "inputs": [
        {
          "internalType": "uint256",
          "name": "amountIn",
          "type": "uint256"
        },
        {
          "internalType": "uint256",
          "name": "amountOutMin",
          "type": "uint256"
        },
        {
          "internalType": "address[]",
          "name": "path",
          "type": "address[]"
        },
        {
          "internalType": "address",
          "name": "to",
          "type": "address"
        },
        {
          "internalType": "uint256",
          "name": "deadline",
          "type": "uint256"
        }
      ],
      "name": "swapExactTokensForETH",
      "outputs": [
        {
          "internalType": "uint256[]",
          "name": "amounts",
          "type": "uint256[]"
        }
      ],
      "stateMutability": "nonpayable",
      "type": "function"
    },
    {
      "inputs": [
        {
          "internalType": "uint256",
          "name": "amountOut",
          "type": "uint256"
        },
        {
          "internalType": "address[]",
          "name": "path",
          "type": "address[]"
        },
        {
          "internalType": "address",
          "name": "to",
          "type": "address"
        },
        {
          "internalType": "uint256",
          "name": "deadline",
          "type": "uint256"
        }
      ],
      "name": "swapETHForExactTokens",
      "outputs": [
        {
          "internalType": "uint256[]",
          "name": "amounts",
          "type": "uint256[]"
        }
      ],
      "stateMutability": "payable",
      "type": "function"
    },
    {
      "inputs": [
        {
          "internalType": "uint256",
          "name": "amountIn",
          "type": "uint256"
        },
        {
          "internalType": "uint256",
          "name": "amountOutMin",
          "type": "uint256"
        },
        {
          "internalType": "address[]",
          "name": "path",
          "type": "address[]"
        },
        {
          "internalType": "address",
          "name": "to",
          "type": "address"
        },
        {
          "internalType": "uint256",
          "name": "deadline",
          "type": "uint256"
        }
      ],
      "name": "swapExactTokensForTokensSupportingFeeOnTransferTokens",
      "outputs": [],
      "stateMutability": "nonpayable",
      "type": "function"
    },
    {
      "inputs": [
        {
          "internalType": "uint256",
          "name": "amountOutMin",
          "type": "uint256"
        },
        {
          "internalType": "address[]",
          "name": "path",
          "type": "address[]"
        },
        {
          "internalType": "address",
          "name": "to",
          "type": "address"
        },
        {
          "internalType": "uint256",
          "name": "deadline",
          "type": "uint256"
        }
      ],
      "name": "swapExactETHForTokensSupportingFeeOnTransferTokens",
      "outputs": [],
      "stateMutability": "payable",
      "type": "function"
    },
    {
      "inputs": [
        {
          "internalType": "uint256",
          "name": "amountIn",
          "type": "uint256"
        },
        {
          "internalType": "uint256",
          "name": "amountOutMin",
          "type": "uint256"
        },
        {
          "internalType": "address[]",
          "name": "path",
          "type": "address[]"
        },
        {
          "internalType": "address",
          "name": "to",
          "type": "address"
        },
        {
          "internalType": "uint256",
          "name": "deadline",
          "type": "uint256"
        }
      ],
      "name": "swapExactTokensForETHSupportingFeeOnTransferTokens",
      "outputs": [],
      "stateMutability": "nonpayable",
      "type": "function"
    },
    {
      "inputs": [
        {
          "internalType": "uint256",
          "name": "amountA",
          "type": "uint256"
        },
        {
          "internalType": "uint256",
          "name": "reserveA",
          "type": "uint256"
        },
        {
          "internalType": "uint256",
          "name": "reserveB",
          "type": "uint256"
        }
      ],
      "name": "quote",
      "outputs": [
        {
          "internalType": "uint256",
          "name": "amountB",
          "type": "uint256"
        }
      ],
      "stateMutability": "pure",
      "type": "function"
    },
    {
      "inputs": [
        {
          "internalType": "uint256",
          "name": "amountIn",
          "type": "uint256"
        },
        {
          "internalType": "uint256",
          "name": "reserveIn",
          "type": "uint256"
        },
        {
          "internalType": "uint256",
          "name": "reserveOut",
          "type": "uint256"
        }
      ],
      "name": "getAmountOut",
      "outputs": [
        {
          "internalType": "uint256",
          "name": "amountOut",
          "type": "uint256"
        }
      ],
      "stateMutability": "pure",
      "type": "function"
    },
    {
      "inputs": [
        {
          "internalType": "uint256",
          "name": "amountOut",
          "type": "uint256"
        },
        {
          "internalType": "uint256",
          "name": "reserveIn",
          "type": "uint256"
        },
        {
          "internalType": "uint256",
          "name": "reserveOut",
          "type": "uint256"
        }
      ],
      "name": "getAmountIn",
      "outputs": [
        {
          "internalType": "uint256",
          "name": "amountIn",
          "type": "uint256"
        }
      ],
      "stateMutability": "pure",
      "type": "function"
    },
    {
      "inputs": [
        {
          "internalType": "uint256",
          "name": "amountIn",
          "type": "uint256"
        },
        {
          "internalType": "address[]",
          "name": "path",
          "type": "address[]"
        }
      ],
      "name": "getAmountsOut",
      "outputs": [
        {
          "internalType": "uint256[]",
          "name": "amounts",
          "type": "uint256[]"
        }
      ],
      "stateMutability": "view",
      "type": "function"
    },
    {
      "inputs": [
        {
          "internalType": "uint256",
          "name": "amountOut",
          "type": "uint256"
        },
        {
          "internalType": "address[]",
          "name": "path",
          "type": "address[]"
        }
      ],
      "name": "getAmountsIn",
      "outputs": [
        {
          "internalType": "uint256[]",
          "name": "amounts",
          "type": "uint256[]"
        }
      ],
      "stateMutability": "view",
      "type": "function"
    }
  ],
  "bytecode": "0x60c06040523480156200001157600080fd5b506040516200742638038062007426833981810160405260408110156200003757600080fd5b8101908080519060200190929190805190602001909291905050508173ffffffffffffffffffffffffffffffffffffffff1660808173ffffffffffffffffffffffffffffffffffffffff1660601b815250508073ffffffffffffffffffffffffffffffffffffffff1660a08173ffffffffffffffffffffffffffffffffffffffff1660601b81525050336000806101000a81548173ffffffffffffffffffffffffffffffffffffffff021916908373ffffffffffffffffffffffffffffffffffffffff160217905550505060805160601c60a05160601c6171dd62000249600039806101d852806117ee528061182c528061195c5280611c3a528061240052806126db52806127d15280612d715280612f5e528061309152806131a9528061337152806134065280613af75280613bae5280613ca15280613db85280613ea75280613f28528061471f5280614be85280614c415280614c755280614cf65280614f3652806150fb5280615190525080611a4e5280611b5a5280611d0d5280611e4b5280612044528061215052806124f252806125fb52806127af52806129eb5280612e91528061329652806134455280613666528061376f5280613f67528061439a528061469c52806146c552806146fd528061492f5280614c1f528061502352806151cf5280615db15280615df55280616213528061647a5280616a6b5280616b935280616ca952506171dd6000f3fe6080604052600436106101d15760003560e01c80638ea5220f116100f7578063c45a015511610095578063f25f4b5611610064578063f25f4b5614611516578063f2fde38b1461156d578063f305d719146115be578063fb3bdb411461166c5761022d565b8063c45a0155146111d3578063d06ca61f1461122a578063ded9382a1461134e578063e8e33700146114305761022d565b8063ad615dec116100d1578063ad615dec14610f42578063af2979eb14610fa5578063b6f9de9514611052578063baa2abde146110ff5761022d565b80638ea5220f14610e4357806390d49b9d14610e9a578063ad5c464814610eeb5761022d565b80634a25d94a1161016f5780637ff36ab51161013e5780637ff36ab514610b6e57806385f8c25914610c705780638803dbee14610cd35780638da5cb5b14610dec5761022d565b80634a25d94a146107f25780635b0d59841461090b5780635c11d795146109e6578063791ac94714610aaa5761022d565b80631f00ca74116101ab5780631f00ca74146104625780631f53ac02146105865780632195995c146105d757806338ed1739146106d95761022d565b806302751cec14610232578063054d50d4146102e657806318cbafe5146103495761022d565b3661022d577f000000000000000000000000000000000000000000000000000000000000000073ffffffffffffffffffffffffffffffffffffffff163373ffffffffffffffffffffffffffffffffffffffff161461022b57fe5b005b600080fd5b34801561023e57600080fd5b506102c9600480360360c081101561025557600080fd5b81019080803573ffffffffffffffffffffffffffffffffffffffff169060200190929190803590602001909291908035906020019092919080359060200190929190803573ffffffffffffffffffffffffffffffffffffffff1690602001909291908035906020019092919050505061176e565b604051808381526020018281526020019250505060405180910390f35b3480156102f257600080fd5b506103336004803603606081101561030957600080fd5b810190808035906020019092919080359060200190929190803590602001909291905050506118cb565b6040518082815260200191505060405180910390f35b34801561035557600080fd5b5061040b600480360360a081101561036c57600080fd5b8101908080359060200190929190803590602001909291908035906020019064010000000081111561039d57600080fd5b8201836020820111156103af57600080fd5b803590602001918460208302840111640100000000831117156103d157600080fd5b9091929391929390803573ffffffffffffffffffffffffffffffffffffffff169060200190929190803590602001909291905050506118e1565b6040518080602001828103825283818151815260200191508051906020019060200280838360005b8381101561044e578082015181840152602081019050610433565b505050509050019250505060405180910390f35b34801561046e57600080fd5b5061052f6004803603604081101561048557600080fd5b8101908080359060200190929190803590602001906401000000008111156104ac57600080fd5b8201836020820111156104be57600080fd5b803590602001918460208302840111640100000000831117156104e057600080fd5b919080806020026020016040519081016040528093929190818152602001838360200280828437600081840152601f19601f820116905080830192505050505050509192919290505050611d06565b6040518080602001828103825283818151815260200191508051906020019060200280838360005b83811015610572578082015181840152602081019050610557565b505050509050019250505060405180910390f35b34801561059257600080fd5b506105d5600480360360208110156105a957600080fd5b81019080803573ffffffffffffffffffffffffffffffffffffffff169060200190929190505050611d3b565b005b3480156105e357600080fd5b506106bc60048036036101608110156105fb57600080fd5b81019080803573ffffffffffffffffffffffffffffffffffffffff169060200190929190803573ffffffffffffffffffffffffffffffffffffffff169060200190929190803590602001909291908035906020019092919080359060200190929190803573ffffffffffffffffffffffffffffffffffffffff16906020019092919080359060200190929190803515159060200190929190803560ff1690602001909291908035906020019092919080359060200190929190505050611e41565b604051808381526020018281526020019250505060405180910390f35b3480156106e557600080fd5b5061079b600480360360a08110156106fc57600080fd5b8101908080359060200190929190803590602001909291908035906020019064010000000081111561072d57600080fd5b82018360208201111561073f57600080fd5b8035906020019184602083028401116401000000008311171561076157600080fd5b9091929391929390803573ffffffffffffffffffffffffffffffffffffffff16906020019092919080359060200190929190505050611fc6565b6040518080602001828103825283818151815260200191508051906020019060200280838360005b838110156107de5780820151818401526020810190506107c3565b505050509050019250505060405180910390f35b3480156107fe57600080fd5b506108b4600480360360a081101561081557600080fd5b8101908080359060200190929190803590602001909291908035906020019064010000000081111561084657600080fd5b82018360208201111561085857600080fd5b8035906020019184602083028401116401000000008311171561087a57600080fd5b9091929391929390803573ffffffffffffffffffffffffffffffffffffffff16906020019092919080359060200190929190505050612385565b6040518080602001828103825283818151815260200191508051906020019060200280838360005b838110156108f75780820151818401526020810190506108dc565b505050509050019250505060405180910390f35b34801561091757600080fd5b506109d0600480360361014081101561092f57600080fd5b81019080803573ffffffffffffffffffffffffffffffffffffffff169060200190929190803590602001909291908035906020019092919080359060200190929190803573ffffffffffffffffffffffffffffffffffffffff16906020019092919080359060200190929190803515159060200190929190803560ff16906020019092919080359060200190929190803590602001909291905050506127a7565b6040518082815260200191505060405180910390f35b3480156109f257600080fd5b50610aa8600480360360a0811015610a0957600080fd5b81019080803590602001909291908035906020019092919080359060200190640100000000811115610a3a57600080fd5b820183602082011115610a4c57600080fd5b80359060200191846020830284011164010000000083111715610a6e57600080fd5b9091929391929390803573ffffffffffffffffffffffffffffffffffffffff16906020019092919080359060200190929190505050612941565b005b348015610ab657600080fd5b50610b6c600480360360a0811015610acd57600080fd5b81019080803590602001909291908035906020019092919080359060200190640100000000811115610afe57600080fd5b820183602082011115610b1057600080fd5b80359060200191846020830284011164010000000083111715610b3257600080fd5b9091929391929390803573ffffffffffffffffffffffffffffffffffffffff16906020019092919080359060200190929190505050612cf8565b005b610c1960048036036080811015610b8457600080fd5b810190808035906020019092919080359060200190640100000000811115610bab57600080fd5b820183602082011115610bbd57600080fd5b80359060200191846020830284011164010000000083111715610bdf57600080fd5b9091929391929390803573ffffffffffffffffffffffffffffffffffffffff1690602001909291908035906020019092919050505061312e565b6040518080602001828103825283818151815260200191508051906020019060200280838360005b83811015610c5c578082015181840152602081019050610c41565b505050509050019250505060405180910390f35b348015610c7c57600080fd5b50610cbd60048036036060811015610c9357600080fd5b810190808035906020019092919080359060200190929190803590602001909291905050506135d2565b6040518082815260200191505060405180910390f35b348015610cdf57600080fd5b50610d95600480360360a0811015610cf657600080fd5b81019080803590602001909291908035906020019092919080359060200190640100000000811115610d2757600080fd5b820183602082011115610d3957600080fd5b80359060200191846020830284011164010000000083111715610d5b57600080fd5b9091929391929390803573ffffffffffffffffffffffffffffffffffffffff169060200190929190803590602001909291905050506135e8565b6040518080602001828103825283818151815260200191508051906020019060200280838360005b83811015610dd8578082015181840152602081019050610dbd565b505050509050019250505060405180910390f35b348015610df857600080fd5b50610e016139a4565b604051808273ffffffffffffffffffffffffffffffffffffffff1673ffffffffffffffffffffffffffffffffffffffff16815260200191505060405180910390f35b348015610e4f57600080fd5b50610e586139c9565b604051808273ffffffffffffffffffffffffffffffffffffffff1673ffffffffffffffffffffffffffffffffffffffff16815260200191505060405180910390f35b348015610ea657600080fd5b50610ee960048036036020811015610ebd57600080fd5b81019080803573ffffffffffffffffffffffffffffffffffffffff1690602001909291905050506139ef565b005b348015610ef757600080fd5b50610f00613af5565b604051808273ffffffffffffffffffffffffffffffffffffffff1673ffffffffffffffffffffffffffffffffffffffff16815260200191505060405180910390f35b348015610f4e57600080fd5b50610f8f60048036036060811015610f6557600080fd5b81019080803590602001909291908035906020019092919080359060200190929190505050613b19565b6040518082815260200191505060405180910390f35b348015610fb157600080fd5b5061103c600480360360c0811015610fc857600080fd5b81019080803573ffffffffffffffffffffffffffffffffffffffff169060200190929190803590602001909291908035906020019092919080359060200190929190803573ffffffffffffffffffffffffffffffffffffffff16906020019092919080359060200190929190505050613b2f565b6040518082815260200191505060405180910390f35b6110fd6004803603608081101561106857600080fd5b81019080803590602001909291908035906020019064010000000081111561108f57600080fd5b8201836020820111156110a157600080fd5b803590602001918460208302840111640100000000831117156110c357600080fd5b9091929391929390803573ffffffffffffffffffffffffffffffffffffffff16906020019092919080359060200190929190505050613d3f565b005b34801561110b57600080fd5b506111b6600480360360e081101561112257600080fd5b81019080803573ffffffffffffffffffffffffffffffffffffffff169060200190929190803573ffffffffffffffffffffffffffffffffffffffff169060200190929190803590602001909291908035906020019092919080359060200190929190803573ffffffffffffffffffffffffffffffffffffffff16906020019092919080359060200190929190505050614319565b604051808381526020018281526020019250505060405180910390f35b3480156111df57600080fd5b506111e861469a565b604051808273ffffffffffffffffffffffffffffffffffffffff1673ffffffffffffffffffffffffffffffffffffffff16815260200191505060405180910390f35b34801561123657600080fd5b506112f76004803603604081101561124d57600080fd5b81019080803590602001909291908035906020019064010000000081111561127457600080fd5b82018360208201111561128657600080fd5b803590602001918460208302840111640100000000831117156112a857600080fd5b919080806020026020016040519081016040528093929190818152602001838360200280828437600081840152601f19601f8201169050808301925050505050505091929192905050506146be565b6040518080602001828103825283818151815260200191508051906020019060200280838360005b8381101561133a57808201518184015260208101905061131f565b505050509050019250505060405180910390f35b34801561135a57600080fd5b50611413600480360361014081101561137257600080fd5b81019080803573ffffffffffffffffffffffffffffffffffffffff169060200190929190803590602001909291908035906020019092919080359060200190929190803573ffffffffffffffffffffffffffffffffffffffff16906020019092919080359060200190929190803515159060200190929190803560ff16906020019092919080359060200190929190803590602001909291905050506146f3565b604051808381526020018281526020019250505060405180910390f35b34801561143c57600080fd5b506114f2600480360361010081101561145457600080fd5b81019080803573ffffffffffffffffffffffffffffffffffffffff169060200190929190803573ffffffffffffffffffffffffffffffffffffffff16906020019092919080359060200190929190803590602001909291908035906020019092919080359060200190929190803573ffffffffffffffffffffffffffffffffffffffff16906020019092919080359060200190929190505050614896565b60405180848152602001838152602001828152602001935050505060405180910390f35b34801561152257600080fd5b5061152b614a3b565b604051808273ffffffffffffffffffffffffffffffffffffffff1673ffffffffffffffffffffffffffffffffffffffff16815260200191505060405180910390f35b34801561157957600080fd5b506115bc6004803603602081101561159057600080fd5b81019080803573ffffffffffffffffffffffffffffffffffffffff169060200190929190505050614a61565b005b611648600480360360c08110156115d457600080fd5b81019080803573ffffffffffffffffffffffffffffffffffffffff169060200190929190803590602001909291908035906020019092919080359060200190929190803573ffffffffffffffffffffffffffffffffffffffff16906020019092919080359060200190929190505050614b66565b60405180848152602001838152602001828152602001935050505060405180910390f35b6117176004803603608081101561168257600080fd5b8101908080359060200190929190803590602001906401000000008111156116a957600080fd5b8201836020820111156116bb57600080fd5b803590602001918460208302840111640100000000831117156116dd57600080fd5b9091929391929390803573ffffffffffffffffffffffffffffffffffffffff16906020019092919080359060200190929190505050614ebb565b6040518080602001828103825283818151815260200191508051906020019060200280838360005b8381101561175a57808201518184015260208101905061173f565b505050509050019250505060405180910390f35b60008082428110156117e8576040517f08c379a00000000000000000000000000000000000000000000000000000000081526004018080602001828103825260188152602001807f556e69737761705632526f757465723a2045585049524544000000000000000081525060200191505060405180910390fd5b611817897f00000000000000000000000000000000000000000000000000000000000000008a8a8a308a614319565b809350819450505061182a898685615399565b7f000000000000000000000000000000000000000000000000000000000000000073ffffffffffffffffffffffffffffffffffffffff16632e1a7d4d836040518263ffffffff1660e01b815260040180828152602001915050600060405180830381600087803b15801561189d57600080fd5b505af11580156118b1573d6000803e3d6000fd5b505050506118bf8583615575565b50965096945050505050565b60006118d88484846156d4565b90509392505050565b6060814281101561195a576040517f08c379a00000000000000000000000000000000000000000000000000000000081526004018080602001828103825260188152602001807f556e69737761705632526f757465723a2045585049524544000000000000000081525060200191505060405180910390fd5b7f000000000000000000000000000000000000000000000000000000000000000073ffffffffffffffffffffffffffffffffffffffff168686600189899050038181106119a357fe5b9050602002013573ffffffffffffffffffffffffffffffffffffffff1673ffffffffffffffffffffffffffffffffffffffff1614611a49576040517f08c379a000000000000000000000000000000000000000000000000000000000815260040180806020018281038252601d8152602001807f556e69737761705632526f757465723a20494e56414c49445f5041544800000081525060200191505060405180910390fd5b611ab57f000000000000000000000000000000000000000000000000000000000000000089888880806020026020016040519081016040528093929190818152602001838360200280828437600081840152601f19601f82011690508083019250505050505050615804565b91508682600184510381518110611ac857fe5b60200260200101511015611b27576040517f08c379a000000000000000000000000000000000000000000000000000000000815260040180806020018281038252602b815260200180617125602b913960400191505060405180910390fd5b611bec86866000818110611b3757fe5b9050602002013573ffffffffffffffffffffffffffffffffffffffff1633611bd27f00000000000000000000000000000000000000000000000000000000000000008a8a6000818110611b8657fe5b9050602002013573ffffffffffffffffffffffffffffffffffffffff168b8b6001818110611bb057fe5b9050602002013573ffffffffffffffffffffffffffffffffffffffff1661597c565b85600081518110611bdf57fe5b6020026020010151615ad7565b611c3882878780806020026020016040519081016040528093929190818152602001838360200280828437600081840152601f19601f8201169050808301925050505050505030615ce8565b7f000000000000000000000000000000000000000000000000000000000000000073ffffffffffffffffffffffffffffffffffffffff16632e1a7d4d83600185510381518110611c8457fe5b60200260200101516040518263ffffffff1660e01b815260040180828152602001915050600060405180830381600087803b158015611cc257600080fd5b505af1158015611cd6573d6000803e3d6000fd5b50505050611cfb8483600185510381518110611cee57fe5b6020026020010151615575565b509695505050505050565b6060611d337f00000000000000000000000000000000000000000000000000000000000000008484615f93565b905092915050565b6000809054906101000a900473ffffffffffffffffffffffffffffffffffffffff1673ffffffffffffffffffffffffffffffffffffffff163373ffffffffffffffffffffffffffffffffffffffff1614611dfd576040517f08c379a000000000000000000000000000000000000000000000000000000000815260040180806020018281038252600a8152602001807f4f6e6c79204f776e65720000000000000000000000000000000000000000000081525060200191505060405180910390fd5b80600260006101000a81548173ffffffffffffffffffffffffffffffffffffffff021916908373ffffffffffffffffffffffffffffffffffffffff16021790555050565b6000806000611e717f00000000000000000000000000000000000000000000000000000000000000008f8f61597c565b9050600087611e80578c611ea2565b7fffffffffffffffffffffffffffffffffffffffffffffffffffffffffffffffff5b90508173ffffffffffffffffffffffffffffffffffffffff1663d505accf3330848d8c8c8c6040518863ffffffff1660e01b8152600401808873ffffffffffffffffffffffffffffffffffffffff1673ffffffffffffffffffffffffffffffffffffffff1681526020018773ffffffffffffffffffffffffffffffffffffffff1673ffffffffffffffffffffffffffffffffffffffff1681526020018681526020018581526020018460ff1660ff168152602001838152602001828152602001975050505050505050600060405180830381600087803b158015611f8557600080fd5b505af1158015611f99573d6000803e3d6000fd5b50505050611fac8f8f8f8f8f8f8f614319565b809450819550505050509b509b9950505050505050505050565b6060814281101561203f576040517f08c379a00000000000000000000000000000000000000000000000000000000081526004018080602001828103825260188152602001807f556e69737761705632526f757465723a2045585049524544000000000000000081525060200191505060405180910390fd5b6120ab7f000000000000000000000000000000000000000000000000000000000000000089888880806020026020016040519081016040528093929190818152602001838360200280828437600081840152601f19601f82011690508083019250505050505050615804565b915086826001845103815181106120be57fe5b6020026020010151101561211d576040517f08c379a000000000000000000000000000000000000000000000000000000000815260040180806020018281038252602b815260200180617125602b913960400191505060405180910390fd5b61220a8686600081811061212d57fe5b9050602002013573ffffffffffffffffffffffffffffffffffffffff16336121c87f00000000000000000000000000000000000000000000000000000000000000008a8a600081811061217c57fe5b9050602002013573ffffffffffffffffffffffffffffffffffffffff168b8b60018181106121a657fe5b9050602002013573ffffffffffffffffffffffffffffffffffffffff1661597c565b6122056103e86121f76103e6896000815181106121e157fe5b602002602001015161611390919063ffffffff16565b6161a890919063ffffffff16565b615ad7565b61229c8686600081811061221a57fe5b9050602002013573ffffffffffffffffffffffffffffffffffffffff1633600160009054906101000a900473ffffffffffffffffffffffffffffffffffffffff1661229761271061228960108960008151811061227357fe5b602002602001015161611390919063ffffffff16565b6161a890919063ffffffff16565b615ad7565b61232e868660008181106122ac57fe5b9050602002013573ffffffffffffffffffffffffffffffffffffffff1633600260009054906101000a900473ffffffffffffffffffffffffffffffffffffffff1661232961271061231b60048960008151811061230557fe5b602002602001015161611390919063ffffffff16565b6161a890919063ffffffff16565b615ad7565b61237a82878780806020026020016040519081016040528093929190818152602001838360200280828437600081840152601f19601f8201169050808301925050505050505086615ce8565b509695505050505050565b606081428110156123fe576040517f08c379a00000000000000000000000000000000000000000000000000000000081526004018080602001828103825260188152602001807f556e69737761705632526f757465723a2045585049524544000000000000000081525060200191505060405180910390fd5b7f000000000000000000000000000000000000000000000000000000000000000073ffffffffffffffffffffffffffffffffffffffff1686866001898990500381811061244757fe5b9050602002013573ffffffffffffffffffffffffffffffffffffffff1673ffffffffffffffffffffffffffffffffffffffff16146124ed576040517f08c379a000000000000000000000000000000000000000000000000000000000815260040180806020018281038252601d8152602001807f556e69737761705632526f757465723a20494e56414c49445f5041544800000081525060200191505060405180910390fd5b6125597f000000000000000000000000000000000000000000000000000000000000000089888880806020026020016040519081016040528093929190818152602001838360200280828437600081840152601f19601f82011690508083019250505050505050615f93565b9150868260008151811061256957fe5b602002602001015111156125c8576040517f08c379a00000000000000000000000000000000000000000000000000000000081526004018080602001828103825260278152602001806170d86027913960400191505060405180910390fd5b61268d868660008181106125d857fe5b9050602002013573ffffffffffffffffffffffffffffffffffffffff16336126737f00000000000000000000000000000000000000000000000000000000000000008a8a600081811061262757fe5b9050602002013573ffffffffffffffffffffffffffffffffffffffff168b8b600181811061265157fe5b9050602002013573ffffffffffffffffffffffffffffffffffffffff1661597c565b8560008151811061268057fe5b6020026020010151615ad7565b6126d982878780806020026020016040519081016040528093929190818152602001838360200280828437600081840152601f19601f8201169050808301925050505050505030615ce8565b7f000000000000000000000000000000000000000000000000000000000000000073ffffffffffffffffffffffffffffffffffffffff16632e1a7d4d8360018551038151811061272557fe5b60200260200101516040518263ffffffff1660e01b815260040180828152602001915050600060405180830381600087803b15801561276357600080fd5b505af1158015612777573d6000803e3d6000fd5b5050505061279c848360018551038151811061278f57fe5b6020026020010151615575565b509695505050505050565b6000806127f57f00000000000000000000000000000000000000000000000000000000000000008d7f000000000000000000000000000000000000000000000000000000000000000061597c565b9050600086612804578b612826565b7fffffffffffffffffffffffffffffffffffffffffffffffffffffffffffffffff5b90508173ffffffffffffffffffffffffffffffffffffffff1663d505accf3330848c8b8b8b6040518863ffffffff1660e01b8152600401808873ffffffffffffffffffffffffffffffffffffffff1673ffffffffffffffffffffffffffffffffffffffff1681526020018773ffffffffffffffffffffffffffffffffffffffff1673ffffffffffffffffffffffffffffffffffffffff1681526020018681526020018581526020018460ff1660ff168152602001838152602001828152602001975050505050505050600060405180830381600087803b15801561290957600080fd5b505af115801561291d573d6000803e3d6000fd5b5050505061292f8d8d8d8d8d8d613b2f565b925050509a9950505050505050505050565b80428110156129b8576040517f08c379a00000000000000000000000000000000000000000000000000000000081526004018080602001828103825260188152602001807f556e69737761705632526f757465723a2045585049524544000000000000000081525060200191505060405180910390fd5b612a69858560008181106129c857fe5b9050602002013573ffffffffffffffffffffffffffffffffffffffff1633612a637f000000000000000000000000000000000000000000000000000000000000000089896000818110612a1757fe5b9050602002013573ffffffffffffffffffffffffffffffffffffffff168a8a6001818110612a4157fe5b9050602002013573ffffffffffffffffffffffffffffffffffffffff1661597c565b8a615ad7565b6000858560018888905003818110612a7d57fe5b9050602002013573ffffffffffffffffffffffffffffffffffffffff1673ffffffffffffffffffffffffffffffffffffffff166370a08231856040518263ffffffff1660e01b8152600401808273ffffffffffffffffffffffffffffffffffffffff1673ffffffffffffffffffffffffffffffffffffffff16815260200191505060206040518083038186803b158015612b1657600080fd5b505afa158015612b2a573d6000803e3d6000fd5b505050506040513d6020811015612b4057600080fd5b81019080805190602001909291905050509050612b9e868680806020026020016040519081016040528093929190818152602001838360200280828437600081840152601f19601f82011690508083019250505050505050856161bc565b86612c9782888860018b8b905003818110612bb557fe5b9050602002013573ffffffffffffffffffffffffffffffffffffffff1673ffffffffffffffffffffffffffffffffffffffff166370a08231886040518263ffffffff1660e01b8152600401808273ffffffffffffffffffffffffffffffffffffffff1673ffffffffffffffffffffffffffffffffffffffff16815260200191505060206040518083038186803b158015612c4e57600080fd5b505afa158015612c62573d6000803e3d6000fd5b505050506040513d6020811015612c7857600080fd5b810190808051906020019092919050505061663390919063ffffffff16565b1015612cee576040517f08c379a000000000000000000000000000000000000000000000000000000000815260040180806020018281038252602b815260200180617125602b913960400191505060405180910390fd5b5050505050505050565b8042811015612d6f576040517f08c379a00000000000000000000000000000000000000000000000000000000081526004018080602001828103825260188152602001807f556e69737761705632526f757465723a2045585049524544000000000000000081525060200191505060405180910390fd5b7f000000000000000000000000000000000000000000000000000000000000000073ffffffffffffffffffffffffffffffffffffffff16858560018888905003818110612db857fe5b9050602002013573ffffffffffffffffffffffffffffffffffffffff1673ffffffffffffffffffffffffffffffffffffffff1614612e5e576040517f08c379a000000000000000000000000000000000000000000000000000000000815260040180806020018281038252601d8152602001807f556e69737761705632526f757465723a20494e56414c49445f5041544800000081525060200191505060405180910390fd5b612f0f85856000818110612e6e57fe5b9050602002013573ffffffffffffffffffffffffffffffffffffffff1633612f097f000000000000000000000000000000000000000000000000000000000000000089896000818110612ebd57fe5b9050602002013573ffffffffffffffffffffffffffffffffffffffff168a8a6001818110612ee757fe5b9050602002013573ffffffffffffffffffffffffffffffffffffffff1661597c565b8a615ad7565b612f5a858580806020026020016040519081016040528093929190818152602001838360200280828437600081840152601f19601f82011690508083019250505050505050306161bc565b60007f000000000000000000000000000000000000000000000000000000000000000073ffffffffffffffffffffffffffffffffffffffff166370a08231306040518263ffffffff1660e01b8152600401808273ffffffffffffffffffffffffffffffffffffffff1673ffffffffffffffffffffffffffffffffffffffff16815260200191505060206040518083038186803b158015612ff957600080fd5b505afa15801561300d573d6000803e3d6000fd5b505050506040513d602081101561302357600080fd5b810190808051906020019092919050505090508681101561308f576040517f08c379a000000000000000000000000000000000000000000000000000000000815260040180806020018281038252602b815260200180617125602b913960400191505060405180910390fd5b7f000000000000000000000000000000000000000000000000000000000000000073ffffffffffffffffffffffffffffffffffffffff16632e1a7d4d826040518263ffffffff1660e01b815260040180828152602001915050600060405180830381600087803b15801561310257600080fd5b505af1158015613116573d6000803e3d6000fd5b505050506131248482615575565b5050505050505050565b606081428110156131a7576040517f08c379a00000000000000000000000000000000000000000000000000000000081526004018080602001828103825260188152602001807f556e69737761705632526f757465723a2045585049524544000000000000000081525060200191505060405180910390fd5b7f000000000000000000000000000000000000000000000000000000000000000073ffffffffffffffffffffffffffffffffffffffff16868660008181106131eb57fe5b9050602002013573ffffffffffffffffffffffffffffffffffffffff1673ffffffffffffffffffffffffffffffffffffffff1614613291576040517f08c379a000000000000000000000000000000000000000000000000000000000815260040180806020018281038252601d8152602001807f556e69737761705632526f757465723a20494e56414c49445f5041544800000081525060200191505060405180910390fd5b6132fd7f000000000000000000000000000000000000000000000000000000000000000034888880806020026020016040519081016040528093929190818152602001838360200280828437600081840152601f19601f82011690508083019250505050505050615804565b9150868260018451038151811061331057fe5b6020026020010151101561336f576040517f08c379a000000000000000000000000000000000000000000000000000000000815260040180806020018281038252602b815260200180617125602b913960400191505060405180910390fd5b7f000000000000000000000000000000000000000000000000000000000000000073ffffffffffffffffffffffffffffffffffffffff1663d0e30db0836000815181106133b857fe5b60200260200101516040518263ffffffff1660e01b81526004016000604051808303818588803b1580156133eb57600080fd5b505af11580156133ff573d6000803e3d6000fd5b50505050507f000000000000000000000000000000000000000000000000000000000000000073ffffffffffffffffffffffffffffffffffffffff1663a9059cbb6134bd7f00000000000000000000000000000000000000000000000000000000000000008989600081811061347157fe5b9050602002013573ffffffffffffffffffffffffffffffffffffffff168a8a600181811061349b57fe5b9050602002013573ffffffffffffffffffffffffffffffffffffffff1661597c565b846000815181106134ca57fe5b60200260200101516040518363ffffffff1660e01b8152600401808373ffffffffffffffffffffffffffffffffffffffff1673ffffffffffffffffffffffffffffffffffffffff16815260200182815260200192505050602060405180830381600087803b15801561353b57600080fd5b505af115801561354f573d6000803e3d6000fd5b505050506040513d602081101561356557600080fd5b810190808051906020019092919050505061357c57fe5b6135c882878780806020026020016040519081016040528093929190818152602001838360200280828437600081840152601f19601f8201169050808301925050505050505086615ce8565b5095945050505050565b60006135df8484846166b6565b90509392505050565b60608142811015613661576040517f08c379a00000000000000000000000000000000000000000000000000000000081526004018080602001828103825260188152602001807f556e69737761705632526f757465723a2045585049524544000000000000000081525060200191505060405180910390fd5b6136cd7f000000000000000000000000000000000000000000000000000000000000000089888880806020026020016040519081016040528093929190818152602001838360200280828437600081840152601f19601f82011690508083019250505050505050615f93565b915086826000815181106136dd57fe5b6020026020010151111561373c576040517f08c379a00000000000000000000000000000000000000000000000000000000081526004018080602001828103825260278152602001806170d86027913960400191505060405180910390fd5b6138298686600081811061374c57fe5b9050602002013573ffffffffffffffffffffffffffffffffffffffff16336137e77f00000000000000000000000000000000000000000000000000000000000000008a8a600081811061379b57fe5b9050602002013573ffffffffffffffffffffffffffffffffffffffff168b8b60018181106137c557fe5b9050602002013573ffffffffffffffffffffffffffffffffffffffff1661597c565b6138246103e86138166103e68960008151811061380057fe5b602002602001015161611390919063ffffffff16565b6161a890919063ffffffff16565b615ad7565b6138bb8686600081811061383957fe5b9050602002013573ffffffffffffffffffffffffffffffffffffffff1633600160009054906101000a900473ffffffffffffffffffffffffffffffffffffffff166138b66127106138a860108960008151811061389257fe5b602002602001015161611390919063ffffffff16565b6161a890919063ffffffff16565b615ad7565b61394d868660008181106138cb57fe5b9050602002013573ffffffffffffffffffffffffffffffffffffffff1633600260009054906101000a900473ffffffffffffffffffffffffffffffffffffffff1661394861271061393a60048960008151811061392457fe5b602002602001015161611390919063ffffffff16565b6161a890919063ffffffff16565b615ad7565b61399982878780806020026020016040519081016040528093929190818152602001838360200280828437600081840152601f19601f8201169050808301925050505050505086615ce8565b509695505050505050565b6000809054906101000a900473ffffffffffffffffffffffffffffffffffffffff1681565b600260009054906101000a900473ffffffffffffffffffffffffffffffffffffffff1681565b6000809054906101000a900473ffffffffffffffffffffffffffffffffffffffff1673ffffffffffffffffffffffffffffffffffffffff163373ffffffffffffffffffffffffffffffffffffffff1614613ab1576040517f08c379a000000000000000000000000000000000000000000000000000000000815260040180806020018281038252600a8152602001807f4f6e6c79204f776e65720000000000000000000000000000000000000000000081525060200191505060405180910390fd5b80600160006101000a81548173ffffffffffffffffffffffffffffffffffffffff021916908373ffffffffffffffffffffffffffffffffffffffff16021790555050565b7f000000000000000000000000000000000000000000000000000000000000000081565b6000613b268484846167f3565b90509392505050565b60008142811015613ba8576040517f08c379a00000000000000000000000000000000000000000000000000000000081526004018080602001828103825260188152602001807f556e69737761705632526f757465723a2045585049524544000000000000000081525060200191505060405180910390fd5b613bd7887f00000000000000000000000000000000000000000000000000000000000000008989893089614319565b905080925050613c9f88858a73ffffffffffffffffffffffffffffffffffffffff166370a08231306040518263ffffffff1660e01b8152600401808273ffffffffffffffffffffffffffffffffffffffff1673ffffffffffffffffffffffffffffffffffffffff16815260200191505060206040518083038186803b158015613c5f57600080fd5b505afa158015613c73573d6000803e3d6000fd5b505050506040513d6020811015613c8957600080fd5b8101908080519060200190929190505050615399565b7f000000000000000000000000000000000000000000000000000000000000000073ffffffffffffffffffffffffffffffffffffffff16632e1a7d4d836040518263ffffffff1660e01b815260040180828152602001915050600060405180830381600087803b158015613d1257600080fd5b505af1158015613d26573d6000803e3d6000fd5b50505050613d348483615575565b509695505050505050565b8042811015613db6576040517f08c379a00000000000000000000000000000000000000000000000000000000081526004018080602001828103825260188152602001807f556e69737761705632526f757465723a2045585049524544000000000000000081525060200191505060405180910390fd5b7f000000000000000000000000000000000000000000000000000000000000000073ffffffffffffffffffffffffffffffffffffffff1685856000818110613dfa57fe5b9050602002013573ffffffffffffffffffffffffffffffffffffffff1673ffffffffffffffffffffffffffffffffffffffff1614613ea0576040517f08c379a000000000000000000000000000000000000000000000000000000000815260040180806020018281038252601d8152602001807f556e69737761705632526f757465723a20494e56414c49445f5041544800000081525060200191505060405180910390fd5b60003490507f000000000000000000000000000000000000000000000000000000000000000073ffffffffffffffffffffffffffffffffffffffff1663d0e30db0826040518263ffffffff1660e01b81526004016000604051808303818588803b158015613f0d57600080fd5b505af1158015613f21573d6000803e3d6000fd5b50505050507f000000000000000000000000000000000000000000000000000000000000000073ffffffffffffffffffffffffffffffffffffffff1663a9059cbb613fdf7f000000000000000000000000000000000000000000000000000000000000000089896000818110613f9357fe5b9050602002013573ffffffffffffffffffffffffffffffffffffffff168a8a6001818110613fbd57fe5b9050602002013573ffffffffffffffffffffffffffffffffffffffff1661597c565b836040518363ffffffff1660e01b8152600401808373ffffffffffffffffffffffffffffffffffffffff1673ffffffffffffffffffffffffffffffffffffffff16815260200182815260200192505050602060405180830381600087803b15801561404957600080fd5b505af115801561405d573d6000803e3d6000fd5b505050506040513d602081101561407357600080fd5b810190808051906020019092919050505061408a57fe5b600086866001898990500381811061409e57fe5b9050602002013573ffffffffffffffffffffffffffffffffffffffff1673ffffffffffffffffffffffffffffffffffffffff166370a08231866040518263ffffffff1660e01b8152600401808273ffffffffffffffffffffffffffffffffffffffff1673ffffffffffffffffffffffffffffffffffffffff16815260200191505060206040518083038186803b15801561413757600080fd5b505afa15801561414b573d6000803e3d6000fd5b505050506040513d602081101561416157600080fd5b810190808051906020019092919050505090506141bf878780806020026020016040519081016040528093929190818152602001838360200280828437600081840152601f19601f82011690508083019250505050505050866161bc565b876142b882898960018c8c9050038181106141d657fe5b9050602002013573ffffffffffffffffffffffffffffffffffffffff1673ffffffffffffffffffffffffffffffffffffffff166370a08231896040518263ffffffff1660e01b8152600401808273ffffffffffffffffffffffffffffffffffffffff1673ffffffffffffffffffffffffffffffffffffffff16815260200191505060206040518083038186803b15801561426f57600080fd5b505afa158015614283573d6000803e3d6000fd5b505050506040513d602081101561429957600080fd5b810190808051906020019092919050505061663390919063ffffffff16565b101561430f576040517f08c379a000000000000000000000000000000000000000000000000000000000815260040180806020018281038252602b815260200180617125602b913960400191505060405180910390fd5b5050505050505050565b6000808242811015614393576040517f08c379a00000000000000000000000000000000000000000000000000000000081526004018080602001828103825260188152602001807f556e69737761705632526f757465723a2045585049524544000000000000000081525060200191505060405180910390fd5b60006143c07f00000000000000000000000000000000000000000000000000000000000000008c8c61597c565b90508073ffffffffffffffffffffffffffffffffffffffff166323b872dd33838c6040518463ffffffff1660e01b8152600401808473ffffffffffffffffffffffffffffffffffffffff1673ffffffffffffffffffffffffffffffffffffffff1681526020018373ffffffffffffffffffffffffffffffffffffffff1673ffffffffffffffffffffffffffffffffffffffff1681526020018281526020019350505050602060405180830381600087803b15801561447d57600080fd5b505af1158015614491573d6000803e3d6000fd5b505050506040513d60208110156144a757600080fd5b8101908080519060200190929190505050506000808273ffffffffffffffffffffffffffffffffffffffff166389afcb44896040518263ffffffff1660e01b8152600401808273ffffffffffffffffffffffffffffffffffffffff1673ffffffffffffffffffffffffffffffffffffffff1681526020019150506040805180830381600087803b15801561453a57600080fd5b505af115801561454e573d6000803e3d6000fd5b505050506040513d604081101561456457600080fd5b81019080805190602001909291908051906020019092919050505091509150600061458f8e8e6168d7565b5090508073ffffffffffffffffffffffffffffffffffffffff168e73ffffffffffffffffffffffffffffffffffffffff16146145cc5781836145cf565b82825b80975081985050508a871015614630576040517f08c379a00000000000000000000000000000000000000000000000000000000081526004018080602001828103825260268152602001806170ff6026913960400191505060405180910390fd5b89861015614689576040517f08c379a00000000000000000000000000000000000000000000000000000000081526004018080602001828103825260268152602001806170656026913960400191505060405180910390fd5b505050505097509795505050505050565b7f000000000000000000000000000000000000000000000000000000000000000081565b60606146eb7f00000000000000000000000000000000000000000000000000000000000000008484615804565b905092915050565b60008060006147437f00000000000000000000000000000000000000000000000000000000000000008e7f000000000000000000000000000000000000000000000000000000000000000061597c565b9050600087614752578c614774565b7fffffffffffffffffffffffffffffffffffffffffffffffffffffffffffffffff5b90508173ffffffffffffffffffffffffffffffffffffffff1663d505accf3330848d8c8c8c6040518863ffffffff1660e01b8152600401808873ffffffffffffffffffffffffffffffffffffffff1673ffffffffffffffffffffffffffffffffffffffff1681526020018773ffffffffffffffffffffffffffffffffffffffff1673ffffffffffffffffffffffffffffffffffffffff1681526020018681526020018581526020018460ff1660ff168152602001838152602001828152602001975050505050505050600060405180830381600087803b15801561485757600080fd5b505af115801561486b573d6000803e3d6000fd5b5050505061487d8e8e8e8e8e8e61176e565b809450819550505050509a509a98505050505050505050565b60008060008342811015614912576040517f08c379a00000000000000000000000000000000000000000000000000000000081526004018080602001828103825260188152602001807f556e69737761705632526f757465723a2045585049524544000000000000000081525060200191505060405180910390fd5b6149208c8c8c8c8c8c616a4e565b809450819550505060006149557f00000000000000000000000000000000000000000000000000000000000000008e8e61597c565b90506149638d338388615ad7565b61496f8c338387615ad7565b8073ffffffffffffffffffffffffffffffffffffffff16636a627842886040518263ffffffff1660e01b8152600401808273ffffffffffffffffffffffffffffffffffffffff1673ffffffffffffffffffffffffffffffffffffffff168152602001915050602060405180830381600087803b1580156149ee57600080fd5b505af1158015614a02573d6000803e3d6000fd5b505050506040513d6020811015614a1857600080fd5b810190808051906020019092919050505092505050985098509895505050505050565b600160009054906101000a900473ffffffffffffffffffffffffffffffffffffffff1681565b6000809054906101000a900473ffffffffffffffffffffffffffffffffffffffff1673ffffffffffffffffffffffffffffffffffffffff163373ffffffffffffffffffffffffffffffffffffffff1614614b23576040517f08c379a000000000000000000000000000000000000000000000000000000000815260040180806020018281038252600a8152602001807f4f6e6c79204f776e65720000000000000000000000000000000000000000000081525060200191505060405180910390fd5b806000806101000a81548173ffffffffffffffffffffffffffffffffffffffff021916908373ffffffffffffffffffffffffffffffffffffffff16021790555050565b60008060008342811015614be2576040517f08c379a00000000000000000000000000000000000000000000000000000000081526004018080602001828103825260188152602001807f556e69737761705632526f757465723a2045585049524544000000000000000081525060200191505060405180910390fd5b614c108a7f00000000000000000000000000000000000000000000000000000000000000008b348c8c616a4e565b80945081955050506000614c657f00000000000000000000000000000000000000000000000000000000000000008c7f000000000000000000000000000000000000000000000000000000000000000061597c565b9050614c738b338388615ad7565b7f000000000000000000000000000000000000000000000000000000000000000073ffffffffffffffffffffffffffffffffffffffff1663d0e30db0856040518263ffffffff1660e01b81526004016000604051808303818588803b158015614cdb57600080fd5b505af1158015614cef573d6000803e3d6000fd5b50505050507f000000000000000000000000000000000000000000000000000000000000000073ffffffffffffffffffffffffffffffffffffffff1663a9059cbb82866040518363ffffffff1660e01b8152600401808373ffffffffffffffffffffffffffffffffffffffff1673ffffffffffffffffffffffffffffffffffffffff16815260200182815260200192505050602060405180830381600087803b158015614d9b57600080fd5b505af1158015614daf573d6000803e3d6000fd5b505050506040513d6020811015614dc557600080fd5b8101908080519060200190929190505050614ddc57fe5b8073ffffffffffffffffffffffffffffffffffffffff16636a627842886040518263ffffffff1660e01b8152600401808273ffffffffffffffffffffffffffffffffffffffff1673ffffffffffffffffffffffffffffffffffffffff168152602001915050602060405180830381600087803b158015614e5b57600080fd5b505af1158015614e6f573d6000803e3d6000fd5b505050506040513d6020811015614e8557600080fd5b8101908080519060200190929190505050925083341115614ead57614eac33853403615575565b5b505096509650969350505050565b60608142811015614f34576040517f08c379a00000000000000000000000000000000000000000000000000000000081526004018080602001828103825260188152602001807f556e69737761705632526f757465723a2045585049524544000000000000000081525060200191505060405180910390fd5b7f000000000000000000000000000000000000000000000000000000000000000073ffffffffffffffffffffffffffffffffffffffff1686866000818110614f7857fe5b9050602002013573ffffffffffffffffffffffffffffffffffffffff1673ffffffffffffffffffffffffffffffffffffffff161461501e576040517f08c379a000000000000000000000000000000000000000000000000000000000815260040180806020018281038252601d8152602001807f556e69737761705632526f757465723a20494e56414c49445f5041544800000081525060200191505060405180910390fd5b61508a7f000000000000000000000000000000000000000000000000000000000000000088888880806020026020016040519081016040528093929190818152602001838360200280828437600081840152601f19601f82011690508083019250505050505050615f93565b9150348260008151811061509a57fe5b602002602001015111156150f9576040517f08c379a00000000000000000000000000000000000000000000000000000000081526004018080602001828103825260278152602001806170d86027913960400191505060405180910390fd5b7f000000000000000000000000000000000000000000000000000000000000000073ffffffffffffffffffffffffffffffffffffffff1663d0e30db08360008151811061514257fe5b60200260200101516040518263ffffffff1660e01b81526004016000604051808303818588803b15801561517557600080fd5b505af1158015615189573d6000803e3d6000fd5b50505050507f000000000000000000000000000000000000000000000000000000000000000073ffffffffffffffffffffffffffffffffffffffff1663a9059cbb6152477f0000000000000000000000000000000000000000000000000000000000000000898960008181106151fb57fe5b9050602002013573ffffffffffffffffffffffffffffffffffffffff168a8a600181811061522557fe5b9050602002013573ffffffffffffffffffffffffffffffffffffffff1661597c565b8460008151811061525457fe5b60200260200101516040518363ffffffff1660e01b8152600401808373ffffffffffffffffffffffffffffffffffffffff1673ffffffffffffffffffffffffffffffffffffffff16815260200182815260200192505050602060405180830381600087803b1580156152c557600080fd5b505af11580156152d9573d6000803e3d6000fd5b505050506040513d60208110156152ef57600080fd5b810190808051906020019092919050505061530657fe5b61535282878780806020026020016040519081016040528093929190818152602001838360200280828437600081840152601f19601f8201169050808301925050505050505086615ce8565b8160008151811061535f57fe5b602002602001015134111561538f5761538e338360008151811061537f57fe5b60200260200101513403615575565b5b5095945050505050565b600060608473ffffffffffffffffffffffffffffffffffffffff1663a9059cbb8585604051602401808373ffffffffffffffffffffffffffffffffffffffff1673ffffffffffffffffffffffffffffffffffffffff168152602001828152602001925050506040516020818303038152906040529060e01b6020820180517bffffffffffffffffffffffffffffffffffffffffffffffffffffffff83818316178352505050506040518082805190602001908083835b60208310615472578051825260208201915060208101905060208303925061544f565b6001836020036101000a0380198251168184511680821785525050505050509050019150506000604051808303816000865af19150503d80600081146154d4576040519150601f19603f3d011682016040523d82523d6000602084013e6154d9565b606091505b50915091508180156155195750600081511480615518575080806020019051602081101561550657600080fd5b81019080805190602001909291905050505b5b61556e576040517f08c379a000000000000000000000000000000000000000000000000000000000815260040180806020018281038252602d815260200180617150602d913960400191505060405180910390fd5b5050505050565b60008273ffffffffffffffffffffffffffffffffffffffff1682600067ffffffffffffffff811180156155a757600080fd5b506040519080825280601f01601f1916602001820160405280156155da5781602001600182028036833780820191505090505b506040518082805190602001908083835b6020831061560e57805182526020820191506020810190506020830392506155eb565b6001836020036101000a03801982511681845116808217855250505050505090500191505060006040518083038185875af1925050503d8060008114615670576040519150601f19603f3d011682016040523d82523d6000602084013e615675565b606091505b50509050806156cf576040517f08c379a000000000000000000000000000000000000000000000000000000000815260040180806020018281038252603481526020018061700c6034913960400191505060405180910390fd5b505050565b600080841161572e576040517f08c379a000000000000000000000000000000000000000000000000000000000815260040180806020018281038252602b81526020018061717d602b913960400191505060405180910390fd5b60008311801561573e5750600082115b615793576040517f08c379a000000000000000000000000000000000000000000000000000000000815260040180806020018281038252602881526020018061708b6028913960400191505060405180910390fd5b60006157aa6103e68661611390919063ffffffff16565b905060006157c1848361611390919063ffffffff16565b905060006157ec836157de6103e88961611390919063ffffffff16565b616e0290919063ffffffff16565b90508082816157f757fe5b0493505050509392505050565b606060028251101561587e576040517f08c379a000000000000000000000000000000000000000000000000000000000815260040180806020018281038252601e8152602001807f556e697377617056324c6962726172793a20494e56414c49445f50415448000081525060200191505060405180910390fd5b815167ffffffffffffffff8111801561589657600080fd5b506040519080825280602002602001820160405280156158c55781602001602082028036833780820191505090505b50905082816000815181106158d657fe5b60200260200101818152505060005b6001835103811015615974576000806159288786858151811061590457fe5b602002602001015187600187018151811061591b57fe5b6020026020010151616e85565b9150915061594a84848151811061593b57fe5b602002602001015183836156d4565b84600185018151811061595957fe5b602002602001018181525050505080806001019150506158e5565b509392505050565b600080600061598b85856168d7565b91509150858282604051602001808373ffffffffffffffffffffffffffffffffffffffff1673ffffffffffffffffffffffffffffffffffffffff1660601b81526014018273ffffffffffffffffffffffffffffffffffffffff1673ffffffffffffffffffffffffffffffffffffffff1660601b8152601401925050506040516020818303038152906040528051906020012060405160200180807fff000000000000000000000000000000000000000000000000000000000000008152506001018373ffffffffffffffffffffffffffffffffffffffff1673ffffffffffffffffffffffffffffffffffffffff1660601b8152601401828152602001807f88894826e9a0e62277e414f4f15257ff1393b3b665285bf1044ee36804405d13815250602001925050506040516020818303038152906040528051906020012060001c925050509392505050565b600060608573ffffffffffffffffffffffffffffffffffffffff166323b872dd868686604051602401808473ffffffffffffffffffffffffffffffffffffffff1673ffffffffffffffffffffffffffffffffffffffff1681526020018373ffffffffffffffffffffffffffffffffffffffff1673ffffffffffffffffffffffffffffffffffffffff16815260200182815260200193505050506040516020818303038152906040529060e01b6020820180517bffffffffffffffffffffffffffffffffffffffffffffffffffffffff83818316178352505050506040518082805190602001908083835b60208310615be45780518252602082019150602081019050602083039250615bc1565b6001836020036101000a0380198251168184511680821785525050505050509050019150506000604051808303816000865af19150503d8060008114615c46576040519150601f19603f3d011682016040523d82523d6000602084013e615c4b565b606091505b5091509150818015615c8b5750600081511480615c8a5750808060200190516020811015615c7857600080fd5b81019080805190602001909291905050505b5b615ce0576040517f08c379a0000000000000000000000000000000000000000000000000000000008152600401808060200182810382526031815260200180616fdb6031913960400191505060405180910390fd5b505050505050565b60005b6001835103811015615f8d57600080848381518110615d0657fe5b6020026020010151856001850181518110615d1d57fe5b6020026020010151915091506000615d3583836168d7565b5090506000876001860181518110615d4957fe5b602002602001015190506000808373ffffffffffffffffffffffffffffffffffffffff168673ffffffffffffffffffffffffffffffffffffffff1614615d9157826000615d95565b6000835b91509150600060028a51038810615dac5788615dee565b615ded7f0000000000000000000000000000000000000000000000000000000000000000878c60028c0181518110615de057fe5b602002602001015161597c565b5b9050615e1b7f0000000000000000000000000000000000000000000000000000000000000000888861597c565b73ffffffffffffffffffffffffffffffffffffffff1663022c0d9f848484600067ffffffffffffffff81118015615e5157600080fd5b506040519080825280601f01601f191660200182016040528015615e845781602001600182028036833780820191505090505b506040518563ffffffff1660e01b8152600401808581526020018481526020018373ffffffffffffffffffffffffffffffffffffffff1673ffffffffffffffffffffffffffffffffffffffff16815260200180602001828103825283818151815260200191508051906020019080838360005b83811015615f12578082015181840152602081019050615ef7565b50505050905090810190601f168015615f3f5780820380516001836020036101000a031916815260200191505b5095505050505050600060405180830381600087803b158015615f6157600080fd5b505af1158015615f75573d6000803e3d6000fd5b50505050505050505050508080600101915050615ceb565b50505050565b606060028251101561600d576040517f08c379a000000000000000000000000000000000000000000000000000000000815260040180806020018281038252601e8152602001807f556e697377617056324c6962726172793a20494e56414c49445f50415448000081525060200191505060405180910390fd5b815167ffffffffffffffff8111801561602557600080fd5b506040519080825280602002602001820160405280156160545781602001602082028036833780820191505090505b509050828160018351038151811061606857fe5b6020026020010181815250506000600183510390505b600081111561610b576000806160be8786600186038151811061609d57fe5b60200260200101518786815181106160b157fe5b6020026020010151616e85565b915091506160e08484815181106160d157fe5b602002602001015183836166b6565b8460018503815181106160ef57fe5b602002602001018181525050505080806001900391505061607e565b509392505050565b600080821480616130575082828385029250828161612d57fe5b04145b6161a2576040517f08c379a00000000000000000000000000000000000000000000000000000000081526004018080602001828103825260148152602001807f64732d6d6174682d6d756c2d6f766572666c6f7700000000000000000000000081525060200191505060405180910390fd5b92915050565b60008183816161b357fe5b04905092915050565b60005b600183510381101561662e576000808483815181106161da57fe5b60200260200101518560018501815181106161f157fe5b602002602001015191509150600061620983836168d7565b50905060006162397f0000000000000000000000000000000000000000000000000000000000000000858561597c565b90506000806000808473ffffffffffffffffffffffffffffffffffffffff16630902f1ac6040518163ffffffff1660e01b815260040160606040518083038186803b15801561628757600080fd5b505afa15801561629b573d6000803e3d6000fd5b505050506040513d60608110156162b157600080fd5b81019080805190602001909291908051906020019092919080519060200190929190505050506dffffffffffffffffffffffffffff1691506dffffffffffffffffffffffffffff1691506000808773ffffffffffffffffffffffffffffffffffffffff168a73ffffffffffffffffffffffffffffffffffffffff161461633857828461633b565b83835b91509150616409828b73ffffffffffffffffffffffffffffffffffffffff166370a082318a6040518263ffffffff1660e01b8152600401808273ffffffffffffffffffffffffffffffffffffffff1673ffffffffffffffffffffffffffffffffffffffff16815260200191505060206040518083038186803b1580156163c057600080fd5b505afa1580156163d4573d6000803e3d6000fd5b505050506040513d60208110156163ea57600080fd5b810190808051906020019092919050505061663390919063ffffffff16565b95506164168683836156d4565b9450505050506000808573ffffffffffffffffffffffffffffffffffffffff168873ffffffffffffffffffffffffffffffffffffffff161461645a5782600061645e565b6000835b91509150600060028c51038a10616475578a6164b7565b6164b67f0000000000000000000000000000000000000000000000000000000000000000898e60028e01815181106164a957fe5b602002602001015161597c565b5b90508573ffffffffffffffffffffffffffffffffffffffff1663022c0d9f848484600067ffffffffffffffff811180156164f057600080fd5b506040519080825280601f01601f1916602001820160405280156165235781602001600182028036833780820191505090505b506040518563ffffffff1660e01b8152600401808581526020018481526020018373ffffffffffffffffffffffffffffffffffffffff1673ffffffffffffffffffffffffffffffffffffffff16815260200180602001828103825283818151815260200191508051906020019080838360005b838110156165b1578082015181840152602081019050616596565b50505050905090810190601f1680156165de5780820380516001836020036101000a031916815260200191505b5095505050505050600060405180830381600087803b15801561660057600080fd5b505af1158015616614573d6000803e3d6000fd5b5050505050505050505050505080806001019150506161bf565b505050565b60008282840391508111156166b0576040517f08c379a00000000000000000000000000000000000000000000000000000000081526004018080602001828103825260158152602001807f64732d6d6174682d7375622d756e646572666c6f77000000000000000000000081525060200191505060405180910390fd5b92915050565b6000808411616710576040517f08c379a000000000000000000000000000000000000000000000000000000000815260040180806020018281038252602c815260200180616faf602c913960400191505060405180910390fd5b6000831180156167205750600082115b616775576040517f08c379a000000000000000000000000000000000000000000000000000000000815260040180806020018281038252602881526020018061708b6028913960400191505060405180910390fd5b600061679e6103e8616790878761611390919063ffffffff16565b61611390919063ffffffff16565b905060006167c96103e66167bb888761663390919063ffffffff16565b61611390919063ffffffff16565b90506167e860018284816167d957fe5b04616e0290919063ffffffff16565b925050509392505050565b600080841161684d576040517f08c379a00000000000000000000000000000000000000000000000000000000081526004018080602001828103825260258152602001806170b36025913960400191505060405180910390fd5b60008311801561685d5750600082115b6168b2576040517f08c379a000000000000000000000000000000000000000000000000000000000815260040180806020018281038252602881526020018061708b6028913960400191505060405180910390fd5b826168c6838661611390919063ffffffff16565b816168cd57fe5b0490509392505050565b6000808273ffffffffffffffffffffffffffffffffffffffff168473ffffffffffffffffffffffffffffffffffffffff16141561695f576040517f08c379a00000000000000000000000000000000000000000000000000000000081526004018080602001828103825260258152602001806170406025913960400191505060405180910390fd5b8273ffffffffffffffffffffffffffffffffffffffff168473ffffffffffffffffffffffffffffffffffffffff161061699957828461699c565b83835b8092508193505050600073ffffffffffffffffffffffffffffffffffffffff168273ffffffffffffffffffffffffffffffffffffffff161415616a47576040517f08c379a000000000000000000000000000000000000000000000000000000000815260040180806020018281038252601e8152602001807f556e697377617056324c6962726172793a205a45524f5f41444452455353000081525060200191505060405180910390fd5b9250929050565b600080600073ffffffffffffffffffffffffffffffffffffffff167f000000000000000000000000000000000000000000000000000000000000000073ffffffffffffffffffffffffffffffffffffffff1663e6a439058a8a6040518363ffffffff1660e01b8152600401808373ffffffffffffffffffffffffffffffffffffffff1673ffffffffffffffffffffffffffffffffffffffff1681526020018273ffffffffffffffffffffffffffffffffffffffff1673ffffffffffffffffffffffffffffffffffffffff1681526020019250505060206040518083038186803b158015616b3a57600080fd5b505afa158015616b4e573d6000803e3d6000fd5b505050506040513d6020811015616b6457600080fd5b810190808051906020019092919050505073ffffffffffffffffffffffffffffffffffffffff161415616ca1577f000000000000000000000000000000000000000000000000000000000000000073ffffffffffffffffffffffffffffffffffffffff1663c9c6539689896040518363ffffffff1660e01b8152600401808373ffffffffffffffffffffffffffffffffffffffff1673ffffffffffffffffffffffffffffffffffffffff1681526020018273ffffffffffffffffffffffffffffffffffffffff1673ffffffffffffffffffffffffffffffffffffffff16815260200192505050602060405180830381600087803b158015616c6457600080fd5b505af1158015616c78573d6000803e3d6000fd5b505050506040513d6020811015616c8e57600080fd5b8101908080519060200190929190505050505b600080616ccf7f00000000000000000000000000000000000000000000000000000000000000008b8b616e85565b91509150600082148015616ce35750600081145b15616cf75787878094508195505050616df5565b6000616d048984846167f3565b9050878111616d755785811015616d66576040517f08c379a00000000000000000000000000000000000000000000000000000000081526004018080602001828103825260268152602001806170656026913960400191505060405180910390fd5b88818095508196505050616df3565b6000616d828984866167f3565b905089811115616d8e57fe5b87811015616de7576040517f08c379a00000000000000000000000000000000000000000000000000000000081526004018080602001828103825260268152602001806170ff6026913960400191505060405180910390fd5b80898096508197505050505b505b5050965096945050505050565b6000828284019150811015616e7f576040517f08c379a00000000000000000000000000000000000000000000000000000000081526004018080602001828103825260148152602001807f64732d6d6174682d6164642d6f766572666c6f7700000000000000000000000081525060200191505060405180910390fd5b92915050565b6000806000616e9485856168d7565b509050600080616ea588888861597c565b73ffffffffffffffffffffffffffffffffffffffff16630902f1ac6040518163ffffffff1660e01b815260040160606040518083038186803b158015616eea57600080fd5b505afa158015616efe573d6000803e3d6000fd5b505050506040513d6060811015616f1457600080fd5b81019080805190602001909291908051906020019092919080519060200190929190505050506dffffffffffffffffffffffffffff1691506dffffffffffffffffffffffffffff1691508273ffffffffffffffffffffffffffffffffffffffff168773ffffffffffffffffffffffffffffffffffffffff1614616f98578082616f9b565b81815b809550819650505050505093509391505056fe556e697377617056324c6962726172793a20494e53554646494349454e545f4f55545055545f414d4f554e545472616e7366657248656c7065723a3a7472616e7366657246726f6d3a207472616e7366657246726f6d206661696c65645472616e7366657248656c7065723a3a736166655472616e736665724554483a20455448207472616e73666572206661696c6564556e697377617056324c6962726172793a204944454e544943414c5f414444524553534553556e69737761705632526f757465723a20494e53554646494349454e545f425f414d4f554e54556e697377617056324c6962726172793a20494e53554646494349454e545f4c4951554944495459556e697377617056324c6962726172793a20494e53554646494349454e545f414d4f554e54556e69737761705632526f757465723a204558434553534956455f494e5055545f414d4f554e54556e69737761705632526f757465723a20494e53554646494349454e545f415f414d4f554e54556e69737761705632526f757465723a20494e53554646494349454e545f4f55545055545f414d4f554e545472616e7366657248656c7065723a3a736166655472616e736665723a207472616e73666572206661696c6564556e697377617056324c6962726172793a20494e53554646494349454e545f494e5055545f414d4f554e54a26469706673582212203c49ef9c2299a65cc04efc1bfa60e9d212233bde1697dbb9e0453f982a4cbab164736f6c63430006060033",
  "immutableReferences": {
    "3714": [
      {
        "length": 32,
        "start": 6734
      },
      {
        "length": 32,
        "start": 7002
      },
      {
        "length": 32,
        "start": 7437
      },
      {
        "length": 32,
        "start": 7755
      },
      {
        "length": 32,
        "start": 8260
      },
      {
        "length": 32,
        "start": 8528
      },
      {
        "length": 32,
        "start": 9458
      },
      {
        "length": 32,
        "start": 9723
      },
      {
        "length": 32,
        "start": 10159
      },
      {
        "length": 32,
        "start": 10731
      },
      {
        "length": 32,
        "start": 11921
      },
      {
        "length": 32,
        "start": 12950
      },
      {
        "length": 32,
        "start": 13381
      },
      {
        "length": 32,
        "start": 13926
      },
      {
        "length": 32,
        "start": 14191
      },
      {
        "length": 32,
        "start": 16231
      },
      {
        "length": 32,
        "start": 17306
      },
      {
        "length": 32,
        "start": 18076
      },
      {
        "length": 32,
        "start": 18117
      },
      {
        "length": 32,
        "start": 18173
      },
      {
        "length": 32,
        "start": 18735
      },
      {
        "length": 32,
        "start": 19487
      },
      {
        "length": 32,
        "start": 20515
      },
      {
        "length": 32,
        "start": 20943
      },
      {
        "length": 32,
        "start": 23985
      },
      {
        "length": 32,
        "start": 24053
      },
      {
        "length": 32,
        "start": 25107
      },
      {
        "length": 32,
        "start": 25722
      },
      {
        "length": 32,
        "start": 27243
      },
      {
        "length": 32,
        "start": 27539
      },
      {
        "length": 32,
        "start": 27817
      }
    ],
    "3717": [
      {
        "length": 32,
        "start": 472
      },
      {
        "length": 32,
        "start": 6126
      },
      {
        "length": 32,
        "start": 6188
      },
      {
        "length": 32,
        "start": 6492
      },
      {
        "length": 32,
        "start": 7226
      },
      {
        "length": 32,
        "start": 9216
      },
      {
        "length": 32,
        "start": 9947
      },
      {
        "length": 32,
        "start": 10193
      },
      {
        "length": 32,
        "start": 11633
      },
      {
        "length": 32,
        "start": 12126
      },
      {
        "length": 32,
        "start": 12433
      },
      {
        "length": 32,
        "start": 12713
      },
      {
        "length": 32,
        "start": 13169
      },
      {
        "length": 32,
        "start": 13318
      },
      {
        "length": 32,
        "start": 15095
      },
      {
        "length": 32,
        "start": 15278
      },
      {
        "length": 32,
        "start": 15521
      },
      {
        "length": 32,
        "start": 15800
      },
      {
        "length": 32,
        "start": 16039
      },
      {
        "length": 32,
        "start": 16168
      },
      {
        "length": 32,
        "start": 18207
      },
      {
        "length": 32,
        "start": 19432
      },
      {
        "length": 32,
        "start": 19521
      },
      {
        "length": 32,
        "start": 19573
      },
      {
        "length": 32,
        "start": 19702
      },
      {
        "length": 32,
        "start": 20278
      },
      {
        "length": 32,
        "start": 20731
      },
      {
        "length": 32,
        "start": 20880
      }
    ]
  },
  "source": "pragma solidity =0.6.6;\r\n\r\nimport '@uniswap/v2-core/contracts/interfaces/IUniswapV2Factory.sol';\r\nimport '@uniswap/lib/contracts/libraries/TransferHelper.sol';\r\n\r\nimport './interfaces/IUniswapV2Router02.sol';\r\nimport './libraries/UniswapV2Library.sol';\r\nimport './libraries/SafeMath.sol';\r\nimport './interfaces/IERC20.sol';\r\nimport './interfaces/IWETH.sol';\r\n\r\ncontract UniswapV2Router02 is IUniswapV2Router02 {\r\n    using SafeMath for uint256;\r\n\r\n    address public immutable override factory;\r\n    address public immutable override WETH;\r\n    address public owner;\r\n    address public feeWallet;\r\n    address public devWallet;\r\n    modifier ensure(uint256 deadline) {\r\n        require(deadline >= block.timestamp, 'UniswapV2Router: EXPIRED');\r\n        _;\r\n    }\r\n    modifier onlyOwner() {\r\n        require(msg.sender == owner, 'Only Owner');\r\n        _;\r\n    }\r\n\r\n    constructor(address _factory, address _WETH) public {\r\n        factory = _factory;\r\n        WETH = _WETH;\r\n        owner = msg.sender;\r\n    }\r\n\r\n    receive() external payable {\r\n        assert(msg.sender == WETH); // only accept ETH via fallback from the WETH contract\r\n    }\r\n\r\n    function transferOwnership(address _new_owner) public onlyOwner {\r\n        owner = _new_owner;\r\n    }\r\n\r\n    function setFeeWallet(address _fee_addr) public onlyOwner {\r\n        feeWallet = _fee_addr;\r\n    }\r\n\r\n    function setDevWallet(address _dev_addr) public onlyOwner {\r\n        devWallet = _dev_addr;\r\n    }\r\n\r\n    // **** ADD LIQUIDITY ****\r\n    function _addLiquidity(\r\n        address tokenA,\r\n        address tokenB,\r\n        uint256 amountADesired,\r\n        uint256 amountBDesired,\r\n        uint256 amountAMin,\r\n        uint256 amountBMin\r\n    ) internal virtual returns (uint256 amountA, uint256 amountB) {\r\n        // create the pair if it doesn't exist yet\r\n        if (IUniswapV2Factory(factory).getPair(tokenA, tokenB) == address(0)) {\r\n            IUniswapV2Factory(factory).createPair(tokenA, tokenB);\r\n        }\r\n        (uint256 reserveA, uint256 reserveB) = UniswapV2Library.getReserves(factory, tokenA, tokenB);\r\n        if (reserveA == 0 && reserveB == 0) {\r\n            (amountA, amountB) = (amountADesired, amountBDesired);\r\n        } else {\r\n            uint256 amountBOptimal = UniswapV2Library.quote(amountADesired, reserveA, reserveB);\r\n            if (amountBOptimal <= amountBDesired) {\r\n                require(amountBOptimal >= amountBMin, 'UniswapV2Router: INSUFFICIENT_B_AMOUNT');\r\n                (amountA, amountB) = (amountADesired, amountBOptimal);\r\n            } else {\r\n                uint256 amountAOptimal = UniswapV2Library.quote(amountBDesired, reserveB, reserveA);\r\n                assert(amountAOptimal <= amountADesired);\r\n                require(amountAOptimal >= amountAMin, 'UniswapV2Router: INSUFFICIENT_A_AMOUNT');\r\n                (amountA, amountB) = (amountAOptimal, amountBDesired);\r\n            }\r\n        }\r\n    }\r\n\r\n    function addLiquidity(\r\n        address tokenA,\r\n        address tokenB,\r\n        uint256 amountADesired,\r\n        uint256 amountBDesired,\r\n        uint256 amountAMin,\r\n        uint256 amountBMin,\r\n        address to,\r\n        uint256 deadline\r\n    )\r\n        external\r\n        virtual\r\n        override\r\n        ensure(deadline)\r\n        returns (\r\n            uint256 amountA,\r\n            uint256 amountB,\r\n            uint256 liquidity\r\n        )\r\n    {\r\n        (amountA, amountB) = _addLiquidity(tokenA, tokenB, amountADesired, amountBDesired, amountAMin, amountBMin);\r\n        address pair = UniswapV2Library.pairFor(factory, tokenA, tokenB);\r\n        TransferHelper.safeTransferFrom(tokenA, msg.sender, pair, amountA);\r\n        TransferHelper.safeTransferFrom(tokenB, msg.sender, pair, amountB);\r\n        liquidity = IUniswapV2Pair(pair).mint(to);\r\n    }\r\n\r\n    function addLiquidityETH(\r\n        address token,\r\n        uint256 amountTokenDesired,\r\n        uint256 amountTokenMin,\r\n        uint256 amountETHMin,\r\n        address to,\r\n        uint256 deadline\r\n    )\r\n        external\r\n        payable\r\n        virtual\r\n        override\r\n        ensure(deadline)\r\n        returns (\r\n            uint256 amountToken,\r\n            uint256 amountETH,\r\n            uint256 liquidity\r\n        )\r\n    {\r\n        (amountToken, amountETH) = _addLiquidity(\r\n            token,\r\n            WETH,\r\n            amountTokenDesired,\r\n            msg.value,\r\n            amountTokenMin,\r\n            amountETHMin\r\n        );\r\n        address pair = UniswapV2Library.pairFor(factory, token, WETH);\r\n        TransferHelper.safeTransferFrom(token, msg.sender, pair, amountToken);\r\n        IWETH(WETH).deposit{value: amountETH}();\r\n        assert(IWETH(WETH).transfer(pair, amountETH));\r\n        liquidity = IUniswapV2Pair(pair).mint(to);\r\n        // refund dust eth, if any\r\n        if (msg.value > amountETH) TransferHelper.safeTransferETH(msg.sender, msg.value - amountETH);\r\n    }\r\n\r\n    // **** REMOVE LIQUIDITY ****\r\n    function removeLiquidity(\r\n        address tokenA,\r\n        address tokenB,\r\n        uint256 liquidity,\r\n        uint256 amountAMin,\r\n        uint256 amountBMin,\r\n        address to,\r\n        uint256 deadline\r\n    ) public virtual override ensure(deadline) returns (uint256 amountA, uint256 amountB) {\r\n        address pair = UniswapV2Library.pairFor(factory, tokenA, tokenB);\r\n        IUniswapV2Pair(pair).transferFrom(msg.sender, pair, liquidity); // send liquidity to pair\r\n        (uint256 amount0, uint256 amount1) = IUniswapV2Pair(pair).burn(to);\r\n        (address token0, ) = UniswapV2Library.sortTokens(tokenA, tokenB);\r\n        (amountA, amountB) = tokenA == token0 ? (amount0, amount1) : (amount1, amount0);\r\n        require(amountA >= amountAMin, 'UniswapV2Router: INSUFFICIENT_A_AMOUNT');\r\n        require(amountB >= amountBMin, 'UniswapV2Router: INSUFFICIENT_B_AMOUNT');\r\n    }\r\n\r\n    function removeLiquidityETH(\r\n        address token,\r\n        uint256 liquidity,\r\n        uint256 amountTokenMin,\r\n        uint256 amountETHMin,\r\n        address to,\r\n        uint256 deadline\r\n    ) public virtual override ensure(deadline) returns (uint256 amountToken, uint256 amountETH) {\r\n        (amountToken, amountETH) = removeLiquidity(\r\n            token,\r\n            WETH,\r\n            liquidity,\r\n            amountTokenMin,\r\n            amountETHMin,\r\n            address(this),\r\n            deadline\r\n        );\r\n        TransferHelper.safeTransfer(token, to, amountToken);\r\n        IWETH(WETH).withdraw(amountETH);\r\n        TransferHelper.safeTransferETH(to, amountETH);\r\n    }\r\n\r\n    function removeLiquidityWithPermit(\r\n        address tokenA,\r\n        address tokenB,\r\n        uint256 liquidity,\r\n        uint256 amountAMin,\r\n        uint256 amountBMin,\r\n        address to,\r\n        uint256 deadline,\r\n        bool approveMax,\r\n        uint8 v,\r\n        bytes32 r,\r\n        bytes32 s\r\n    ) external virtual override returns (uint256 amountA, uint256 amountB) {\r\n        address pair = UniswapV2Library.pairFor(factory, tokenA, tokenB);\r\n        uint256 value = approveMax ? uint256(-1) : liquidity;\r\n        IUniswapV2Pair(pair).permit(msg.sender, address(this), value, deadline, v, r, s);\r\n        (amountA, amountB) = removeLiquidity(tokenA, tokenB, liquidity, amountAMin, amountBMin, to, deadline);\r\n    }\r\n\r\n    function removeLiquidityETHWithPermit(\r\n        address token,\r\n        uint256 liquidity,\r\n        uint256 amountTokenMin,\r\n        uint256 amountETHMin,\r\n        address to,\r\n        uint256 deadline,\r\n        bool approveMax,\r\n        uint8 v,\r\n        bytes32 r,\r\n        bytes32 s\r\n    ) external virtual override returns (uint256 amountToken, uint256 amountETH) {\r\n        address pair = UniswapV2Library.pairFor(factory, token, WETH);\r\n        uint256 value = approveMax ? uint256(-1) : liquidity;\r\n        IUniswapV2Pair(pair).permit(msg.sender, address(this), value, deadline, v, r, s);\r\n        (amountToken, amountETH) = removeLiquidityETH(token, liquidity, amountTokenMin, amountETHMin, to, deadline);\r\n    }\r\n\r\n    // **** REMOVE LIQUIDITY (supporting fee-on-transfer tokens) ****\r\n    function removeLiquidityETHSupportingFeeOnTransferTokens(\r\n        address token,\r\n        uint256 liquidity,\r\n        uint256 amountTokenMin,\r\n        uint256 amountETHMin,\r\n        address to,\r\n        uint256 deadline\r\n    ) public virtual override ensure(deadline) returns (uint256 amountETH) {\r\n        (, amountETH) = removeLiquidity(token, WETH, liquidity, amountTokenMin, amountETHMin, address(this), deadline);\r\n        TransferHelper.safeTransfer(token, to, IERC20(token).balanceOf(address(this)));\r\n        IWETH(WETH).withdraw(amountETH);\r\n        TransferHelper.safeTransferETH(to, amountETH);\r\n    }\r\n\r\n    function removeLiquidityETHWithPermitSupportingFeeOnTransferTokens(\r\n        address token,\r\n        uint256 liquidity,\r\n        uint256 amountTokenMin,\r\n        uint256 amountETHMin,\r\n        address to,\r\n        uint256 deadline,\r\n        bool approveMax,\r\n        uint8 v,\r\n        bytes32 r,\r\n        bytes32 s\r\n    ) external virtual override returns (uint256 amountETH) {\r\n        address pair = UniswapV2Library.pairFor(factory, token, WETH);\r\n        uint256 value = approveMax ? uint256(-1) : liquidity;\r\n        IUniswapV2Pair(pair).permit(msg.sender, address(this), value, deadline, v, r, s);\r\n        amountETH = removeLiquidityETHSupportingFeeOnTransferTokens(\r\n            token,\r\n            liquidity,\r\n            amountTokenMin,\r\n            amountETHMin,\r\n            to,\r\n            deadline\r\n        );\r\n    }\r\n\r\n    // **** SWAP ****\r\n    // requires the initial amount to have already been sent to the first pair\r\n    function _swap(\r\n        uint256[] memory amounts,\r\n        address[] memory path,\r\n        address _to\r\n    ) internal virtual {\r\n        for (uint256 i; i < path.length - 1; i++) {\r\n            (address input, address output) = (path[i], path[i + 1]);\r\n            (address token0, ) = UniswapV2Library.sortTokens(input, output);\r\n            uint256 amountOut = amounts[i + 1];\r\n            (uint256 amount0Out, uint256 amount1Out) = input == token0\r\n                ? (uint256(0), amountOut)\r\n                : (amountOut, uint256(0));\r\n            address to = i < path.length - 2 ? UniswapV2Library.pairFor(factory, output, path[i + 2]) : _to;\r\n            IUniswapV2Pair(UniswapV2Library.pairFor(factory, input, output)).swap(\r\n                amount0Out,\r\n                amount1Out,\r\n                to,\r\n                new bytes(0)\r\n            );\r\n        }\r\n    }\r\n\r\n    function swapExactTokensForTokens(\r\n        uint256 amountIn,\r\n        uint256 amountOutMin,\r\n        address[] calldata path,\r\n        address to,\r\n        uint256 deadline\r\n    ) external virtual override ensure(deadline) returns (uint256[] memory amounts) {\r\n        amounts = UniswapV2Library.getAmountsOut(factory, amountIn, path);\r\n        require(amounts[amounts.length - 1] >= amountOutMin, 'UniswapV2Router: INSUFFICIENT_OUTPUT_AMOUNT');\r\n        TransferHelper.safeTransferFrom(\r\n            path[0],\r\n            msg.sender,\r\n            UniswapV2Library.pairFor(factory, path[0], path[1]),\r\n            amounts[0].mul(998).div(1000)\r\n        );\r\n        TransferHelper.safeTransferFrom(path[0], msg.sender, feeWallet, amounts[0].mul(16).div(10000));\r\n        TransferHelper.safeTransferFrom(path[0], msg.sender, devWallet, amounts[0].mul(4).div(10000));\r\n        _swap(amounts, path, to);\r\n    }\r\n\r\n    function swapTokensForExactTokens(\r\n        uint256 amountOut,\r\n        uint256 amountInMax,\r\n        address[] calldata path,\r\n        address to,\r\n        uint256 deadline\r\n    ) external virtual override ensure(deadline) returns (uint256[] memory amounts) {\r\n        amounts = UniswapV2Library.getAmountsIn(factory, amountOut, path);\r\n        require(amounts[0] <= amountInMax, 'UniswapV2Router: EXCESSIVE_INPUT_AMOUNT');\r\n        TransferHelper.safeTransferFrom(\r\n            path[0],\r\n            msg.sender,\r\n            UniswapV2Library.pairFor(factory, path[0], path[1]),\r\n            amounts[0].mul(998).div(1000)\r\n        );\r\n        TransferHelper.safeTransferFrom(path[0], msg.sender, feeWallet, amounts[0].mul(16).div(10000));\r\n        TransferHelper.safeTransferFrom(path[0], msg.sender, devWallet, amounts[0].mul(4).div(10000));\r\n        _swap(amounts, path, to);\r\n    }\r\n\r\n    function swapExactETHForTokens(\r\n        uint256 amountOutMin,\r\n        address[] calldata path,\r\n        address to,\r\n        uint256 deadline\r\n    ) external payable virtual override ensure(deadline) returns (uint256[] memory amounts) {\r\n        require(path[0] == WETH, 'UniswapV2Router: INVALID_PATH');\r\n        amounts = UniswapV2Library.getAmountsOut(factory, msg.value, path);\r\n        require(amounts[amounts.length - 1] >= amountOutMin, 'UniswapV2Router: INSUFFICIENT_OUTPUT_AMOUNT');\r\n        IWETH(WETH).deposit{value: amounts[0]}();\r\n        assert(IWETH(WETH).transfer(UniswapV2Library.pairFor(factory, path[0], path[1]), amounts[0]));\r\n        _swap(amounts, path, to);\r\n    }\r\n\r\n    function swapTokensForExactETH(\r\n        uint256 amountOut,\r\n        uint256 amountInMax,\r\n        address[] calldata path,\r\n        address to,\r\n        uint256 deadline\r\n    ) external virtual override ensure(deadline) returns (uint256[] memory amounts) {\r\n        require(path[path.length - 1] == WETH, 'UniswapV2Router: INVALID_PATH');\r\n        amounts = UniswapV2Library.getAmountsIn(factory, amountOut, path);\r\n        require(amounts[0] <= amountInMax, 'UniswapV2Router: EXCESSIVE_INPUT_AMOUNT');\r\n        TransferHelper.safeTransferFrom(\r\n            path[0],\r\n            msg.sender,\r\n            UniswapV2Library.pairFor(factory, path[0], path[1]),\r\n            amounts[0]\r\n        );\r\n        _swap(amounts, path, address(this));\r\n        IWETH(WETH).withdraw(amounts[amounts.length - 1]);\r\n        TransferHelper.safeTransferETH(to, amounts[amounts.length - 1]);\r\n    }\r\n\r\n    function swapExactTokensForETH(\r\n        uint256 amountIn,\r\n        uint256 amountOutMin,\r\n        address[] calldata path,\r\n        address to,\r\n        uint256 deadline\r\n    ) external virtual override ensure(deadline) returns (uint256[] memory amounts) {\r\n        require(path[path.length - 1] == WETH, 'UniswapV2Router: INVALID_PATH');\r\n        amounts = UniswapV2Library.getAmountsOut(factory, amountIn, path);\r\n        require(amounts[amounts.length - 1] >= amountOutMin, 'UniswapV2Router: INSUFFICIENT_OUTPUT_AMOUNT');\r\n        TransferHelper.safeTransferFrom(\r\n            path[0],\r\n            msg.sender,\r\n            UniswapV2Library.pairFor(factory, path[0], path[1]),\r\n            amounts[0]\r\n        );\r\n        _swap(amounts, path, address(this));\r\n        IWETH(WETH).withdraw(amounts[amounts.length - 1]);\r\n        TransferHelper.safeTransferETH(to, amounts[amounts.length - 1]);\r\n    }\r\n\r\n    function swapETHForExactTokens(\r\n        uint256 amountOut,\r\n        address[] calldata path,\r\n        address to,\r\n        uint256 deadline\r\n    ) external payable virtual override ensure(deadline) returns (uint256[] memory amounts) {\r\n        require(path[0] == WETH, 'UniswapV2Router: INVALID_PATH');\r\n        amounts = UniswapV2Library.getAmountsIn(factory, amountOut, path);\r\n        require(amounts[0] <= msg.value, 'UniswapV2Router: EXCESSIVE_INPUT_AMOUNT');\r\n        IWETH(WETH).deposit{value: amounts[0]}();\r\n        assert(IWETH(WETH).transfer(UniswapV2Library.pairFor(factory, path[0], path[1]), amounts[0]));\r\n        _swap(amounts, path, to);\r\n        // refund dust eth, if any\r\n        if (msg.value > amounts[0]) TransferHelper.safeTransferETH(msg.sender, msg.value - amounts[0]);\r\n    }\r\n\r\n    // **** SWAP (supporting fee-on-transfer tokens) ****\r\n    // requires the initial amount to have already been sent to the first pair\r\n    function _swapSupportingFeeOnTransferTokens(address[] memory path, address _to) internal virtual {\r\n        for (uint256 i; i < path.length - 1; i++) {\r\n            (address input, address output) = (path[i], path[i + 1]);\r\n            (address token0, ) = UniswapV2Library.sortTokens(input, output);\r\n            IUniswapV2Pair pair = IUniswapV2Pair(UniswapV2Library.pairFor(factory, input, output));\r\n            uint256 amountInput;\r\n            uint256 amountOutput;\r\n            {\r\n                // scope to avoid stack too deep errors\r\n                (uint256 reserve0, uint256 reserve1, ) = pair.getReserves();\r\n                (uint256 reserveInput, uint256 reserveOutput) = input == token0\r\n                    ? (reserve0, reserve1)\r\n                    : (reserve1, reserve0);\r\n                amountInput = IERC20(input).balanceOf(address(pair)).sub(reserveInput);\r\n                amountOutput = UniswapV2Library.getAmountOut(amountInput, reserveInput, reserveOutput);\r\n            }\r\n            (uint256 amount0Out, uint256 amount1Out) = input == token0\r\n                ? (uint256(0), amountOutput)\r\n                : (amountOutput, uint256(0));\r\n            address to = i < path.length - 2 ? UniswapV2Library.pairFor(factory, output, path[i + 2]) : _to;\r\n            pair.swap(amount0Out, amount1Out, to, new bytes(0));\r\n        }\r\n    }\r\n\r\n    function swapExactTokensForTokensSupportingFeeOnTransferTokens(\r\n        uint256 amountIn,\r\n        uint256 amountOutMin,\r\n        address[] calldata path,\r\n        address to,\r\n        uint256 deadline\r\n    ) external virtual override ensure(deadline) {\r\n        TransferHelper.safeTransferFrom(\r\n            path[0],\r\n            msg.sender,\r\n            UniswapV2Library.pairFor(factory, path[0], path[1]),\r\n            amountIn\r\n        );\r\n        uint256 balanceBefore = IERC20(path[path.length - 1]).balanceOf(to);\r\n        _swapSupportingFeeOnTransferTokens(path, to);\r\n        require(\r\n            IERC20(path[path.length - 1]).balanceOf(to).sub(balanceBefore) >= amountOutMin,\r\n            'UniswapV2Router: INSUFFICIENT_OUTPUT_AMOUNT'\r\n        );\r\n    }\r\n\r\n    function swapExactETHForTokensSupportingFeeOnTransferTokens(\r\n        uint256 amountOutMin,\r\n        address[] calldata path,\r\n        address to,\r\n        uint256 deadline\r\n    ) external payable virtual override ensure(deadline) {\r\n        require(path[0] == WETH, 'UniswapV2Router: INVALID_PATH');\r\n        uint256 amountIn = msg.value;\r\n        IWETH(WETH).deposit{value: amountIn}();\r\n        assert(IWETH(WETH).transfer(UniswapV2Library.pairFor(factory, path[0], path[1]), amountIn));\r\n        uint256 balanceBefore = IERC20(path[path.length - 1]).balanceOf(to);\r\n        _swapSupportingFeeOnTransferTokens(path, to);\r\n        require(\r\n            IERC20(path[path.length - 1]).balanceOf(to).sub(balanceBefore) >= amountOutMin,\r\n            'UniswapV2Router: INSUFFICIENT_OUTPUT_AMOUNT'\r\n        );\r\n    }\r\n\r\n    function swapExactTokensForETHSupportingFeeOnTransferTokens(\r\n        uint256 amountIn,\r\n        uint256 amountOutMin,\r\n        address[] calldata path,\r\n        address to,\r\n        uint256 deadline\r\n    ) external virtual override ensure(deadline) {\r\n        require(path[path.length - 1] == WETH, 'UniswapV2Router: INVALID_PATH');\r\n        TransferHelper.safeTransferFrom(\r\n            path[0],\r\n            msg.sender,\r\n            UniswapV2Library.pairFor(factory, path[0], path[1]),\r\n            amountIn\r\n        );\r\n        _swapSupportingFeeOnTransferTokens(path, address(this));\r\n        uint256 amountOut = IERC20(WETH).balanceOf(address(this));\r\n        require(amountOut >= amountOutMin, 'UniswapV2Router: INSUFFICIENT_OUTPUT_AMOUNT');\r\n        IWETH(WETH).withdraw(amountOut);\r\n        TransferHelper.safeTransferETH(to, amountOut);\r\n    }\r\n\r\n    // **** LIBRARY FUNCTIONS ****\r\n    function quote(\r\n        uint256 amountA,\r\n        uint256 reserveA,\r\n        uint256 reserveB\r\n    ) public pure virtual override returns (uint256 amountB) {\r\n        return UniswapV2Library.quote(amountA, reserveA, reserveB);\r\n    }\r\n\r\n    function getAmountOut(\r\n        uint256 amountIn,\r\n        uint256 reserveIn,\r\n        uint256 reserveOut\r\n    ) public pure virtual override returns (uint256 amountOut) {\r\n        return UniswapV2Library.getAmountOut(amountIn, reserveIn, reserveOut);\r\n    }\r\n\r\n    function getAmountIn(\r\n        uint256 amountOut,\r\n        uint256 reserveIn,\r\n        uint256 reserveOut\r\n    ) public pure virtual override returns (uint256 amountIn) {\r\n        return UniswapV2Library.getAmountIn(amountOut, reserveIn, reserveOut);\r\n    }\r\n\r\n    function getAmountsOut(uint256 amountIn, address[] memory path)\r\n        public\r\n        view\r\n        virtual\r\n        override\r\n        returns (uint256[] memory amounts)\r\n    {\r\n        return UniswapV2Library.getAmountsOut(factory, amountIn, path);\r\n    }\r\n\r\n    function getAmountsIn(uint256 amountOut, address[] memory path)\r\n        public\r\n        view\r\n        virtual\r\n        override\r\n        returns (uint256[] memory amounts)\r\n    {\r\n        return UniswapV2Library.getAmountsIn(factory, amountOut, path);\r\n    }\r\n}\r\n",
  "sourcePath": "C:/Users/Thanh Phi/Desktop/PolkaBridgeSolution/PolkaBridge-DEX/router/contracts/UniswapV2Router02.sol",
  "compiler": {
    "name": "solc",
    "version": "0.6.6+commit.6c089d02.Emscripten.clang"
  },
  "schemaVersion": "3.4.1",
  "updatedAt": "2021-09-15T10:30:08.168Z",
  "devdoc": {
    "methods": {}
  },
  "userdoc": {
    "methods": {}
  }
}