{
  "contractName": "Dispatcher",
  "abi": [
    {
      "inputs": [
        {
          "internalType": "address",
          "name": "target",
          "type": "address"
        }
      ],
      "stateMutability": "nonpayable",
      "type": "constructor"
    },
    {
      "stateMutability": "nonpayable",
      "type": "fallback"
    },
    {
      "inputs": [
        {
          "internalType": "address",
          "name": "target",
          "type": "address"
        }
      ],
      "name": "replace",
      "outputs": [],
      "stateMutability": "nonpayable",
      "type": "function"
    },
    {
      "inputs": [],
      "name": "initialize",
      "outputs": [],
      "stateMutability": "nonpayable",
      "type": "function"
    }
  ],
  "bytecode": "0x608060405234801561001057600080fd5b5060405161067c38038061067c8339818101604052810190610032919061018b565b6100418161004760201b60201c565b50610297565b80600160006101000a81548173ffffffffffffffffffffffffffffffffffffffff021916908373ffffffffffffffffffffffffffffffffffffffff1602179055508073ffffffffffffffffffffffffffffffffffffffff167f8129fc1cf5a76b8b9d76c7ab5059b1685decddb2380c6e4cebb774b7c17ae83f604051602401604051602081830303815290604052907bffffffffffffffffffffffffffffffffffffffffffffffffffffffff19166020820180517bffffffffffffffffffffffffffffffffffffffffffffffffffffffff838183161783525050505060405161013091906101e9565b600060405180830381855af49150503d806000811461016b576040519150601f19603f3d011682016040523d82523d6000602084013e610170565b606091505b50505050565b60008151905061018581610280565b92915050565b6000602082840312156101a1576101a061027b565b5b60006101af84828501610176565b91505092915050565b60006101c382610200565b6101cd818561020b565b93506101dd818560208601610248565b80840191505092915050565b60006101f582846101b8565b915081905092915050565b600081519050919050565b600081905092915050565b600061022182610228565b9050919050565b600073ffffffffffffffffffffffffffffffffffffffff82169050919050565b60005b8381101561026657808201518184015260208101905061024b565b83811115610275576000848401525b50505050565b600080fd5b61028981610216565b811461029457600080fd5b50565b6103d6806102a66000396000f3fe608060405234801561001057600080fd5b506004361061003a5760003560e01c80638129fc1c146100ea578063cabfb934146100f45761003b565b5b6000803590506000806000837bffffffffffffffffffffffffffffffffffffffffffffffffffffffff19167bffffffffffffffffffffffffffffffffffffffffffffffffffffffff1916815260200190815260200160002060009054906101000a900463ffffffff1663ffffffff1690506000600160009054906101000a900473ffffffffffffffffffffffffffffffffffffffff1690503660008037816000366000846127105a03f4826000f35b6100f2610110565b005b61010e60048036038101906101099190610265565b610121565b005b600061011f5761011e610355565b5b565b80600160006101000a81548173ffffffffffffffffffffffffffffffffffffffff021916908373ffffffffffffffffffffffffffffffffffffffff1602179055508073ffffffffffffffffffffffffffffffffffffffff167f8129fc1cf5a76b8b9d76c7ab5059b1685decddb2380c6e4cebb774b7c17ae83f604051602401604051602081830303815290604052907bffffffffffffffffffffffffffffffffffffffffffffffffffffffff19166020820180517bffffffffffffffffffffffffffffffffffffffffffffffffffffffff838183161783525050505060405161020a91906102c3565b600060405180830381855af49150503d8060008114610245576040519150601f19603f3d011682016040523d82523d6000602084013e61024a565b606091505b50505050565b60008135905061025f81610389565b92915050565b60006020828403121561027b5761027a610384565b5b600061028984828501610250565b91505092915050565b600061029d826102da565b6102a781856102e5565b93506102b7818560208601610322565b80840191505092915050565b60006102cf8284610292565b915081905092915050565b600081519050919050565b600081905092915050565b60006102fb82610302565b9050919050565b600073ffffffffffffffffffffffffffffffffffffffff82169050919050565b60005b83811015610340578082015181840152602081019050610325565b8381111561034f576000848401525b50505050565b7f4e487b7100000000000000000000000000000000000000000000000000000000600052600160045260246000fd5b600080fd5b610392816102f0565b811461039d57600080fd5b5056fea264697066735822122007d72110ffe2c62455f588ccc2d385a1aacf7843197766e7d4d3883f2b10efcd64736f6c63430008060033",
  "immutableReferences": {},
  "source": "//SPDX-License-Identifier: No-Idea!\n\npragma solidity 0.8.6;\n\nabstract contract Upgradeable {\n    mapping(bytes4 => uint32) _sizes;\n    address _dest;\n\n    function initialize() virtual public ;\n\n    function replace(address target) public {\n        _dest = target;\n        target.delegatecall(abi.encodeWithSelector(bytes4(keccak256(\"initialize()\"))));\n    }\n}\n\ncontract Dispatcher is Upgradeable {\n\n    constructor(address target) {\n        replace(target);\n    }\n\n    function initialize() override public{\n        // Should only be called by on target contracts, not on the dispatcher\n        assert(false);\n    }\n\n    fallback() external {\n        bytes4 sig;\n        assembly { sig := calldataload(0) }\n        uint len = _sizes[sig];\n        address target = _dest;\n\n        assembly {\n            // return _dest.delegatecall(msg.data)\n            calldatacopy(0x0, 0x0, calldatasize())\n            let result := delegatecall(sub(gas(), 10000), target, 0x0, calldatasize(), 0, len)\n            return(0, len) //we throw away any return data\n        }\n    }\n}\n\ncontract Example is Upgradeable {\n    uint _value;\n\n    function initialize() override public {\n        _sizes[bytes4(keccak256(\"getUint()\"))] = 32;\n    }\n\n    function getUint() public view returns (uint) {\n        return _value*2;\n    }\n\n    function setUint(uint value) public {\n        _value = value;\n    }\n}",
  "sourcePath": "/home/oncemore/BlockchainWork/proxy/contracts/Example.sol",
  "compiler": {
    "name": "solc",
    "version": "0.8.6+commit.11564f7e.Emscripten.clang"
  },
  "schemaVersion": "3.3.4",
  "updatedAt": "2021-08-26T03:33:37.973Z",
  "networkType": "ethereum",
  "devdoc": {
    "kind": "dev",
    "methods": {},
    "version": 1
  },
  "userdoc": {
    "kind": "user",
    "methods": {},
    "version": 1
  }
}