{
  "contractName": "Example",
  "abi": [
    {
      "inputs": [
        {
          "internalType": "address",
          "name": "target",
          "type": "address"
        }
      ],
      "name": "replace",
      "outputs": [],
      "stateMutability": "nonpayable",
      "type": "function"
    },
    {
      "inputs": [],
      "name": "initialize",
      "outputs": [],
      "stateMutability": "nonpayable",
      "type": "function"
    },
    {
      "inputs": [],
      "name": "getUint",
      "outputs": [
        {
          "internalType": "uint256",
          "name": "",
          "type": "uint256"
        }
      ],
      "stateMutability": "view",
      "type": "function",
      "constant": true
    },
    {
      "inputs": [
        {
          "internalType": "uint256",
          "name": "value",
          "type": "uint256"
        }
      ],
      "name": "setUint",
      "outputs": [],
      "stateMutability": "nonpayable",
      "type": "function"
    }
  ],
  "bytecode": "0x608060405234801561001057600080fd5b506104fc806100206000396000f3fe608060405234801561001057600080fd5b506004361061004b5760003560e01c80620267a4146100505780634ef65c3b1461006e5780638129fc1c1461008a578063cabfb93414610094575b600080fd5b6100586100b0565b604051610065919061036a565b60405180910390f35b610088600480360381019061008391906102e6565b6100c5565b005b6100926100cf565b005b6100ae60048036038101906100a991906102b9565b610160565b005b6000600280546100c0919061039b565b905090565b8060028190555050565b60206000807e0267a4cc5a02e5a5bac8ff07c5f25b766898f1855576488bdf1bcd0be4be627bffffffffffffffffffffffffffffffffffffffffffffffffffffffff19167bffffffffffffffffffffffffffffffffffffffffffffffffffffffff1916815260200190815260200160002060006101000a81548163ffffffff021916908363ffffffff160217905550565b80600160006101000a81548173ffffffffffffffffffffffffffffffffffffffff021916908373ffffffffffffffffffffffffffffffffffffffff1602179055508073ffffffffffffffffffffffffffffffffffffffff167f8129fc1cf5a76b8b9d76c7ab5059b1685decddb2380c6e4cebb774b7c17ae83f604051602401604051602081830303815290604052907bffffffffffffffffffffffffffffffffffffffffffffffffffffffff19166020820180517bffffffffffffffffffffffffffffffffffffffffffffffffffffffff83818316178352505050506040516102499190610353565b600060405180830381855af49150503d8060008114610284576040519150601f19603f3d011682016040523d82523d6000602084013e610289565b606091505b50505050565b60008135905061029e81610498565b92915050565b6000813590506102b3816104af565b92915050565b6000602082840312156102cf576102ce610493565b5b60006102dd8482850161028f565b91505092915050565b6000602082840312156102fc576102fb610493565b5b600061030a848285016102a4565b91505092915050565b600061031e82610385565b6103288185610390565b9350610338818560208601610431565b80840191505092915050565b61034d81610427565b82525050565b600061035f8284610313565b915081905092915050565b600060208201905061037f6000830184610344565b92915050565b600081519050919050565b600081905092915050565b60006103a682610427565b91506103b183610427565b9250817fffffffffffffffffffffffffffffffffffffffffffffffffffffffffffffffff04831182151516156103ea576103e9610464565b5b828202905092915050565b600061040082610407565b9050919050565b600073ffffffffffffffffffffffffffffffffffffffff82169050919050565b6000819050919050565b60005b8381101561044f578082015181840152602081019050610434565b8381111561045e576000848401525b50505050565b7f4e487b7100000000000000000000000000000000000000000000000000000000600052601160045260246000fd5b600080fd5b6104a1816103f5565b81146104ac57600080fd5b50565b6104b881610427565b81146104c357600080fd5b5056fea2646970667358221220236ac253be371fd4a58f3affb5eac328dc701f07a59ba8aeb4c69d841c6e5b9b64736f6c63430008060033",
  "immutableReferences": {},
  "source": "//SPDX-License-Identifier: No-Idea!\n\npragma solidity 0.8.6;\n\nabstract contract Upgradeable {\n    mapping(bytes4 => uint32) _sizes;\n    address _dest;\n\n    function initialize() virtual public ;\n\n    function replace(address target) public {\n        _dest = target;\n        target.delegatecall(abi.encodeWithSelector(bytes4(keccak256(\"initialize()\"))));\n    }\n}\n\ncontract Dispatcher is Upgradeable {\n\n    constructor(address target) {\n        replace(target);\n    }\n\n    function initialize() override public{\n        // Should only be called by on target contracts, not on the dispatcher\n        assert(false);\n    }\n\n    fallback() external {\n        bytes4 sig;\n        assembly { sig := calldataload(0) }\n        uint len = _sizes[sig];\n        address target = _dest;\n\n        assembly {\n            // return _dest.delegatecall(msg.data)\n            calldatacopy(0x0, 0x0, calldatasize())\n            let result := delegatecall(sub(gas(), 10000), target, 0x0, calldatasize(), 0, len)\n            return(0, len) //we throw away any return data\n        }\n    }\n}\n\ncontract Example is Upgradeable {\n    uint _value;\n\n    function initialize() override public {\n        _sizes[bytes4(keccak256(\"getUint()\"))] = 32;\n    }\n\n    function getUint() public view returns (uint) {\n        return _value*2;\n    }\n\n    function setUint(uint value) public {\n        _value = value;\n    }\n}",
  "sourcePath": "/home/oncemore/BlockchainWork/proxy/contracts/Example.sol",
  "compiler": {
    "name": "solc",
    "version": "0.8.6+commit.11564f7e.Emscripten.clang"
  },
  "schemaVersion": "3.3.4",
  "updatedAt": "2021-08-26T03:33:37.966Z",
  "networkType": "ethereum",
  "devdoc": {
    "kind": "dev",
    "methods": {},
    "version": 1
  },
  "userdoc": {
    "kind": "user",
    "methods": {},
    "version": 1
  }
}