{
  "contractName": "PolkaBridgeTreasury",
  "abi": [
    {
      "inputs": [
        {
          "internalType": "address payable",
          "name": "_fundOwner",
          "type": "address"
        }
      ],
      "stateMutability": "nonpayable",
      "type": "constructor"
    },
    {
      "anonymous": false,
      "inputs": [
        {
          "indexed": true,
          "internalType": "address",
          "name": "previousOwner",
          "type": "address"
        },
        {
          "indexed": true,
          "internalType": "address",
          "name": "newOwner",
          "type": "address"
        }
      ],
      "name": "OwnershipTransferred",
      "type": "event"
    },
    {
      "inputs": [],
      "name": "name",
      "outputs": [
        {
          "internalType": "string",
          "name": "",
          "type": "string"
        }
      ],
      "stateMutability": "view",
      "type": "function"
    },
    {
      "inputs": [],
      "name": "owner",
      "outputs": [
        {
          "internalType": "address",
          "name": "",
          "type": "address"
        }
      ],
      "stateMutability": "view",
      "type": "function"
    },
    {
      "inputs": [],
      "name": "renounceOwnership",
      "outputs": [],
      "stateMutability": "nonpayable",
      "type": "function"
    },
    {
      "inputs": [
        {
          "internalType": "address",
          "name": "newOwner",
          "type": "address"
        }
      ],
      "name": "transferOwnership",
      "outputs": [],
      "stateMutability": "nonpayable",
      "type": "function"
    },
    {
      "stateMutability": "payable",
      "type": "receive"
    },
    {
      "inputs": [
        {
          "internalType": "address",
          "name": "asset",
          "type": "address"
        }
      ],
      "name": "withdrawToken",
      "outputs": [],
      "stateMutability": "nonpayable",
      "type": "function"
    },
    {
      "inputs": [],
      "name": "withdrawFund",
      "outputs": [],
      "stateMutability": "nonpayable",
      "type": "function"
    }
  ],
  "bytecode": "0x60806040526040518060400160405280601581526020017f506f6c6b614272696467653a20547265617375727900000000000000000000008152506001908051906020019062000051929190620001b9565b503480156200005f57600080fd5b50604051620012dc380380620012dc833981810160405281019062000085919062000280565b620000a562000099620000ed60201b60201c565b620000f560201b60201c565b80600260006101000a81548173ffffffffffffffffffffffffffffffffffffffff021916908373ffffffffffffffffffffffffffffffffffffffff160217905550506200036a565b600033905090565b60008060009054906101000a900473ffffffffffffffffffffffffffffffffffffffff169050816000806101000a81548173ffffffffffffffffffffffffffffffffffffffff021916908373ffffffffffffffffffffffffffffffffffffffff1602179055508173ffffffffffffffffffffffffffffffffffffffff168173ffffffffffffffffffffffffffffffffffffffff167f8be0079c531659141344cd1fd0a4f28419497f9722a3daafe3b4186f6b6457e060405160405180910390a35050565b828054620001c790620002e6565b90600052602060002090601f016020900481019282620001eb576000855562000237565b82601f106200020657805160ff191683800117855562000237565b8280016001018555821562000237579182015b828111156200023657825182559160200191906001019062000219565b5b5090506200024691906200024a565b5090565b5b80821115620002655760008160009055506001016200024b565b5090565b6000815190506200027a8162000350565b92915050565b6000602082840312156200029957620002986200034b565b5b6000620002a98482850162000269565b91505092915050565b6000620002bf82620002c6565b9050919050565b600073ffffffffffffffffffffffffffffffffffffffff82169050919050565b60006002820490506001821680620002ff57607f821691505b602082108114156200031657620003156200031c565b5b50919050565b7f4e487b7100000000000000000000000000000000000000000000000000000000600052602260045260246000fd5b600080fd5b6200035b81620002b2565b81146200036757600080fd5b50565b610f62806200037a6000396000f3fe6080604052600436106100595760003560e01c806306fdde0314610065578063715018a61461009057806389476069146100a75780638da5cb5b146100d0578063e07fa3c1146100fb578063f2fde38b1461011257610060565b3661006057005b600080fd5b34801561007157600080fd5b5061007a61013b565b6040516100879190610bc2565b60405180910390f35b34801561009c57600080fd5b506100a56101c9565b005b3480156100b357600080fd5b506100ce60048036038101906100c991906109a9565b610251565b005b3480156100dc57600080fd5b506100e5610390565b6040516100f29190610b7e565b60405180910390f35b34801561010757600080fd5b506101106103b9565b005b34801561011e57600080fd5b50610139600480360381019061013491906109a9565b6104b3565b005b6001805461014890610d31565b80601f016020809104026020016040519081016040528092919081815260200182805461017490610d31565b80156101c15780601f10610196576101008083540402835291602001916101c1565b820191906000526020600020905b8154815290600101906020018083116101a457829003601f168201915b505050505081565b6101d16105ab565b73ffffffffffffffffffffffffffffffffffffffff166101ef610390565b73ffffffffffffffffffffffffffffffffffffffff1614610245576040517f08c379a000000000000000000000000000000000000000000000000000000000815260040161023c90610c24565b60405180910390fd5b61024f60006105b3565b565b6102596105ab565b73ffffffffffffffffffffffffffffffffffffffff16610277610390565b73ffffffffffffffffffffffffffffffffffffffff16146102cd576040517f08c379a00000000000000000000000000000000000000000000000000000000081526004016102c490610c24565b60405180910390fd5b600081905061038c6102dd610390565b8273ffffffffffffffffffffffffffffffffffffffff166370a08231306040518263ffffffff1660e01b81526004016103169190610b7e565b60206040518083038186803b15801561032e57600080fd5b505afa158015610342573d6000803e3d6000fd5b505050506040513d601f19601f820116820180604052508101906103669190610a03565b8373ffffffffffffffffffffffffffffffffffffffff166106779092919063ffffffff16565b5050565b60008060009054906101000a900473ffffffffffffffffffffffffffffffffffffffff16905090565b6103c16105ab565b73ffffffffffffffffffffffffffffffffffffffff166103df610390565b73ffffffffffffffffffffffffffffffffffffffff1614610435576040517f08c379a000000000000000000000000000000000000000000000000000000000815260040161042c90610c24565b60405180910390fd5b60004790506000811161044757600080fd5b600260009054906101000a900473ffffffffffffffffffffffffffffffffffffffff1673ffffffffffffffffffffffffffffffffffffffff166108fc829081150290604051600060405180830381858888f193505050501580156104af573d6000803e3d6000fd5b5050565b6104bb6105ab565b73ffffffffffffffffffffffffffffffffffffffff166104d9610390565b73ffffffffffffffffffffffffffffffffffffffff161461052f576040517f08c379a000000000000000000000000000000000000000000000000000000000815260040161052690610c24565b60405180910390fd5b600073ffffffffffffffffffffffffffffffffffffffff168173ffffffffffffffffffffffffffffffffffffffff16141561059f576040517f08c379a000000000000000000000000000000000000000000000000000000000815260040161059690610be4565b60405180910390fd5b6105a8816105b3565b50565b600033905090565b60008060009054906101000a900473ffffffffffffffffffffffffffffffffffffffff169050816000806101000a81548173ffffffffffffffffffffffffffffffffffffffff021916908373ffffffffffffffffffffffffffffffffffffffff1602179055508173ffffffffffffffffffffffffffffffffffffffff168173ffffffffffffffffffffffffffffffffffffffff167f8be0079c531659141344cd1fd0a4f28419497f9722a3daafe3b4186f6b6457e060405160405180910390a35050565b6106f88363a9059cbb60e01b8484604051602401610696929190610b99565b604051602081830303815290604052907bffffffffffffffffffffffffffffffffffffffffffffffffffffffff19166020820180517bffffffffffffffffffffffffffffffffffffffffffffffffffffffff83818316178352505050506106fd565b505050565b600061075f826040518060400160405280602081526020017f5361666545524332303a206c6f772d6c6576656c2063616c6c206661696c65648152508573ffffffffffffffffffffffffffffffffffffffff166107c49092919063ffffffff16565b90506000815111156107bf578080602001905181019061077f91906109d6565b6107be576040517f08c379a00000000000000000000000000000000000000000000000000000000081526004016107b590610c64565b60405180910390fd5b5b505050565b60606107d384846000856107dc565b90509392505050565b606082471015610821576040517f08c379a000000000000000000000000000000000000000000000000000000000815260040161081890610c04565b60405180910390fd5b61082a856108f0565b610869576040517f08c379a000000000000000000000000000000000000000000000000000000000815260040161086090610c44565b60405180910390fd5b6000808673ffffffffffffffffffffffffffffffffffffffff1685876040516108929190610b67565b60006040518083038185875af1925050503d80600081146108cf576040519150601f19603f3d011682016040523d82523d6000602084013e6108d4565b606091505b50915091506108e4828286610903565b92505050949350505050565b600080823b905060008111915050919050565b6060831561091357829050610963565b6000835111156109265782518084602001fd5b816040517f08c379a000000000000000000000000000000000000000000000000000000000815260040161095a9190610bc2565b60405180910390fd5b9392505050565b60008135905061097981610ee7565b92915050565b60008151905061098e81610efe565b92915050565b6000815190506109a381610f15565b92915050565b6000602082840312156109bf576109be610d92565b5b60006109cd8482850161096a565b91505092915050565b6000602082840312156109ec576109eb610d92565b5b60006109fa8482850161097f565b91505092915050565b600060208284031215610a1957610a18610d92565b5b6000610a2784828501610994565b91505092915050565b610a3981610cb6565b82525050565b6000610a4a82610c84565b610a548185610c9a565b9350610a64818560208601610cfe565b80840191505092915050565b6000610a7b82610c8f565b610a858185610ca5565b9350610a95818560208601610cfe565b610a9e81610d97565b840191505092915050565b6000610ab6602683610ca5565b9150610ac182610da8565b604082019050919050565b6000610ad9602683610ca5565b9150610ae482610df7565b604082019050919050565b6000610afc602083610ca5565b9150610b0782610e46565b602082019050919050565b6000610b1f601d83610ca5565b9150610b2a82610e6f565b602082019050919050565b6000610b42602a83610ca5565b9150610b4d82610e98565b604082019050919050565b610b6181610cf4565b82525050565b6000610b738284610a3f565b915081905092915050565b6000602082019050610b936000830184610a30565b92915050565b6000604082019050610bae6000830185610a30565b610bbb6020830184610b58565b9392505050565b60006020820190508181036000830152610bdc8184610a70565b905092915050565b60006020820190508181036000830152610bfd81610aa9565b9050919050565b60006020820190508181036000830152610c1d81610acc565b9050919050565b60006020820190508181036000830152610c3d81610aef565b9050919050565b60006020820190508181036000830152610c5d81610b12565b9050919050565b60006020820190508181036000830152610c7d81610b35565b9050919050565b600081519050919050565b600081519050919050565b600081905092915050565b600082825260208201905092915050565b6000610cc182610cd4565b9050919050565b60008115159050919050565b600073ffffffffffffffffffffffffffffffffffffffff82169050919050565b6000819050919050565b60005b83811015610d1c578082015181840152602081019050610d01565b83811115610d2b576000848401525b50505050565b60006002820490506001821680610d4957607f821691505b60208210811415610d5d57610d5c610d63565b5b50919050565b7f4e487b7100000000000000000000000000000000000000000000000000000000600052602260045260246000fd5b600080fd5b6000601f19601f8301169050919050565b7f4f776e61626c653a206e6577206f776e657220697320746865207a65726f206160008201527f6464726573730000000000000000000000000000000000000000000000000000602082015250565b7f416464726573733a20696e73756666696369656e742062616c616e636520666f60008201527f722063616c6c0000000000000000000000000000000000000000000000000000602082015250565b7f4f776e61626c653a2063616c6c6572206973206e6f7420746865206f776e6572600082015250565b7f416464726573733a2063616c6c20746f206e6f6e2d636f6e7472616374000000600082015250565b7f5361666545524332303a204552433230206f7065726174696f6e20646964206e60008201527f6f74207375636365656400000000000000000000000000000000000000000000602082015250565b610ef081610cb6565b8114610efb57600080fd5b50565b610f0781610cc8565b8114610f1257600080fd5b50565b610f1e81610cf4565b8114610f2957600080fd5b5056fea2646970667358221220de7bed3fd9a57e217672dc36dfd6b353f997b93bf636cd39f0677260afb5c94064736f6c63430008060033",
  "immutableReferences": {},
  "source": "// Created by Cycles\npragma solidity 0.8.6;\n\nimport \"@openzeppelin/contracts/token/ERC20/utils/SafeERC20.sol\";\n\nimport \"@openzeppelin/contracts/access/Ownable.sol\";\n\ncontract PolkaBridgeTreasury is Ownable {\n    string public name = \"PolkaBridge: Treasury\";\n\n    using SafeERC20 for IERC20;\n    address payable private fundOwner;\n\n    constructor(address payable _fundOwner) public {\n        fundOwner = _fundOwner;\n    }\n\n    function withdrawToken(address asset) public onlyOwner {\n        IERC20 token = IERC20(asset);\n        token.safeTransfer(owner(), token.balanceOf(address(this)));\n    }\n\n    function withdrawFund() public onlyOwner {\n        uint256 balance = address(this).balance;\n        require(balance > 0);\n        fundOwner.transfer(balance);\n    }\n\n    receive() external payable {}\n}\n\n// pragma solidity ^0.6.0;\n\n\n// contract Context {\n  \n//     constructor () internal { }\n\n//     function _msgSender() internal view virtual returns (address payable) {\n//         return msg.sender;\n//     }\n\n//     function _msgData() internal view virtual returns (bytes memory) {\n//         this; // silence state mutability warning without generating bytecode - see https://github.com/ethereum/solidity/issues/2691\n//         return msg.data;\n//     }\n// }\n// pragma solidity ^0.6.0;\n\n// library SafeMath {\n   \n//     function add(uint256 a, uint256 b) internal pure returns (uint256) {\n//         uint256 c = a + b;\n//         require(c >= a, \"SafeMath: addition overflow\");\n\n//         return c;\n//     }\n\n   \n//     function sub(uint256 a, uint256 b) internal pure returns (uint256) {\n//         return sub(a, b, \"SafeMath: subtraction overflow\");\n//     }\n\n    \n//     function sub(uint256 a, uint256 b, string memory errorMessage) internal pure returns (uint256) {\n//         require(b <= a, errorMessage);\n//         uint256 c = a - b;\n\n//         return c;\n//     }\n\n   \n//     function mul(uint256 a, uint256 b) internal pure returns (uint256) {\n//         // Gas optimization: this is cheaper than requiring 'a' not being zero, but the\n//         // benefit is lost if 'b' is also tested.\n//         // See: https://github.com/OpenZeppelin/openzeppelin-contracts/pull/522\n//         if (a == 0) {\n//             return 0;\n//         }\n\n//         uint256 c = a * b;\n//         require(c / a == b, \"SafeMath: multiplication overflow\");\n\n//         return c;\n//     }\n\n    \n//     function div(uint256 a, uint256 b) internal pure returns (uint256) {\n//         return div(a, b, \"SafeMath: division by zero\");\n//     }\n\n    \n//     function div(uint256 a, uint256 b, string memory errorMessage) internal pure returns (uint256) {\n//         // Solidity only automatically asserts when dividing by 0\n//         require(b > 0, errorMessage);\n//         uint256 c = a / b;\n//         // assert(a == b * c + a % b); // There is no case in which this doesn't hold\n\n//         return c;\n//     }\n\n    \n//     function mod(uint256 a, uint256 b) internal pure returns (uint256) {\n//         return mod(a, b, \"SafeMath: modulo by zero\");\n//     }\n\n    \n//     function mod(uint256 a, uint256 b, string memory errorMessage) internal pure returns (uint256) {\n//         require(b != 0, errorMessage);\n//         return a % b;\n//     }\n// }\n// pragma solidity ^0.6.0;\n\n// import \"../GSN/Context.sol\";\n// /**\n//  * @dev Contract module which provides a basic access control mechanism, where\n//  * there is an account (an owner) that can be granted exclusive access to\n//  * specific functions.\n//  *\n//  * This module is used through inheritance. It will make available the modifier\n//  * `onlyOwner`, which can be applied to your functions to restrict their use to\n//  * the owner.\n//  */\n// contract Ownable is Context {\n//     address private _owner;\n\n//     event OwnershipTransferred(address indexed previousOwner, address indexed newOwner);\n\n//     /**\n//      * @dev Initializes the contract setting the deployer as the initial owner.\n//      */\n//     constructor () internal {\n//         address msgSender = _msgSender();\n//         _owner = msgSender;\n//         emit OwnershipTransferred(address(0), msgSender);\n//     }\n\n//     /**\n//      * @dev Returns the address of the current owner.\n//      */\n//     function owner() public view returns (address) {\n//         return _owner;\n//     }\n\n//     /**\n//      * @dev Throws if called by any account other than the owner.\n//      */\n//     modifier onlyOwner() {\n//         require(isOwner(), \"Ownable: caller is not the owner\");\n//         _;\n//     }\n\n//     /**\n//      * @dev Returns true if the caller is the current owner.\n//      */\n//     function isOwner() public view returns (bool) {\n//         return _msgSender() == _owner;\n//     }\n\n//     /**\n//      * @dev Leaves the contract without owner. It will not be possible to call\n//      * `onlyOwner` functions anymore. Can only be called by the current owner.\n//      *\n//      * NOTE: Renouncing ownership will leave the contract without an owner,\n//      * thereby removing any functionality that is only available to the owner.\n//      */\n//     function renounceOwnership() public virtual onlyOwner {\n//         emit OwnershipTransferred(_owner, address(0));\n//         _owner = address(0);\n//     }\n\n//     /**\n//      * @dev Transfers ownership of the contract to a new account (`newOwner`).\n//      * Can only be called by the current owner.\n//      */\n//     function transferOwnership(address newOwner) public virtual onlyOwner {\n//         _transferOwnership(newOwner);\n//     }\n\n//     /**\n//      * @dev Transfers ownership of the contract to a new account (`newOwner`).\n//      */\n//     function _transferOwnership(address newOwner) internal virtual {\n//         require(newOwner != address(0), \"Ownable: new owner is the zero address\");\n//         emit OwnershipTransferred(_owner, newOwner);\n//         _owner = newOwner;\n//     }\n// }\n// pragma solidity ^0.6.0;\n\n\n// interface IERC20 {\n   \n//     function totalSupply() external view returns (uint256);\n\n  \n//     function balanceOf(address account) external view returns (uint256);\n\n    \n//     function transfer(address recipient, uint256 amount) external returns (bool);\n//     function transferWithoutDeflationary(address recipient, uint256 amount) external returns (bool) ;\n   \n//     function allowance(address owner, address spender) external view returns (uint256);\n\n    \n//     function approve(address spender, uint256 amount) external returns (bool);\n\n    \n//     function transferFrom(address sender, address recipient, uint256 amount) external returns (bool);\n\n    \n//     event Transfer(address indexed from, address indexed to, uint256 value);\n\n    \n//     event Approval(address indexed owner, address indexed spender, uint256 value);\n// }\n// pragma solidity ^0.6.0;\n\n// import \"./IERC20.sol\";\n// import \"../../math/SafeMath.sol\";\n// import \"../../utils/Address.sol\";\n\n// /**\n//  * @title SafeERC20\n//  * @dev Wrappers around ERC20 operations that throw on failure (when the token\n//  * contract returns false). Tokens that return no value (and instead revert or\n//  * throw on failure) are also supported, non-reverting calls are assumed to be\n//  * successful.\n//  * To use this library you can add a `using SafeERC20 for ERC20;` statement to your contract,\n//  * which allows you to call the safe operations as `token.safeTransfer(...)`, etc.\n//  */\n// library SafeERC20 {\n//     using SafeMath for uint256;\n//     using Address for address;\n\n//     function safeTransfer(IERC20 token, address to, uint256 value) internal {\n//         callOptionalReturn(token, abi.encodeWithSelector(token.transfer.selector, to, value));\n//     }\n\n//     function safeTransferFrom(IERC20 token, address from, address to, uint256 value) internal {\n//         callOptionalReturn(token, abi.encodeWithSelector(token.transferFrom.selector, from, to, value));\n//     }\n\n//     function safeApprove(IERC20 token, address spender, uint256 value) internal {\n//         // safeApprove should only be called when setting an initial allowance,\n//         // or when resetting it to zero. To increase and decrease it, use\n//         // 'safeIncreaseAllowance' and 'safeDecreaseAllowance'\n//         // solhint-disable-next-line max-line-length\n//         require((value == 0) || (token.allowance(address(this), spender) == 0),\n//             \"SafeERC20: approve from non-zero to non-zero allowance\"\n//         );\n//         callOptionalReturn(token, abi.encodeWithSelector(token.approve.selector, spender, value));\n//     }\n\n//     function safeIncreaseAllowance(IERC20 token, address spender, uint256 value) internal {\n//         uint256 newAllowance = token.allowance(address(this), spender).add(value);\n//         callOptionalReturn(token, abi.encodeWithSelector(token.approve.selector, spender, newAllowance));\n//     }\n\n//     function safeDecreaseAllowance(IERC20 token, address spender, uint256 value) internal {\n//         uint256 newAllowance = token.allowance(address(this), spender).sub(value, \"SafeERC20: decreased allowance below zero\");\n//         callOptionalReturn(token, abi.encodeWithSelector(token.approve.selector, spender, newAllowance));\n//     }\n\n//     /**\n//      * @dev Imitates a Solidity high-level call (i.e. a regular function call to a contract), relaxing the requirement\n//      * on the return value: the return value is optional (but if data is returned, it must not be false).\n//      * @param token The token targeted by the call.\n//      * @param data The call data (encoded using abi.encode or one of its variants).\n//      */\n//     function callOptionalReturn(IERC20 token, bytes memory data) private {\n//         // We need to perform a low level call here, to bypass Solidity's return data size checking mechanism, since\n//         // we're implementing it ourselves.\n\n//         // A Solidity high level call has three parts:\n//         //  1. The target address is checked to verify it contains contract code\n//         //  2. The call itself is made, and success asserted\n//         //  3. The return value is decoded, which in turn checks the size of the returned data.\n//         // solhint-disable-next-line max-line-length\n//         require(address(token).isContract(), \"SafeERC20: call to non-contract\");\n\n//         // solhint-disable-next-line avoid-low-level-calls\n//         (bool success, bytes memory returndata) = address(token).call(data);\n//         require(success, \"SafeERC20: low-level call failed\");\n\n//         if (returndata.length > 0) { // Return data is optional\n//             // solhint-disable-next-line max-line-length\n//             require(abi.decode(returndata, (bool)), \"SafeERC20: ERC20 operation did not succeed\");\n//         }\n//     }\n// }\n// pragma solidity ^0.6.0;\n\n// /**\n//  * @dev Collection of functions related to the address type\n//  */\n// library Address {\n//     /**\n//      * @dev Returns true if `account` is a contract.\n//      *\n//      * [IMPORTANT]\n//      * ====\n//      * It is unsafe to assume that an address for which this function returns\n//      * false is an externally-owned account (EOA) and not a contract.\n//      *\n//      * Among others, `isContract` will return false for the following\n//      * types of addresses:\n//      *\n//      *  - an externally-owned account\n//      *  - a contract in construction\n//      *  - an address where a contract will be created\n//      *  - an address where a contract lived, but was destroyed\n//      * ====\n//      */\n//     function isContract(address account) internal view returns (bool) {\n//         // According to EIP-1052, 0x0 is the value returned for not-yet created accounts\n//         // and 0xc5d2460186f7233c927e7db2dcc703c0e500b653ca82273b7bfad8045d85a470 is returned\n//         // for accounts without code, i.e. `keccak256('')`\n//         bytes32 codehash;\n//         bytes32 accountHash = 0xc5d2460186f7233c927e7db2dcc703c0e500b653ca82273b7bfad8045d85a470;\n//         // solhint-disable-next-line no-inline-assembly\n//         assembly { codehash := extcodehash(account) }\n//         return (codehash != accountHash && codehash != 0x0);\n//     }\n\n//     /**\n//      * @dev Converts an `address` into `address payable`. Note that this is\n//      * simply a type cast: the actual underlying value is not changed.\n//      *\n//      * _Available since v2.4.0._\n//      */\n//     function toPayable(address account) internal pure returns (address payable) {\n//         return address(uint160(account));\n//     }\n\n//     /**\n//      * @dev Replacement for Solidity's `transfer`: sends `amount` wei to\n//      * `recipient`, forwarding all available gas and reverting on errors.\n//      *\n//      * https://eips.ethereum.org/EIPS/eip-1884[EIP1884] increases the gas cost\n//      * of certain opcodes, possibly making contracts go over the 2300 gas limit\n//      * imposed by `transfer`, making them unable to receive funds via\n//      * `transfer`. {sendValue} removes this limitation.\n//      *\n//      * https://diligence.consensys.net/posts/2019/09/stop-using-soliditys-transfer-now/[Learn more].\n//      *\n//      * IMPORTANT: because control is transferred to `recipient`, care must be\n//      * taken to not create reentrancy vulnerabilities. Consider using\n//      * {ReentrancyGuard} or the\n//      * https://solidity.readthedocs.io/en/v0.5.11/security-considerations.html#use-the-checks-effects-interactions-pattern[checks-effects-interactions pattern].\n//      *\n//      * _Available since v2.4.0._\n//      */\n//     function sendValue(address payable recipient, uint256 amount) internal {\n//         require(address(this).balance >= amount, \"Address: insufficient balance\");\n\n//         // solhint-disable-next-line avoid-low-level-calls, avoid-call-value\n//         (bool success, ) = recipient.call.value(amount)(\"\");\n//         require(success, \"Address: unable to send value, recipient may have reverted\");\n//     }\n// }",
  "sourcePath": "/home/oncemore/BlockchainWork/Polka/deploy_1/Treasury/contracts/Treasury.sol",
  "compiler": {
    "name": "solc",
    "version": "0.8.6+commit.11564f7e.Emscripten.clang"
  },
  "schemaVersion": "3.3.4",
  "updatedAt": "2021-09-15T15:50:02.183Z",
  "devdoc": {
    "kind": "dev",
    "methods": {
      "owner()": {
        "details": "Returns the address of the current owner."
      },
      "renounceOwnership()": {
        "details": "Leaves the contract without owner. It will not be possible to call `onlyOwner` functions anymore. Can only be called by the current owner. NOTE: Renouncing ownership will leave the contract without an owner, thereby removing any functionality that is only available to the owner."
      },
      "transferOwnership(address)": {
        "details": "Transfers ownership of the contract to a new account (`newOwner`). Can only be called by the current owner."
      }
    },
    "version": 1
  },
  "userdoc": {
    "kind": "user",
    "methods": {},
    "version": 1
  }
}