{
  "contractName": "PolkaTreasury",
  "abi": [
    {
      "inputs": [],
      "stateMutability": "nonpayable",
      "type": "constructor"
    },
    {
      "anonymous": false,
      "inputs": [
        {
          "indexed": true,
          "internalType": "address",
          "name": "previousOwner",
          "type": "address"
        },
        {
          "indexed": true,
          "internalType": "address",
          "name": "newOwner",
          "type": "address"
        }
      ],
      "name": "OwnershipTransferred",
      "type": "event"
    },
    {
      "inputs": [],
      "name": "_receiver",
      "outputs": [
        {
          "internalType": "address",
          "name": "",
          "type": "address"
        }
      ],
      "stateMutability": "view",
      "type": "function"
    },
    {
      "inputs": [],
      "name": "owner",
      "outputs": [
        {
          "internalType": "address",
          "name": "",
          "type": "address"
        }
      ],
      "stateMutability": "view",
      "type": "function"
    },
    {
      "inputs": [],
      "name": "renounceOwnership",
      "outputs": [],
      "stateMutability": "nonpayable",
      "type": "function"
    },
    {
      "inputs": [
        {
          "internalType": "address",
          "name": "newOwner",
          "type": "address"
        }
      ],
      "name": "transferOwnership",
      "outputs": [],
      "stateMutability": "nonpayable",
      "type": "function"
    },
    {
      "stateMutability": "payable",
      "type": "receive"
    },
    {
      "inputs": [
        {
          "internalType": "address",
          "name": "token_addr",
          "type": "address"
        }
      ],
      "name": "add_new_token",
      "outputs": [
        {
          "internalType": "bool",
          "name": "",
          "type": "bool"
        }
      ],
      "stateMutability": "nonpayable",
      "type": "function"
    },
    {
      "inputs": [
        {
          "internalType": "address",
          "name": "token_addr",
          "type": "address"
        }
      ],
      "name": "is_token_exist",
      "outputs": [
        {
          "internalType": "bool",
          "name": "",
          "type": "bool"
        }
      ],
      "stateMutability": "view",
      "type": "function"
    },
    {
      "inputs": [
        {
          "internalType": "address",
          "name": "token_addr",
          "type": "address"
        }
      ],
      "name": "get_token_balance",
      "outputs": [
        {
          "internalType": "uint256",
          "name": "",
          "type": "uint256"
        }
      ],
      "stateMutability": "view",
      "type": "function"
    },
    {
      "inputs": [
        {
          "internalType": "address",
          "name": "new_receiver",
          "type": "address"
        }
      ],
      "name": "set_receiver",
      "outputs": [
        {
          "internalType": "bool",
          "name": "",
          "type": "bool"
        }
      ],
      "stateMutability": "nonpayable",
      "type": "function"
    },
    {
      "inputs": [
        {
          "internalType": "address",
          "name": "token_addr",
          "type": "address"
        },
        {
          "internalType": "uint256",
          "name": "amount",
          "type": "uint256"
        }
      ],
      "name": "fee_transfer",
      "outputs": [],
      "stateMutability": "nonpayable",
      "type": "function"
    },
    {
      "inputs": [],
      "name": "withdrawAll",
      "outputs": [],
      "stateMutability": "nonpayable",
      "type": "function"
    }
  ],
  "bytecode": "0x608060405234801561001057600080fd5b5061002d61002261007360201b60201c565b61007b60201b60201c565b33600360006101000a81548173ffffffffffffffffffffffffffffffffffffffff021916908373ffffffffffffffffffffffffffffffffffffffff16021790555061013f565b600033905090565b60008060009054906101000a900473ffffffffffffffffffffffffffffffffffffffff169050816000806101000a81548173ffffffffffffffffffffffffffffffffffffffff021916908373ffffffffffffffffffffffffffffffffffffffff1602179055508173ffffffffffffffffffffffffffffffffffffffff168173ffffffffffffffffffffffffffffffffffffffff167f8be0079c531659141344cd1fd0a4f28419497f9722a3daafe3b4186f6b6457e060405160405180910390a35050565b6112e78061014e6000396000f3fe6080604052600436106100955760003560e01c80638da5cb5b116100595780638da5cb5b146101605780639b8beac91461018b578063d1dd6f56146101c8578063d472d6bf14610205578063f2fde38b146102425761009c565b806302964ff1146100a15780635563a062146100cc578063715018a6146100f55780637ab2c4c61461010c578063853828b6146101495761009c565b3661009c57005b600080fd5b3480156100ad57600080fd5b506100b661026b565b6040516100c39190610e79565b60405180910390f35b3480156100d857600080fd5b506100f360048036038101906100ee9190610ce0565b610291565b005b34801561010157600080fd5b5061010a61052c565b005b34801561011857600080fd5b50610133600480360381019061012e9190610cb3565b6105b4565b6040516101409190610ebd565b60405180910390f35b34801561015557600080fd5b5061015e61061b565b005b34801561016c57600080fd5b50610175610756565b6040516101829190610e79565b60405180910390f35b34801561019757600080fd5b506101b260048036038101906101ad9190610cb3565b61077f565b6040516101bf9190610ebd565b60405180910390f35b3480156101d457600080fd5b506101ef60048036038101906101ea9190610cb3565b6108d1565b6040516101fc9190610ebd565b60405180910390f35b34801561021157600080fd5b5061022c60048036038101906102279190610cb3565b610a09565b6040516102399190610f98565b60405180910390f35b34801561024e57600080fd5b5061026960048036038101906102649190610cb3565b610a9b565b005b600360009054906101000a900473ffffffffffffffffffffffffffffffffffffffff1681565b610299610b93565b73ffffffffffffffffffffffffffffffffffffffff166102b7610756565b73ffffffffffffffffffffffffffffffffffffffff161461030d576040517f08c379a000000000000000000000000000000000000000000000000000000000815260040161030490610f38565b60405180910390fd5b600160008373ffffffffffffffffffffffffffffffffffffffff1673ffffffffffffffffffffffffffffffffffffffff16815260200190815260200160002060009054906101000a900460ff16610399576040517f08c379a000000000000000000000000000000000000000000000000000000000815260040161039090610f18565b60405180910390fd5b60006103a483610a09565b9050808211156103e9576040517f08c379a00000000000000000000000000000000000000000000000000000000081526004016103e090610ef8565b60405180910390fd5b8273ffffffffffffffffffffffffffffffffffffffff1663095ea7b330846040518363ffffffff1660e01b8152600401610424929190610e94565b602060405180830381600087803b15801561043e57600080fd5b505af1158015610452573d6000803e3d6000fd5b505050506040513d601f19601f820116820180604052508101906104769190610d20565b508273ffffffffffffffffffffffffffffffffffffffff1663a9059cbb600360009054906101000a900473ffffffffffffffffffffffffffffffffffffffff16846040518363ffffffff1660e01b81526004016104d4929190610e94565b602060405180830381600087803b1580156104ee57600080fd5b505af1158015610502573d6000803e3d6000fd5b505050506040513d601f19601f820116820180604052508101906105269190610d20565b50505050565b610534610b93565b73ffffffffffffffffffffffffffffffffffffffff16610552610756565b73ffffffffffffffffffffffffffffffffffffffff16146105a8576040517f08c379a000000000000000000000000000000000000000000000000000000000815260040161059f90610f38565b60405180910390fd5b6105b26000610b9b565b565b6000600160008373ffffffffffffffffffffffffffffffffffffffff1673ffffffffffffffffffffffffffffffffffffffff16815260200190815260200160002060009054906101000a900460ff16156106115760019050610616565b600090505b919050565b610623610b93565b73ffffffffffffffffffffffffffffffffffffffff16610641610756565b73ffffffffffffffffffffffffffffffffffffffff1614610697576040517f08c379a000000000000000000000000000000000000000000000000000000000815260040161068e90610f38565b60405180910390fd5b60008060005b600280549050811015610751576106f1600282815481106106c1576106c0611084565b5b9060005260206000200160009054906101000a900473ffffffffffffffffffffffffffffffffffffffff16610a09565b92506002818154811061070757610706611084565b5b9060005260206000200160009054906101000a900473ffffffffffffffffffffffffffffffffffffffff16915061073e8284610291565b80806107499061100c565b91505061069d565b505050565b60008060009054906101000a900473ffffffffffffffffffffffffffffffffffffffff16905090565b6000600160008373ffffffffffffffffffffffffffffffffffffffff1673ffffffffffffffffffffffffffffffffffffffff16815260200190815260200160002060009054906101000a900460ff161561080e576040517f08c379a000000000000000000000000000000000000000000000000000000000815260040161080590610f58565b60405180910390fd5b60018060008473ffffffffffffffffffffffffffffffffffffffff1673ffffffffffffffffffffffffffffffffffffffff16815260200190815260200160002060006101000a81548160ff0219169083151502179055506002829080600181540180825580915050600190039060005260206000200160009091909190916101000a81548173ffffffffffffffffffffffffffffffffffffffff021916908373ffffffffffffffffffffffffffffffffffffffff16021790555060019050919050565b60006108db610b93565b73ffffffffffffffffffffffffffffffffffffffff166108f9610756565b73ffffffffffffffffffffffffffffffffffffffff161461094f576040517f08c379a000000000000000000000000000000000000000000000000000000000815260040161094690610f38565b60405180910390fd5b600073ffffffffffffffffffffffffffffffffffffffff168273ffffffffffffffffffffffffffffffffffffffff1614156109bf576040517f08c379a00000000000000000000000000000000000000000000000000000000081526004016109b690610f78565b60405180910390fd5b81600360006101000a81548173ffffffffffffffffffffffffffffffffffffffff021916908373ffffffffffffffffffffffffffffffffffffffff16021790555060019050919050565b60008173ffffffffffffffffffffffffffffffffffffffff166370a08231306040518263ffffffff1660e01b8152600401610a449190610e79565b60206040518083038186803b158015610a5c57600080fd5b505afa158015610a70573d6000803e3d6000fd5b505050506040513d601f19601f82011682018060405250810190610a949190610d4d565b9050919050565b610aa3610b93565b73ffffffffffffffffffffffffffffffffffffffff16610ac1610756565b73ffffffffffffffffffffffffffffffffffffffff1614610b17576040517f08c379a0000000000000000000000000000000000000000000000000000000008152600401610b0e90610f38565b60405180910390fd5b600073ffffffffffffffffffffffffffffffffffffffff168173ffffffffffffffffffffffffffffffffffffffff161415610b87576040517f08c379a0000000000000000000000000000000000000000000000000000000008152600401610b7e90610ed8565b60405180910390fd5b610b9081610b9b565b50565b600033905090565b60008060009054906101000a900473ffffffffffffffffffffffffffffffffffffffff169050816000806101000a81548173ffffffffffffffffffffffffffffffffffffffff021916908373ffffffffffffffffffffffffffffffffffffffff1602179055508173ffffffffffffffffffffffffffffffffffffffff168173ffffffffffffffffffffffffffffffffffffffff167f8be0079c531659141344cd1fd0a4f28419497f9722a3daafe3b4186f6b6457e060405160405180910390a35050565b600081359050610c6e8161126c565b92915050565b600081519050610c8381611283565b92915050565b600081359050610c988161129a565b92915050565b600081519050610cad8161129a565b92915050565b600060208284031215610cc957610cc86110b3565b5b6000610cd784828501610c5f565b91505092915050565b60008060408385031215610cf757610cf66110b3565b5b6000610d0585828601610c5f565b9250506020610d1685828601610c89565b9150509250929050565b600060208284031215610d3657610d356110b3565b5b6000610d4484828501610c74565b91505092915050565b600060208284031215610d6357610d626110b3565b5b6000610d7184828501610c9e565b91505092915050565b610d8381610fc4565b82525050565b610d9281610fd6565b82525050565b6000610da5602683610fb3565b9150610db0826110b8565b604082019050919050565b6000610dc8602f83610fb3565b9150610dd382611107565b604082019050919050565b6000610deb603983610fb3565b9150610df682611156565b604082019050919050565b6000610e0e602083610fb3565b9150610e19826111a5565b602082019050919050565b6000610e31603083610fb3565b9150610e3c826111ce565b604082019050919050565b6000610e54603383610fb3565b9150610e5f8261121d565b604082019050919050565b610e7381611002565b82525050565b6000602082019050610e8e6000830184610d7a565b92915050565b6000604082019050610ea96000830185610d7a565b610eb66020830184610e6a565b9392505050565b6000602082019050610ed26000830184610d89565b92915050565b60006020820190508181036000830152610ef181610d98565b9050919050565b60006020820190508181036000830152610f1181610dbb565b9050919050565b60006020820190508181036000830152610f3181610dde565b9050919050565b60006020820190508181036000830152610f5181610e01565b9050919050565b60006020820190508181036000830152610f7181610e24565b9050919050565b60006020820190508181036000830152610f9181610e47565b9050919050565b6000602082019050610fad6000830184610e6a565b92915050565b600082825260208201905092915050565b6000610fcf82610fe2565b9050919050565b60008115159050919050565b600073ffffffffffffffffffffffffffffffffffffffff82169050919050565b6000819050919050565b600061101782611002565b91507fffffffffffffffffffffffffffffffffffffffffffffffffffffffffffffffff82141561104a57611049611055565b5b600182019050919050565b7f4e487b7100000000000000000000000000000000000000000000000000000000600052601160045260246000fd5b7f4e487b7100000000000000000000000000000000000000000000000000000000600052603260045260246000fd5b600080fd5b7f4f776e61626c653a206e6577206f776e657220697320746865207a65726f206160008201527f6464726573730000000000000000000000000000000000000000000000000000602082015250565b7f506f6c6b6154726561737572793a2042616c616e6365206973206c657373207460008201527f68616e20726571756972656d656e740000000000000000000000000000000000602082015250565b7f506f6c6b6154726561737572793a2054686520746f6b656e206973206e6f742060008201527f7265676973746572656420696e20746869732077616c6c657400000000000000602082015250565b7f4f776e61626c653a2063616c6c6572206973206e6f7420746865206f776e6572600082015250565b7f506f6c6b6154726561737572793a20455243323020746f6b656e20697320616c60008201527f7265616479207265676973746572656400000000000000000000000000000000602082015250565b7f506f6c6b6154726561737572793a204e6577205265636569766572206164647260008201527f6573732063616e206e6f74206265207a65726f00000000000000000000000000602082015250565b61127581610fc4565b811461128057600080fd5b50565b61128c81610fd6565b811461129757600080fd5b50565b6112a381611002565b81146112ae57600080fd5b5056fea26469706673582212204a69cb5c88ef3358e15e7b406596187ea4f5ddfddec860feeac30449edbe59c264736f6c63430008060033",
  "immutableReferences": {},
  "source": "pragma solidity 0.8.6;\n\nimport '@openzeppelin/contracts/access/Ownable.sol';\nimport '@openzeppelin/contracts/token/ERC20/IERC20.sol';\n// import './IERC20.sol';\n// import '@openzeppelin/contracts/token/ERC20/ERC20.sol';\n\ncontract PolkaTreasury is Ownable{\n    mapping(address => bool) erc_token_list;\n    address[] token_array;\n    address public _receiver;\n    constructor() public Ownable(){\n        _receiver = msg.sender;\n    }\n    receive() external payable {}\n    function add_new_token(address token_addr) public returns(bool) {\n        require(!erc_token_list[token_addr], 'PolkaTreasury: ERC20 token is already registered');\n        erc_token_list[token_addr] = true;\n        token_array.push(token_addr);\n        return true;\n    }\n    function is_token_exist(address token_addr) public view returns(bool) {\n        if(erc_token_list[token_addr]) {\n            return true;\n        } else {\n            return false;\n        }\n    }\n    function get_token_balance(address token_addr) public view returns(uint) {\n        return IERC20(token_addr).balanceOf(address(this));\n    }\n    function set_receiver(address new_receiver) public onlyOwner returns(bool) {\n        require(new_receiver != address(0), 'PolkaTreasury: New Receiver address can not be zero');\n        _receiver = new_receiver;\n        return true;\n    }\n    function fee_transfer(address token_addr, uint amount) public onlyOwner {\n        require(erc_token_list[token_addr], 'PolkaTreasury: The token is not registered in this wallet');\n        uint _balance = get_token_balance(token_addr);\n        require(amount <= _balance, 'PolkaTreasury: Balance is less than requirement');\n        IERC20(token_addr).approve(address(this), amount);\n        IERC20(token_addr).transfer(_receiver, amount);\n    }\n    function withdrawAll() public onlyOwner {\n        uint balance_temp;\n        address addr_temp;\n        for( uint i ; i < token_array.length ; i++ ) {\n            balance_temp = get_token_balance(token_array[i]);\n            addr_temp = token_array[i];\n            fee_transfer(addr_temp, balance_temp);\n        }\n    }\n}",
  "sourcePath": "/home/oncemore/BlockchainWork/Polka/deploy_1/Treasury/contracts/PolkaTreasury.sol",
  "compiler": {
    "name": "solc",
    "version": "0.8.6+commit.11564f7e.Emscripten.clang"
  },
  "schemaVersion": "3.3.4",
  "updatedAt": "2021-09-15T15:18:16.004Z",
  "devdoc": {
    "kind": "dev",
    "methods": {
      "owner()": {
        "details": "Returns the address of the current owner."
      },
      "renounceOwnership()": {
        "details": "Leaves the contract without owner. It will not be possible to call `onlyOwner` functions anymore. Can only be called by the current owner. NOTE: Renouncing ownership will leave the contract without an owner, thereby removing any functionality that is only available to the owner."
      },
      "transferOwnership(address)": {
        "details": "Transfers ownership of the contract to a new account (`newOwner`). Can only be called by the current owner."
      }
    },
    "version": 1
  },
  "userdoc": {
    "kind": "user",
    "methods": {},
    "version": 1
  }
}