{
  "contractName": "Registry",
  "abi": [
    {
      "anonymous": false,
      "inputs": [
        {
          "indexed": true,
          "internalType": "address",
          "name": "previousOwner",
          "type": "address"
        },
        {
          "indexed": true,
          "internalType": "address",
          "name": "newOwner",
          "type": "address"
        }
      ],
      "name": "OwnershipTransferred",
      "type": "event"
    },
    {
      "stateMutability": "payable",
      "type": "fallback"
    },
    {
      "inputs": [],
      "name": "logic_contract",
      "outputs": [
        {
          "internalType": "address",
          "name": "",
          "type": "address"
        }
      ],
      "stateMutability": "view",
      "type": "function"
    },
    {
      "inputs": [],
      "name": "owner",
      "outputs": [
        {
          "internalType": "address",
          "name": "",
          "type": "address"
        }
      ],
      "stateMutability": "view",
      "type": "function"
    },
    {
      "inputs": [],
      "name": "renounceOwnership",
      "outputs": [],
      "stateMutability": "nonpayable",
      "type": "function"
    },
    {
      "inputs": [
        {
          "internalType": "address",
          "name": "newOwner",
          "type": "address"
        }
      ],
      "name": "transferOwnership",
      "outputs": [],
      "stateMutability": "nonpayable",
      "type": "function"
    },
    {
      "inputs": [],
      "name": "val",
      "outputs": [
        {
          "internalType": "uint256",
          "name": "",
          "type": "uint256"
        }
      ],
      "stateMutability": "view",
      "type": "function"
    },
    {
      "inputs": [
        {
          "internalType": "address",
          "name": "_c",
          "type": "address"
        }
      ],
      "name": "setLogicContract",
      "outputs": [
        {
          "internalType": "bool",
          "name": "success",
          "type": "bool"
        }
      ],
      "stateMutability": "nonpayable",
      "type": "function"
    }
  ],
  "bytecode": "0x608060405234801561001057600080fd5b5061002d61002261003260201b60201c565b61003a60201b60201c565b610100565b600033905090565b6000600160009054906101000a900473ffffffffffffffffffffffffffffffffffffffff16905081600160006101000a81548173ffffffffffffffffffffffffffffffffffffffff021916908373ffffffffffffffffffffffffffffffffffffffff1602179055508173ffffffffffffffffffffffffffffffffffffffff168173ffffffffffffffffffffffffffffffffffffffff167f8be0079c531659141344cd1fd0a4f28419497f9722a3daafe3b4186f6b6457e060405160405180910390a35050565b61078f8061010f6000396000f3fe6080604052600436106100595760003560e01c80633c6bb436146100bc5780634de94320146100e75780635aa4470f14610112578063715018a61461014f5780638da5cb5b14610166578063f2fde38b146101915761005a565b5b6000600260009054906101000a900473ffffffffffffffffffffffffffffffffffffffff16905060405136600082376000803683855af43d806000843e81600081146100ad57600181146100b1576100b5565b8184fd5b8184f35b5050505050005b3480156100c857600080fd5b506100d16101ba565b6040516100de9190610651565b60405180910390f35b3480156100f357600080fd5b506100fc6101c0565b60405161010991906105db565b60405180910390f35b34801561011e57600080fd5b506101396004803603810190610134919061053b565b6101e6565b60405161014691906105f6565b60405180910390f35b34801561015b57600080fd5b506101646102ae565b005b34801561017257600080fd5b5061017b610336565b60405161018891906105db565b60405180910390f35b34801561019d57600080fd5b506101b860048036038101906101b3919061053b565b610360565b005b60005481565b600260009054906101000a900473ffffffffffffffffffffffffffffffffffffffff1681565b60006101f0610458565b73ffffffffffffffffffffffffffffffffffffffff1661020e610336565b73ffffffffffffffffffffffffffffffffffffffff1614610264576040517f08c379a000000000000000000000000000000000000000000000000000000000815260040161025b90610631565b60405180910390fd5b81600260006101000a81548173ffffffffffffffffffffffffffffffffffffffff021916908373ffffffffffffffffffffffffffffffffffffffff16021790555060019050919050565b6102b6610458565b73ffffffffffffffffffffffffffffffffffffffff166102d4610336565b73ffffffffffffffffffffffffffffffffffffffff161461032a576040517f08c379a000000000000000000000000000000000000000000000000000000000815260040161032190610631565b60405180910390fd5b6103346000610460565b565b6000600160009054906101000a900473ffffffffffffffffffffffffffffffffffffffff16905090565b610368610458565b73ffffffffffffffffffffffffffffffffffffffff16610386610336565b73ffffffffffffffffffffffffffffffffffffffff16146103dc576040517f08c379a00000000000000000000000000000000000000000000000000000000081526004016103d390610631565b60405180910390fd5b600073ffffffffffffffffffffffffffffffffffffffff168173ffffffffffffffffffffffffffffffffffffffff16141561044c576040517f08c379a000000000000000000000000000000000000000000000000000000000815260040161044390610611565b60405180910390fd5b61045581610460565b50565b600033905090565b6000600160009054906101000a900473ffffffffffffffffffffffffffffffffffffffff16905081600160006101000a81548173ffffffffffffffffffffffffffffffffffffffff021916908373ffffffffffffffffffffffffffffffffffffffff1602179055508173ffffffffffffffffffffffffffffffffffffffff168173ffffffffffffffffffffffffffffffffffffffff167f8be0079c531659141344cd1fd0a4f28419497f9722a3daafe3b4186f6b6457e060405160405180910390a35050565b60008135905061053581610742565b92915050565b600060208284031215610551576105506106c5565b5b600061055f84828501610526565b91505092915050565b6105718161067d565b82525050565b6105808161068f565b82525050565b600061059360268361066c565b915061059e826106ca565b604082019050919050565b60006105b660208361066c565b91506105c182610719565b602082019050919050565b6105d5816106bb565b82525050565b60006020820190506105f06000830184610568565b92915050565b600060208201905061060b6000830184610577565b92915050565b6000602082019050818103600083015261062a81610586565b9050919050565b6000602082019050818103600083015261064a816105a9565b9050919050565b600060208201905061066660008301846105cc565b92915050565b600082825260208201905092915050565b60006106888261069b565b9050919050565b60008115159050919050565b600073ffffffffffffffffffffffffffffffffffffffff82169050919050565b6000819050919050565b600080fd5b7f4f776e61626c653a206e6577206f776e657220697320746865207a65726f206160008201527f6464726573730000000000000000000000000000000000000000000000000000602082015250565b7f4f776e61626c653a2063616c6c6572206973206e6f7420746865206f776e6572600082015250565b61074b8161067d565b811461075657600080fd5b5056fea26469706673582212203476b2f10215f3beccc1267886df02fa506188efaff67fed38b2c9acccb624c064736f6c63430008060033",
  "immutableReferences": {},
  "source": "pragma solidity 0.8.6;\n\nimport '@openzeppelin/contracts/access/Ownable.sol';\nimport './Storage.sol';\n\ncontract Registry is Storage, Ownable {\n\n    address public logic_contract;\n\n    function setLogicContract(address _c) public onlyOwner returns (bool success){\n        logic_contract = _c;\n        return true;\n    }\n\n    fallback() external payable{\n        address target = logic_contract;\n        assembly {\n            let ptr := mload(0x40)\n            calldatacopy(ptr, 0, calldatasize())\n            let result := delegatecall(gas(), target, ptr, calldatasize(), 0, 0)\n            let size := returndatasize()\n            returndatacopy(ptr, 0, size)\n            switch result\n            case 0 { revert(ptr, size) }\n            case 1 { return(ptr, size) }\n        }\n    }\n}",
  "sourcePath": "/home/oncemore/BlockchainWork/proxy/contracts/Registry.sol",
  "compiler": {
    "name": "solc",
    "version": "0.8.6+commit.11564f7e.Emscripten.clang"
  },
  "schemaVersion": "3.3.4",
  "updatedAt": "2021-08-26T08:52:00.249Z",
  "devdoc": {
    "kind": "dev",
    "methods": {
      "owner()": {
        "details": "Returns the address of the current owner."
      },
      "renounceOwnership()": {
        "details": "Leaves the contract without owner. It will not be possible to call `onlyOwner` functions anymore. Can only be called by the current owner. NOTE: Renouncing ownership will leave the contract without an owner, thereby removing any functionality that is only available to the owner."
      },
      "transferOwnership(address)": {
        "details": "Transfers ownership of the contract to a new account (`newOwner`). Can only be called by the current owner."
      }
    },
    "version": 1
  },
  "userdoc": {
    "kind": "user",
    "methods": {},
    "version": 1
  }
}