{
  "contractName": "UniswapV2Router02",
  "abi": [
    {
      "inputs": [
        {
          "internalType": "address",
          "name": "_factory",
          "type": "address"
        },
        {
          "internalType": "address",
          "name": "_WETH",
          "type": "address"
        }
      ],
      "stateMutability": "nonpayable",
      "type": "constructor"
    },
    {
      "inputs": [],
      "name": "WETH",
      "outputs": [
        {
          "internalType": "address",
          "name": "",
          "type": "address"
        }
      ],
      "stateMutability": "view",
      "type": "function",
      "constant": true
    },
    {
      "inputs": [],
      "name": "devWallet",
      "outputs": [
        {
          "internalType": "address",
          "name": "",
          "type": "address"
        }
      ],
      "stateMutability": "view",
      "type": "function",
      "constant": true
    },
    {
      "inputs": [],
      "name": "factory",
      "outputs": [
        {
          "internalType": "address",
          "name": "",
          "type": "address"
        }
      ],
      "stateMutability": "view",
      "type": "function",
      "constant": true
    },
    {
      "inputs": [],
      "name": "feeWallet",
      "outputs": [
        {
          "internalType": "address",
          "name": "",
          "type": "address"
        }
      ],
      "stateMutability": "view",
      "type": "function",
      "constant": true
    },
    {
      "inputs": [],
      "name": "owner",
      "outputs": [
        {
          "internalType": "address",
          "name": "",
          "type": "address"
        }
      ],
      "stateMutability": "view",
      "type": "function",
      "constant": true
    },
    {
      "stateMutability": "payable",
      "type": "receive",
      "payable": true
    },
    {
      "inputs": [
        {
          "internalType": "address",
          "name": "_new_owner",
          "type": "address"
        }
      ],
      "name": "transferOwnership",
      "outputs": [],
      "stateMutability": "nonpayable",
      "type": "function"
    },
    {
      "inputs": [
        {
          "internalType": "address",
          "name": "_fee_addr",
          "type": "address"
        }
      ],
      "name": "setFeeWallet",
      "outputs": [],
      "stateMutability": "nonpayable",
      "type": "function"
    },
    {
      "inputs": [
        {
          "internalType": "address",
          "name": "_dev_addr",
          "type": "address"
        }
      ],
      "name": "setDevWallet",
      "outputs": [],
      "stateMutability": "nonpayable",
      "type": "function"
    },
    {
      "inputs": [
        {
          "internalType": "address",
          "name": "tokenA",
          "type": "address"
        },
        {
          "internalType": "address",
          "name": "tokenB",
          "type": "address"
        },
        {
          "internalType": "uint256",
          "name": "amountADesired",
          "type": "uint256"
        },
        {
          "internalType": "uint256",
          "name": "amountBDesired",
          "type": "uint256"
        },
        {
          "internalType": "uint256",
          "name": "amountAMin",
          "type": "uint256"
        },
        {
          "internalType": "uint256",
          "name": "amountBMin",
          "type": "uint256"
        },
        {
          "internalType": "address",
          "name": "to",
          "type": "address"
        },
        {
          "internalType": "uint256",
          "name": "deadline",
          "type": "uint256"
        }
      ],
      "name": "addLiquidity",
      "outputs": [
        {
          "internalType": "uint256",
          "name": "amountA",
          "type": "uint256"
        },
        {
          "internalType": "uint256",
          "name": "amountB",
          "type": "uint256"
        },
        {
          "internalType": "uint256",
          "name": "liquidity",
          "type": "uint256"
        }
      ],
      "stateMutability": "nonpayable",
      "type": "function"
    },
    {
      "inputs": [
        {
          "internalType": "address",
          "name": "token",
          "type": "address"
        },
        {
          "internalType": "uint256",
          "name": "amountTokenDesired",
          "type": "uint256"
        },
        {
          "internalType": "uint256",
          "name": "amountTokenMin",
          "type": "uint256"
        },
        {
          "internalType": "uint256",
          "name": "amountETHMin",
          "type": "uint256"
        },
        {
          "internalType": "address",
          "name": "to",
          "type": "address"
        },
        {
          "internalType": "uint256",
          "name": "deadline",
          "type": "uint256"
        }
      ],
      "name": "addLiquidityETH",
      "outputs": [
        {
          "internalType": "uint256",
          "name": "amountToken",
          "type": "uint256"
        },
        {
          "internalType": "uint256",
          "name": "amountETH",
          "type": "uint256"
        },
        {
          "internalType": "uint256",
          "name": "liquidity",
          "type": "uint256"
        }
      ],
      "stateMutability": "payable",
      "type": "function",
      "payable": true
    },
    {
      "inputs": [
        {
          "internalType": "address",
          "name": "tokenA",
          "type": "address"
        },
        {
          "internalType": "address",
          "name": "tokenB",
          "type": "address"
        },
        {
          "internalType": "uint256",
          "name": "liquidity",
          "type": "uint256"
        },
        {
          "internalType": "uint256",
          "name": "amountAMin",
          "type": "uint256"
        },
        {
          "internalType": "uint256",
          "name": "amountBMin",
          "type": "uint256"
        },
        {
          "internalType": "address",
          "name": "to",
          "type": "address"
        },
        {
          "internalType": "uint256",
          "name": "deadline",
          "type": "uint256"
        }
      ],
      "name": "removeLiquidity",
      "outputs": [
        {
          "internalType": "uint256",
          "name": "amountA",
          "type": "uint256"
        },
        {
          "internalType": "uint256",
          "name": "amountB",
          "type": "uint256"
        }
      ],
      "stateMutability": "nonpayable",
      "type": "function"
    },
    {
      "inputs": [
        {
          "internalType": "address",
          "name": "token",
          "type": "address"
        },
        {
          "internalType": "uint256",
          "name": "liquidity",
          "type": "uint256"
        },
        {
          "internalType": "uint256",
          "name": "amountTokenMin",
          "type": "uint256"
        },
        {
          "internalType": "uint256",
          "name": "amountETHMin",
          "type": "uint256"
        },
        {
          "internalType": "address",
          "name": "to",
          "type": "address"
        },
        {
          "internalType": "uint256",
          "name": "deadline",
          "type": "uint256"
        }
      ],
      "name": "removeLiquidityETH",
      "outputs": [
        {
          "internalType": "uint256",
          "name": "amountToken",
          "type": "uint256"
        },
        {
          "internalType": "uint256",
          "name": "amountETH",
          "type": "uint256"
        }
      ],
      "stateMutability": "nonpayable",
      "type": "function"
    },
    {
      "inputs": [
        {
          "internalType": "address",
          "name": "tokenA",
          "type": "address"
        },
        {
          "internalType": "address",
          "name": "tokenB",
          "type": "address"
        },
        {
          "internalType": "uint256",
          "name": "liquidity",
          "type": "uint256"
        },
        {
          "internalType": "uint256",
          "name": "amountAMin",
          "type": "uint256"
        },
        {
          "internalType": "uint256",
          "name": "amountBMin",
          "type": "uint256"
        },
        {
          "internalType": "address",
          "name": "to",
          "type": "address"
        },
        {
          "internalType": "uint256",
          "name": "deadline",
          "type": "uint256"
        },
        {
          "internalType": "bool",
          "name": "approveMax",
          "type": "bool"
        },
        {
          "internalType": "uint8",
          "name": "v",
          "type": "uint8"
        },
        {
          "internalType": "bytes32",
          "name": "r",
          "type": "bytes32"
        },
        {
          "internalType": "bytes32",
          "name": "s",
          "type": "bytes32"
        }
      ],
      "name": "removeLiquidityWithPermit",
      "outputs": [
        {
          "internalType": "uint256",
          "name": "amountA",
          "type": "uint256"
        },
        {
          "internalType": "uint256",
          "name": "amountB",
          "type": "uint256"
        }
      ],
      "stateMutability": "nonpayable",
      "type": "function"
    },
    {
      "inputs": [
        {
          "internalType": "address",
          "name": "token",
          "type": "address"
        },
        {
          "internalType": "uint256",
          "name": "liquidity",
          "type": "uint256"
        },
        {
          "internalType": "uint256",
          "name": "amountTokenMin",
          "type": "uint256"
        },
        {
          "internalType": "uint256",
          "name": "amountETHMin",
          "type": "uint256"
        },
        {
          "internalType": "address",
          "name": "to",
          "type": "address"
        },
        {
          "internalType": "uint256",
          "name": "deadline",
          "type": "uint256"
        },
        {
          "internalType": "bool",
          "name": "approveMax",
          "type": "bool"
        },
        {
          "internalType": "uint8",
          "name": "v",
          "type": "uint8"
        },
        {
          "internalType": "bytes32",
          "name": "r",
          "type": "bytes32"
        },
        {
          "internalType": "bytes32",
          "name": "s",
          "type": "bytes32"
        }
      ],
      "name": "removeLiquidityETHWithPermit",
      "outputs": [
        {
          "internalType": "uint256",
          "name": "amountToken",
          "type": "uint256"
        },
        {
          "internalType": "uint256",
          "name": "amountETH",
          "type": "uint256"
        }
      ],
      "stateMutability": "nonpayable",
      "type": "function"
    },
    {
      "inputs": [
        {
          "internalType": "address",
          "name": "token",
          "type": "address"
        },
        {
          "internalType": "uint256",
          "name": "liquidity",
          "type": "uint256"
        },
        {
          "internalType": "uint256",
          "name": "amountTokenMin",
          "type": "uint256"
        },
        {
          "internalType": "uint256",
          "name": "amountETHMin",
          "type": "uint256"
        },
        {
          "internalType": "address",
          "name": "to",
          "type": "address"
        },
        {
          "internalType": "uint256",
          "name": "deadline",
          "type": "uint256"
        }
      ],
      "name": "removeLiquidityETHSupportingFeeOnTransferTokens",
      "outputs": [
        {
          "internalType": "uint256",
          "name": "amountETH",
          "type": "uint256"
        }
      ],
      "stateMutability": "nonpayable",
      "type": "function"
    },
    {
      "inputs": [
        {
          "internalType": "address",
          "name": "token",
          "type": "address"
        },
        {
          "internalType": "uint256",
          "name": "liquidity",
          "type": "uint256"
        },
        {
          "internalType": "uint256",
          "name": "amountTokenMin",
          "type": "uint256"
        },
        {
          "internalType": "uint256",
          "name": "amountETHMin",
          "type": "uint256"
        },
        {
          "internalType": "address",
          "name": "to",
          "type": "address"
        },
        {
          "internalType": "uint256",
          "name": "deadline",
          "type": "uint256"
        },
        {
          "internalType": "bool",
          "name": "approveMax",
          "type": "bool"
        },
        {
          "internalType": "uint8",
          "name": "v",
          "type": "uint8"
        },
        {
          "internalType": "bytes32",
          "name": "r",
          "type": "bytes32"
        },
        {
          "internalType": "bytes32",
          "name": "s",
          "type": "bytes32"
        }
      ],
      "name": "removeLiquidityETHWithPermitSupportingFeeOnTransferTokens",
      "outputs": [
        {
          "internalType": "uint256",
          "name": "amountETH",
          "type": "uint256"
        }
      ],
      "stateMutability": "nonpayable",
      "type": "function"
    },
    {
      "inputs": [
        {
          "internalType": "uint256",
          "name": "amountIn",
          "type": "uint256"
        },
        {
          "internalType": "uint256",
          "name": "amountOutMin",
          "type": "uint256"
        },
        {
          "internalType": "address[]",
          "name": "path",
          "type": "address[]"
        },
        {
          "internalType": "address",
          "name": "to",
          "type": "address"
        },
        {
          "internalType": "uint256",
          "name": "deadline",
          "type": "uint256"
        }
      ],
      "name": "swapExactTokensForTokens",
      "outputs": [
        {
          "internalType": "uint256[]",
          "name": "amounts",
          "type": "uint256[]"
        }
      ],
      "stateMutability": "nonpayable",
      "type": "function"
    },
    {
      "inputs": [
        {
          "internalType": "uint256",
          "name": "amountOut",
          "type": "uint256"
        },
        {
          "internalType": "uint256",
          "name": "amountInMax",
          "type": "uint256"
        },
        {
          "internalType": "address[]",
          "name": "path",
          "type": "address[]"
        },
        {
          "internalType": "address",
          "name": "to",
          "type": "address"
        },
        {
          "internalType": "uint256",
          "name": "deadline",
          "type": "uint256"
        }
      ],
      "name": "swapTokensForExactTokens",
      "outputs": [
        {
          "internalType": "uint256[]",
          "name": "amounts",
          "type": "uint256[]"
        }
      ],
      "stateMutability": "nonpayable",
      "type": "function"
    },
    {
      "inputs": [
        {
          "internalType": "uint256",
          "name": "amountOutMin",
          "type": "uint256"
        },
        {
          "internalType": "address[]",
          "name": "path",
          "type": "address[]"
        },
        {
          "internalType": "address",
          "name": "to",
          "type": "address"
        },
        {
          "internalType": "uint256",
          "name": "deadline",
          "type": "uint256"
        }
      ],
      "name": "swapExactETHForTokens",
      "outputs": [
        {
          "internalType": "uint256[]",
          "name": "amounts",
          "type": "uint256[]"
        }
      ],
      "stateMutability": "payable",
      "type": "function",
      "payable": true
    },
    {
      "inputs": [
        {
          "internalType": "uint256",
          "name": "amountOut",
          "type": "uint256"
        },
        {
          "internalType": "uint256",
          "name": "amountInMax",
          "type": "uint256"
        },
        {
          "internalType": "address[]",
          "name": "path",
          "type": "address[]"
        },
        {
          "internalType": "address",
          "name": "to",
          "type": "address"
        },
        {
          "internalType": "uint256",
          "name": "deadline",
          "type": "uint256"
        }
      ],
      "name": "swapTokensForExactETH",
      "outputs": [
        {
          "internalType": "uint256[]",
          "name": "amounts",
          "type": "uint256[]"
        }
      ],
      "stateMutability": "nonpayable",
      "type": "function"
    },
    {
      "inputs": [
        {
          "internalType": "uint256",
          "name": "amountIn",
          "type": "uint256"
        },
        {
          "internalType": "uint256",
          "name": "amountOutMin",
          "type": "uint256"
        },
        {
          "internalType": "address[]",
          "name": "path",
          "type": "address[]"
        },
        {
          "internalType": "address",
          "name": "to",
          "type": "address"
        },
        {
          "internalType": "uint256",
          "name": "deadline",
          "type": "uint256"
        }
      ],
      "name": "swapExactTokensForETH",
      "outputs": [
        {
          "internalType": "uint256[]",
          "name": "amounts",
          "type": "uint256[]"
        }
      ],
      "stateMutability": "nonpayable",
      "type": "function"
    },
    {
      "inputs": [
        {
          "internalType": "uint256",
          "name": "amountOut",
          "type": "uint256"
        },
        {
          "internalType": "address[]",
          "name": "path",
          "type": "address[]"
        },
        {
          "internalType": "address",
          "name": "to",
          "type": "address"
        },
        {
          "internalType": "uint256",
          "name": "deadline",
          "type": "uint256"
        }
      ],
      "name": "swapETHForExactTokens",
      "outputs": [
        {
          "internalType": "uint256[]",
          "name": "amounts",
          "type": "uint256[]"
        }
      ],
      "stateMutability": "payable",
      "type": "function",
      "payable": true
    },
    {
      "inputs": [
        {
          "internalType": "uint256",
          "name": "amountIn",
          "type": "uint256"
        },
        {
          "internalType": "uint256",
          "name": "amountOutMin",
          "type": "uint256"
        },
        {
          "internalType": "address[]",
          "name": "path",
          "type": "address[]"
        },
        {
          "internalType": "address",
          "name": "to",
          "type": "address"
        },
        {
          "internalType": "uint256",
          "name": "deadline",
          "type": "uint256"
        }
      ],
      "name": "swapExactTokensForTokensSupportingFeeOnTransferTokens",
      "outputs": [],
      "stateMutability": "nonpayable",
      "type": "function"
    },
    {
      "inputs": [
        {
          "internalType": "uint256",
          "name": "amountOutMin",
          "type": "uint256"
        },
        {
          "internalType": "address[]",
          "name": "path",
          "type": "address[]"
        },
        {
          "internalType": "address",
          "name": "to",
          "type": "address"
        },
        {
          "internalType": "uint256",
          "name": "deadline",
          "type": "uint256"
        }
      ],
      "name": "swapExactETHForTokensSupportingFeeOnTransferTokens",
      "outputs": [],
      "stateMutability": "payable",
      "type": "function",
      "payable": true
    },
    {
      "inputs": [
        {
          "internalType": "uint256",
          "name": "amountIn",
          "type": "uint256"
        },
        {
          "internalType": "uint256",
          "name": "amountOutMin",
          "type": "uint256"
        },
        {
          "internalType": "address[]",
          "name": "path",
          "type": "address[]"
        },
        {
          "internalType": "address",
          "name": "to",
          "type": "address"
        },
        {
          "internalType": "uint256",
          "name": "deadline",
          "type": "uint256"
        }
      ],
      "name": "swapExactTokensForETHSupportingFeeOnTransferTokens",
      "outputs": [],
      "stateMutability": "nonpayable",
      "type": "function"
    },
    {
      "inputs": [
        {
          "internalType": "uint256",
          "name": "amountA",
          "type": "uint256"
        },
        {
          "internalType": "uint256",
          "name": "reserveA",
          "type": "uint256"
        },
        {
          "internalType": "uint256",
          "name": "reserveB",
          "type": "uint256"
        }
      ],
      "name": "quote",
      "outputs": [
        {
          "internalType": "uint256",
          "name": "amountB",
          "type": "uint256"
        }
      ],
      "stateMutability": "pure",
      "type": "function",
      "constant": true
    },
    {
      "inputs": [
        {
          "internalType": "uint256",
          "name": "amountIn",
          "type": "uint256"
        },
        {
          "internalType": "uint256",
          "name": "reserveIn",
          "type": "uint256"
        },
        {
          "internalType": "uint256",
          "name": "reserveOut",
          "type": "uint256"
        }
      ],
      "name": "getAmountOut",
      "outputs": [
        {
          "internalType": "uint256",
          "name": "amountOut",
          "type": "uint256"
        }
      ],
      "stateMutability": "pure",
      "type": "function",
      "constant": true
    },
    {
      "inputs": [
        {
          "internalType": "uint256",
          "name": "amountOut",
          "type": "uint256"
        },
        {
          "internalType": "uint256",
          "name": "reserveIn",
          "type": "uint256"
        },
        {
          "internalType": "uint256",
          "name": "reserveOut",
          "type": "uint256"
        }
      ],
      "name": "getAmountIn",
      "outputs": [
        {
          "internalType": "uint256",
          "name": "amountIn",
          "type": "uint256"
        }
      ],
      "stateMutability": "pure",
      "type": "function",
      "constant": true
    },
    {
      "inputs": [
        {
          "internalType": "uint256",
          "name": "amountIn",
          "type": "uint256"
        },
        {
          "internalType": "address[]",
          "name": "path",
          "type": "address[]"
        }
      ],
      "name": "getAmountsOut",
      "outputs": [
        {
          "internalType": "uint256[]",
          "name": "amounts",
          "type": "uint256[]"
        }
      ],
      "stateMutability": "view",
      "type": "function",
      "constant": true
    },
    {
      "inputs": [
        {
          "internalType": "uint256",
          "name": "amountOut",
          "type": "uint256"
        },
        {
          "internalType": "address[]",
          "name": "path",
          "type": "address[]"
        }
      ],
      "name": "getAmountsIn",
      "outputs": [
        {
          "internalType": "uint256[]",
          "name": "amounts",
          "type": "uint256[]"
        }
      ],
      "stateMutability": "view",
      "type": "function",
      "constant": true
    }
  ],
  "bytecode": "0x60c060405234801561001057600080fd5b5060405162004bb838038062004bb88339818101604052604081101561003557600080fd5b5080516020909101516001600160601b0319606092831b8116608052911b1660a052600080546001600160a01b0319163317905560805160601c60a05160601c614a1c6200019c600039806101e15280610e3e5280610e795280610f70528061118e52806116a6528061180c5280611bd35280611ccd5280611d835280611e515280611f97528061201f52806122f0528061236b528061241a52806124e6528061257b52806125ef5280612aed5280612ddd5280612e335280612e675280612edb528061307b52806131be5280613246525080610ffe52806110d5528061125452806112fb5280611436528061150d528061173452806117ea528061195a5280611ee4528061205152806121b45280612621528061287a5280612a725280612a9b5280612acb5280612c385280612e11528061310e52806132785280613b095280613b4c5280613ea552806140245280614454528061450252806145825250614a1c6000f3fe6080604052600436106101d15760003560e01c80638ea5220f116100f7578063c45a015511610095578063f25f4b5611610064578063f25f4b5614610cdf578063f2fde38b14610cf4578063f305d71914610d27578063fb3bdb4114610d6d5761020a565b8063c45a015514610b22578063d06ca61f14610b37578063ded9382a14610bec578063e8e3370014610c5f5761020a565b8063ad615dec116100d1578063ad615dec146109b8578063af2979eb146109ee578063b6f9de9514610a41578063baa2abde14610ac55761020a565b80638ea5220f1461095b57806390d49b9d14610970578063ad5c4648146109a35761020a565b80634a25d94a1161016f5780637ff36ab51161013e5780637ff36ab5146107da57806385f8c2591461085e5780638803dbee146108945780638da5cb5b1461092a5761020a565b80634a25d94a146105a55780635b0d59841461063b5780635c11d795146106ae578063791ac947146107445761020a565b80631f00ca74116101ab5780631f00ca74146103a95780631f53ac021461045e5780632195995c1461049157806338ed17391461050f5761020a565b806302751cec1461020f578063054d50d41461027b57806318cbafe5146102c35761020a565b3661020a57336001600160a01b037f0000000000000000000000000000000000000000000000000000000000000000161461020857fe5b005b600080fd5b34801561021b57600080fd5b50610262600480360360c081101561023257600080fd5b506001600160a01b0381358116916020810135916040820135916060810135916080820135169060a00135610df1565b6040805192835260208301919091528051918290030190f35b34801561028757600080fd5b506102b16004803603606081101561029e57600080fd5b5080359060208101359060400135610f0b565b60408051918252519081900360200190f35b3480156102cf57600080fd5b50610359600480360360a08110156102e657600080fd5b813591602081013591810190606081016040820135600160201b81111561030c57600080fd5b82018360208201111561031e57600080fd5b803590602001918460208302840111600160201b8311171561033f57600080fd5b91935091506001600160a01b038135169060200135610f20565b60408051602080825283518183015283519192839290830191858101910280838360005b8381101561039557818101518382015260200161037d565b505050509050019250505060405180910390f35b3480156103b557600080fd5b50610359600480360360408110156103cc57600080fd5b81359190810190604081016020820135600160201b8111156103ed57600080fd5b8201836020820111156103ff57600080fd5b803590602001918460208302840111600160201b8311171561042057600080fd5b91908080602002602001604051908101604052809392919081815260200183836020028082843760009201919091525092955061124d945050505050565b34801561046a57600080fd5b506102086004803603602081101561048157600080fd5b50356001600160a01b0316611283565b34801561049d57600080fd5b5061026260048036036101608110156104b557600080fd5b506001600160a01b038135811691602081013582169160408201359160608101359160808201359160a08101359091169060c08101359060e081013515159060ff61010082013516906101208101359061014001356112f1565b34801561051b57600080fd5b50610359600480360360a081101561053257600080fd5b813591602081013591810190606081016040820135600160201b81111561055857600080fd5b82018360208201111561056a57600080fd5b803590602001918460208302840111600160201b8311171561058b57600080fd5b91935091506001600160a01b0381351690602001356113eb565b3480156105b157600080fd5b50610359600480360360a08110156105c857600080fd5b813591602081013591810190606081016040820135600160201b8111156105ee57600080fd5b82018360208201111561060057600080fd5b803590602001918460208302840111600160201b8311171561062157600080fd5b91935091506001600160a01b038135169060200135611656565b34801561064757600080fd5b506102b1600480360361014081101561065f57600080fd5b506001600160a01b0381358116916020810135916040820135916060810135916080820135169060a08101359060c081013515159060ff60e082013516906101008101359061012001356117e2565b3480156106ba57600080fd5b50610208600480360360a08110156106d157600080fd5b813591602081013591810190606081016040820135600160201b8111156106f757600080fd5b82018360208201111561070957600080fd5b803590602001918460208302840111600160201b8311171561072a57600080fd5b91935091506001600160a01b0381351690602001356118f0565b34801561075057600080fd5b50610208600480360360a081101561076757600080fd5b813591602081013591810190606081016040820135600160201b81111561078d57600080fd5b82018360208201111561079f57600080fd5b803590602001918460208302840111600160201b831117156107c057600080fd5b91935091506001600160a01b038135169060200135611b85565b610359600480360360808110156107f057600080fd5b81359190810190604081016020820135600160201b81111561081157600080fd5b82018360208201111561082357600080fd5b803590602001918460208302840111600160201b8311171561084457600080fd5b91935091506001600160a01b038135169060200135611e09565b34801561086a57600080fd5b506102b16004803603606081101561088157600080fd5b508035906020810135906040013561215c565b3480156108a057600080fd5b50610359600480360360a08110156108b757600080fd5b813591602081013591810190606081016040820135600160201b8111156108dd57600080fd5b8201836020820111156108ef57600080fd5b803590602001918460208302840111600160201b8311171561091057600080fd5b91935091506001600160a01b038135169060200135612169565b34801561093657600080fd5b5061093f612262565b604080516001600160a01b039092168252519081900360200190f35b34801561096757600080fd5b5061093f612271565b34801561097c57600080fd5b506102086004803603602081101561099357600080fd5b50356001600160a01b0316612280565b3480156109af57600080fd5b5061093f6122ee565b3480156109c457600080fd5b506102b1600480360360608110156109db57600080fd5b5080359060208101359060400135612312565b3480156109fa57600080fd5b506102b1600480360360c0811015610a1157600080fd5b506001600160a01b0381358116916020810135916040820135916060810135916080820135169060a0013561231f565b61020860048036036080811015610a5757600080fd5b81359190810190604081016020820135600160201b811115610a7857600080fd5b820183602082011115610a8a57600080fd5b803590602001918460208302840111600160201b83111715610aab57600080fd5b91935091506001600160a01b0381351690602001356124a0565b348015610ad157600080fd5b50610262600480360360e0811015610ae857600080fd5b506001600160a01b038135811691602081013582169160408201359160608101359160808201359160a08101359091169060c0013561282c565b348015610b2e57600080fd5b5061093f612a70565b348015610b4357600080fd5b5061035960048036036040811015610b5a57600080fd5b81359190810190604081016020820135600160201b811115610b7b57600080fd5b820183602082011115610b8d57600080fd5b803590602001918460208302840111600160201b83111715610bae57600080fd5b919080806020026020016040519081016040528093929190818152602001838360200280828437600092019190915250929550612a94945050505050565b348015610bf857600080fd5b506102626004803603610140811015610c1057600080fd5b506001600160a01b0381358116916020810135916040820135916060810135916080820135169060a08101359060c081013515159060ff60e08201351690610100810135906101200135612ac1565b348015610c6b57600080fd5b50610cc16004803603610100811015610c8357600080fd5b506001600160a01b038135811691602081013582169160408201359160608101359160808201359160a08101359160c0820135169060e00135612bd5565b60408051938452602084019290925282820152519081900360600190f35b348015610ceb57600080fd5b5061093f612d11565b348015610d0057600080fd5b5061020860048036036020811015610d1757600080fd5b50356001600160a01b0316612d20565b610cc1600480360360c0811015610d3d57600080fd5b506001600160a01b0381358116916020810135916040820135916060810135916080820135169060a00135612d8e565b61035960048036036080811015610d8357600080fd5b81359190810190604081016020820135600160201b811115610da457600080fd5b820183602082011115610db657600080fd5b803590602001918460208302840111600160201b83111715610dd757600080fd5b91935091506001600160a01b038135169060200135613033565b6000808242811015610e38576040805162461bcd60e51b815260206004820152601860248201526000805160206149c7833981519152604482015290519081900360640190fd5b610e67897f00000000000000000000000000000000000000000000000000000000000000008a8a8a308a61282c565b9093509150610e778986856133b5565b7f00000000000000000000000000000000000000000000000000000000000000006001600160a01b0316632e1a7d4d836040518263ffffffff1660e01b815260040180828152602001915050600060405180830381600087803b158015610edd57600080fd5b505af1158015610ef1573d6000803e3d6000fd5b50505050610eff8583613509565b50965096945050505050565b6000610f18848484613601565b949350505050565b60608142811015610f66576040805162461bcd60e51b815260206004820152601860248201526000805160206149c7833981519152604482015290519081900360640190fd5b6001600160a01b037f00000000000000000000000000000000000000000000000000000000000000001686866000198101818110610fa057fe5b905060200201356001600160a01b03166001600160a01b031614610ff9576040805162461bcd60e51b815260206004820152601d60248201526000805160206148fe833981519152604482015290519081900360640190fd5b6110577f0000000000000000000000000000000000000000000000000000000000000000898888808060200260200160405190810160405280939291908181526020018383602002808284376000920191909152506136f192505050565b9150868260018451038151811061106a57fe5b602002602001015110156110af5760405162461bcd60e51b815260040180806020018281038252602b815260200180614944602b913960400191505060405180910390fd5b61114d868660008181106110bf57fe5b905060200201356001600160a01b0316336111337f00000000000000000000000000000000000000000000000000000000000000008a8a600081811061110157fe5b905060200201356001600160a01b03168b8b600181811061111e57fe5b905060200201356001600160a01b031661383d565b8560008151811061114057fe5b60200260200101516138fd565b61118c82878780806020026020016040519081016040528093929190818152602001838360200280828437600092019190915250309250613a5a915050565b7f00000000000000000000000000000000000000000000000000000000000000006001600160a01b0316632e1a7d4d836001855103815181106111cb57fe5b60200260200101516040518263ffffffff1660e01b815260040180828152602001915050600060405180830381600087803b15801561120957600080fd5b505af115801561121d573d6000803e3d6000fd5b50505050611242848360018551038151811061123557fe5b6020026020010151613509565b509695505050505050565b606061127a7f00000000000000000000000000000000000000000000000000000000000000008484613ca0565b90505b92915050565b6000546001600160a01b031633146112cf576040805162461bcd60e51b815260206004820152600a60248201526927b7363c9027bbb732b960b11b604482015290519081900360640190fd5b600280546001600160a01b0319166001600160a01b0392909216919091179055565b60008060006113217f00000000000000000000000000000000000000000000000000000000000000008f8f61383d565b9050600087611330578c611334565b6000195b6040805163d505accf60e01b815233600482015230602482015260448101839052606481018c905260ff8a16608482015260a4810189905260c4810188905290519192506001600160a01b0384169163d505accf9160e48082019260009290919082900301818387803b1580156113aa57600080fd5b505af11580156113be573d6000803e3d6000fd5b505050506113d18f8f8f8f8f8f8f61282c565b809450819550505050509b509b9950505050505050505050565b60608142811015611431576040805162461bcd60e51b815260206004820152601860248201526000805160206149c7833981519152604482015290519081900360640190fd5b61148f7f0000000000000000000000000000000000000000000000000000000000000000898888808060200260200160405190810160405280939291908181526020018383602002808284376000920191909152506136f192505050565b915086826001845103815181106114a257fe5b602002602001015110156114e75760405162461bcd60e51b815260040180806020018281038252602b815260200180614944602b913960400191505060405180910390fd5b611579868660008181106114f757fe5b905060200201356001600160a01b0316336115397f00000000000000000000000000000000000000000000000000000000000000008a8a600081811061110157fe5b6115746103e86115686103e68960008151811061155257fe5b6020026020010151613dd890919063ffffffff16565b9063ffffffff613e3b16565b6138fd565b6115c88686600081811061158957fe5b905060200201356001600160a01b031633600160009054906101000a90046001600160a01b031661157461271061156860108960008151811061155257fe5b611617868660008181106115d857fe5b905060200201356001600160a01b031633600260009054906101000a90046001600160a01b031661157461271061156860048960008151811061155257fe5b61124282878780806020026020016040519081016040528093929190818152602001838360200280828437600092019190915250899250613a5a915050565b6060814281101561169c576040805162461bcd60e51b815260206004820152601860248201526000805160206149c7833981519152604482015290519081900360640190fd5b6001600160a01b037f000000000000000000000000000000000000000000000000000000000000000016868660001981018181106116d657fe5b905060200201356001600160a01b03166001600160a01b03161461172f576040805162461bcd60e51b815260206004820152601d60248201526000805160206148fe833981519152604482015290519081900360640190fd5b61178d7f000000000000000000000000000000000000000000000000000000000000000089888880806020026020016040519081016040528093929190818152602001838360200280828437600092019190915250613ca092505050565b9150868260008151811061179d57fe5b602002602001015111156110af5760405162461bcd60e51b81526004018080602001828103825260278152602001806148d76027913960400191505060405180910390fd5b6000806118307f00000000000000000000000000000000000000000000000000000000000000008d7f000000000000000000000000000000000000000000000000000000000000000061383d565b905060008661183f578b611843565b6000195b6040805163d505accf60e01b815233600482015230602482015260448101839052606481018b905260ff8916608482015260a4810188905260c4810187905290519192506001600160a01b0384169163d505accf9160e48082019260009290919082900301818387803b1580156118b957600080fd5b505af11580156118cd573d6000803e3d6000fd5b505050506118df8d8d8d8d8d8d61231f565b9d9c50505050505050505050505050565b8042811015611934576040805162461bcd60e51b815260206004820152601860248201526000805160206149c7833981519152604482015290519081900360640190fd5b6119a98585600081811061194457fe5b905060200201356001600160a01b0316336119a37f00000000000000000000000000000000000000000000000000000000000000008989600081811061198657fe5b905060200201356001600160a01b03168a8a600181811061111e57fe5b8a6138fd565b6000858560001981018181106119bb57fe5b905060200201356001600160a01b03166001600160a01b03166370a08231856040518263ffffffff1660e01b815260040180826001600160a01b03166001600160a01b0316815260200191505060206040518083038186803b158015611a2057600080fd5b505afa158015611a34573d6000803e3d6000fd5b505050506040513d6020811015611a4a57600080fd5b50516040805160208881028281018201909352888252929350611a8c929091899189918291850190849080828437600092019190915250889250613e4e915050565b86611b3e8288886000198101818110611aa157fe5b905060200201356001600160a01b03166001600160a01b03166370a08231886040518263ffffffff1660e01b815260040180826001600160a01b03166001600160a01b0316815260200191505060206040518083038186803b158015611b0657600080fd5b505afa158015611b1a573d6000803e3d6000fd5b505050506040513d6020811015611b3057600080fd5b50519063ffffffff61415916565b1015611b7b5760405162461bcd60e51b815260040180806020018281038252602b815260200180614944602b913960400191505060405180910390fd5b5050505050505050565b8042811015611bc9576040805162461bcd60e51b815260206004820152601860248201526000805160206149c7833981519152604482015290519081900360640190fd5b6001600160a01b037f00000000000000000000000000000000000000000000000000000000000000001685856000198101818110611c0357fe5b905060200201356001600160a01b03166001600160a01b031614611c5c576040805162461bcd60e51b815260206004820152601d60248201526000805160206148fe833981519152604482015290519081900360640190fd5b611c6c8585600081811061194457fe5b611caa858580806020026020016040519081016040528093929190818152602001838360200280828437600092019190915250309250613e4e915050565b604080516370a0823160e01b815230600482015290516000916001600160a01b037f000000000000000000000000000000000000000000000000000000000000000016916370a0823191602480820192602092909190829003018186803b158015611d1457600080fd5b505afa158015611d28573d6000803e3d6000fd5b505050506040513d6020811015611d3e57600080fd5b5051905086811015611d815760405162461bcd60e51b815260040180806020018281038252602b815260200180614944602b913960400191505060405180910390fd5b7f00000000000000000000000000000000000000000000000000000000000000006001600160a01b0316632e1a7d4d826040518263ffffffff1660e01b815260040180828152602001915050600060405180830381600087803b158015611de757600080fd5b505af1158015611dfb573d6000803e3d6000fd5b50505050611b7b8482613509565b60608142811015611e4f576040805162461bcd60e51b815260206004820152601860248201526000805160206149c7833981519152604482015290519081900360640190fd5b7f00000000000000000000000000000000000000000000000000000000000000006001600160a01b031686866000818110611e8657fe5b905060200201356001600160a01b03166001600160a01b031614611edf576040805162461bcd60e51b815260206004820152601d60248201526000805160206148fe833981519152604482015290519081900360640190fd5b611f3d7f0000000000000000000000000000000000000000000000000000000000000000348888808060200260200160405190810160405280939291908181526020018383602002808284376000920191909152506136f192505050565b91508682600184510381518110611f5057fe5b60200260200101511015611f955760405162461bcd60e51b815260040180806020018281038252602b815260200180614944602b913960400191505060405180910390fd5b7f00000000000000000000000000000000000000000000000000000000000000006001600160a01b031663d0e30db083600081518110611fd157fe5b60200260200101516040518263ffffffff1660e01b81526004016000604051808303818588803b15801561200457600080fd5b505af1158015612018573d6000803e3d6000fd5b50505050507f00000000000000000000000000000000000000000000000000000000000000006001600160a01b031663a9059cbb61207d7f00000000000000000000000000000000000000000000000000000000000000008989600081811061198657fe5b8460008151811061208a57fe5b60200260200101516040518363ffffffff1660e01b815260040180836001600160a01b03166001600160a01b0316815260200182815260200192505050602060405180830381600087803b1580156120e157600080fd5b505af11580156120f5573d6000803e3d6000fd5b505050506040513d602081101561210b57600080fd5b505161211357fe5b61215282878780806020026020016040519081016040528093929190818152602001838360200280828437600092019190915250899250613a5a915050565b5095945050505050565b6000610f188484846141a9565b606081428110156121af576040805162461bcd60e51b815260206004820152601860248201526000805160206149c7833981519152604482015290519081900360640190fd5b61220d7f000000000000000000000000000000000000000000000000000000000000000089888880806020026020016040519081016040528093929190818152602001838360200280828437600092019190915250613ca092505050565b9150868260008151811061221d57fe5b602002602001015111156114e75760405162461bcd60e51b81526004018080602001828103825260278152602001806148d76027913960400191505060405180910390fd5b6000546001600160a01b031681565b6002546001600160a01b031681565b6000546001600160a01b031633146122cc576040805162461bcd60e51b815260206004820152600a60248201526927b7363c9027bbb732b960b11b604482015290519081900360640190fd5b600180546001600160a01b0319166001600160a01b0392909216919091179055565b7f000000000000000000000000000000000000000000000000000000000000000081565b6000610f18848484614299565b60008142811015612365576040805162461bcd60e51b815260206004820152601860248201526000805160206149c7833981519152604482015290519081900360640190fd5b612394887f0000000000000000000000000000000000000000000000000000000000000000898989308961282c565b604080516370a0823160e01b8152306004820152905191945061241892508a9187916001600160a01b038416916370a0823191602480820192602092909190829003018186803b1580156123e757600080fd5b505afa1580156123fb573d6000803e3d6000fd5b505050506040513d602081101561241157600080fd5b50516133b5565b7f00000000000000000000000000000000000000000000000000000000000000006001600160a01b0316632e1a7d4d836040518263ffffffff1660e01b815260040180828152602001915050600060405180830381600087803b15801561247e57600080fd5b505af1158015612492573d6000803e3d6000fd5b505050506112428483613509565b80428110156124e4576040805162461bcd60e51b815260206004820152601860248201526000805160206149c7833981519152604482015290519081900360640190fd5b7f00000000000000000000000000000000000000000000000000000000000000006001600160a01b03168585600081811061251b57fe5b905060200201356001600160a01b03166001600160a01b031614612574576040805162461bcd60e51b815260206004820152601d60248201526000805160206148fe833981519152604482015290519081900360640190fd5b60003490507f00000000000000000000000000000000000000000000000000000000000000006001600160a01b031663d0e30db0826040518263ffffffff1660e01b81526004016000604051808303818588803b1580156125d457600080fd5b505af11580156125e8573d6000803e3d6000fd5b50505050507f00000000000000000000000000000000000000000000000000000000000000006001600160a01b031663a9059cbb61264d7f00000000000000000000000000000000000000000000000000000000000000008989600081811061198657fe5b836040518363ffffffff1660e01b815260040180836001600160a01b03166001600160a01b0316815260200182815260200192505050602060405180830381600087803b15801561269d57600080fd5b505af11580156126b1573d6000803e3d6000fd5b505050506040513d60208110156126c757600080fd5b50516126cf57fe5b6000868660001981018181106126e157fe5b905060200201356001600160a01b03166001600160a01b03166370a08231866040518263ffffffff1660e01b815260040180826001600160a01b03166001600160a01b0316815260200191505060206040518083038186803b15801561274657600080fd5b505afa15801561275a573d6000803e3d6000fd5b505050506040513d602081101561277057600080fd5b505160408051602089810282810182019093528982529293506127b29290918a918a918291850190849080828437600092019190915250899250613e4e915050565b87611b3e82898960001981018181106127c757fe5b905060200201356001600160a01b03166001600160a01b03166370a08231896040518263ffffffff1660e01b815260040180826001600160a01b03166001600160a01b0316815260200191505060206040518083038186803b158015611b0657600080fd5b6000808242811015612873576040805162461bcd60e51b815260206004820152601860248201526000805160206149c7833981519152604482015290519081900360640190fd5b60006128a07f00000000000000000000000000000000000000000000000000000000000000008c8c61383d565b604080516323b872dd60e01b81523360048201526001600160a01b03831660248201819052604482018d9052915192935090916323b872dd916064808201926020929091908290030181600087803b1580156128fb57600080fd5b505af115801561290f573d6000803e3d6000fd5b505050506040513d602081101561292557600080fd5b50506040805163226bf2d160e21b81526001600160a01b03888116600483015282516000938493928616926389afcb44926024808301939282900301818787803b15801561297257600080fd5b505af1158015612986573d6000803e3d6000fd5b505050506040513d604081101561299c57600080fd5b508051602090910151909250905060006129b68e8e614345565b509050806001600160a01b03168e6001600160a01b0316146129d95781836129dc565b82825b90975095508a871015612a205760405162461bcd60e51b815260040180806020018281038252602681526020018061491e6026913960400191505060405180910390fd5b89861015612a5f5760405162461bcd60e51b81526004018080602001828103825260268152602001806148646026913960400191505060405180910390fd5b505050505097509795505050505050565b7f000000000000000000000000000000000000000000000000000000000000000081565b606061127a7f000000000000000000000000000000000000000000000000000000000000000084846136f1565b6000806000612b117f00000000000000000000000000000000000000000000000000000000000000008e7f000000000000000000000000000000000000000000000000000000000000000061383d565b9050600087612b20578c612b24565b6000195b6040805163d505accf60e01b815233600482015230602482015260448101839052606481018c905260ff8a16608482015260a4810189905260c4810188905290519192506001600160a01b0384169163d505accf9160e48082019260009290919082900301818387803b158015612b9a57600080fd5b505af1158015612bae573d6000803e3d6000fd5b50505050612bc08e8e8e8e8e8e610df1565b909f909e509c50505050505050505050505050565b60008060008342811015612c1e576040805162461bcd60e51b815260206004820152601860248201526000805160206149c7833981519152604482015290519081900360640190fd5b612c2c8c8c8c8c8c8c614423565b90945092506000612c5e7f00000000000000000000000000000000000000000000000000000000000000008e8e61383d565b9050612c6c8d3383886138fd565b612c788c3383876138fd565b806001600160a01b0316636a627842886040518263ffffffff1660e01b815260040180826001600160a01b03166001600160a01b03168152602001915050602060405180830381600087803b158015612cd057600080fd5b505af1158015612ce4573d6000803e3d6000fd5b505050506040513d6020811015612cfa57600080fd5b5051949d939c50939a509198505050505050505050565b6001546001600160a01b031681565b6000546001600160a01b03163314612d6c576040805162461bcd60e51b815260206004820152600a60248201526927b7363c9027bbb732b960b11b604482015290519081900360640190fd5b600080546001600160a01b0319166001600160a01b0392909216919091179055565b60008060008342811015612dd7576040805162461bcd60e51b815260206004820152601860248201526000805160206149c7833981519152604482015290519081900360640190fd5b612e058a7f00000000000000000000000000000000000000000000000000000000000000008b348c8c614423565b90945092506000612e577f00000000000000000000000000000000000000000000000000000000000000008c7f000000000000000000000000000000000000000000000000000000000000000061383d565b9050612e658b3383886138fd565b7f00000000000000000000000000000000000000000000000000000000000000006001600160a01b031663d0e30db0856040518263ffffffff1660e01b81526004016000604051808303818588803b158015612ec057600080fd5b505af1158015612ed4573d6000803e3d6000fd5b50505050507f00000000000000000000000000000000000000000000000000000000000000006001600160a01b031663a9059cbb82866040518363ffffffff1660e01b815260040180836001600160a01b03166001600160a01b0316815260200182815260200192505050602060405180830381600087803b158015612f5957600080fd5b505af1158015612f6d573d6000803e3d6000fd5b505050506040513d6020811015612f8357600080fd5b5051612f8b57fe5b806001600160a01b0316636a627842886040518263ffffffff1660e01b815260040180826001600160a01b03166001600160a01b03168152602001915050602060405180830381600087803b158015612fe357600080fd5b505af1158015612ff7573d6000803e3d6000fd5b505050506040513d602081101561300d57600080fd5b50519250348410156130255761302533853403613509565b505096509650969350505050565b60608142811015613079576040805162461bcd60e51b815260206004820152601860248201526000805160206149c7833981519152604482015290519081900360640190fd5b7f00000000000000000000000000000000000000000000000000000000000000006001600160a01b0316868660008181106130b057fe5b905060200201356001600160a01b03166001600160a01b031614613109576040805162461bcd60e51b815260206004820152601d60248201526000805160206148fe833981519152604482015290519081900360640190fd5b6131677f000000000000000000000000000000000000000000000000000000000000000088888880806020026020016040519081016040528093929190818152602001838360200280828437600092019190915250613ca092505050565b9150348260008151811061317757fe5b602002602001015111156131bc5760405162461bcd60e51b81526004018080602001828103825260278152602001806148d76027913960400191505060405180910390fd5b7f00000000000000000000000000000000000000000000000000000000000000006001600160a01b031663d0e30db0836000815181106131f857fe5b60200260200101516040518263ffffffff1660e01b81526004016000604051808303818588803b15801561322b57600080fd5b505af115801561323f573d6000803e3d6000fd5b50505050507f00000000000000000000000000000000000000000000000000000000000000006001600160a01b031663a9059cbb6132a47f00000000000000000000000000000000000000000000000000000000000000008989600081811061198657fe5b846000815181106132b157fe5b60200260200101516040518363ffffffff1660e01b815260040180836001600160a01b03166001600160a01b0316815260200182815260200192505050602060405180830381600087803b15801561330857600080fd5b505af115801561331c573d6000803e3d6000fd5b505050506040513d602081101561333257600080fd5b505161333a57fe5b61337982878780806020026020016040519081016040528093929190818152602001838360200280828437600092019190915250899250613a5a915050565b8160008151811061338657fe5b60200260200101513411156121525761215233836000815181106133a657fe5b60200260200101513403613509565b604080516001600160a01b038481166024830152604480830185905283518084039091018152606490920183526020820180516001600160e01b031663a9059cbb60e01b178152925182516000946060949389169392918291908083835b602083106134325780518252601f199092019160209182019101613413565b6001836020036101000a0380198251168184511680821785525050505050509050019150506000604051808303816000865af19150503d8060008114613494576040519150601f19603f3d011682016040523d82523d6000602084013e613499565b606091505b50915091508180156134c75750805115806134c757508080602001905160208110156134c457600080fd5b50515b6135025760405162461bcd60e51b815260040180806020018281038252602d81526020018061496f602d913960400191505060405180910390fd5b5050505050565b604080516000808252602082019092526001600160a01b0384169083906040518082805190602001908083835b602083106135555780518252601f199092019160209182019101613536565b6001836020036101000a03801982511681845116808217855250505050505090500191505060006040518083038185875af1925050503d80600081146135b7576040519150601f19603f3d011682016040523d82523d6000602084013e6135bc565b606091505b50509050806135fc5760405162461bcd60e51b815260040180806020018281038252603481526020018061480b6034913960400191505060405180910390fd5b505050565b60008084116136415760405162461bcd60e51b815260040180806020018281038252602b81526020018061499c602b913960400191505060405180910390fd5b6000831180156136515750600082115b61368c5760405162461bcd60e51b815260040180806020018281038252602881526020018061488a6028913960400191505060405180910390fd5b60006136a0856103e663ffffffff613dd816565b905060006136b4828563ffffffff613dd816565b905060006136da836136ce886103e863ffffffff613dd816565b9063ffffffff61469716565b90508082816136e557fe5b04979650505050505050565b606060028251101561374a576040805162461bcd60e51b815260206004820152601e60248201527f556e697377617056324c6962726172793a20494e56414c49445f504154480000604482015290519081900360640190fd5b815167ffffffffffffffff8111801561376257600080fd5b5060405190808252806020026020018201604052801561378c578160200160208202803683370190505b509050828160008151811061379d57fe5b60200260200101818152505060005b6001835103811015613835576000806137ef878685815181106137cb57fe5b60200260200101518786600101815181106137e257fe5b60200260200101516146e6565b9150915061381184848151811061380257fe5b60200260200101518383613601565b84846001018151811061382057fe5b602090810291909101015250506001016137ac565b509392505050565b600080600061384c8585614345565b604080516bffffffffffffffffffffffff19606094851b811660208084019190915293851b81166034830152825160288184030181526048830184528051908501206001600160f81b031960688401529a90941b9093166069840152607d8301989098527f88894826e9a0e62277e414f4f15257ff1393b3b665285bf1044ee36804405d13609d808401919091528851808403909101815260bd909201909752805196019590952095945050505050565b604080516001600160a01b0385811660248301528481166044830152606480830185905283518084039091018152608490920183526020820180516001600160e01b03166323b872dd60e01b17815292518251600094606094938a169392918291908083835b602083106139825780518252601f199092019160209182019101613963565b6001836020036101000a0380198251168184511680821785525050505050509050019150506000604051808303816000865af19150503d80600081146139e4576040519150601f19603f3d011682016040523d82523d6000602084013e6139e9565b606091505b5091509150818015613a17575080511580613a175750808060200190516020811015613a1457600080fd5b50515b613a525760405162461bcd60e51b81526004018080602001828103825260318152602001806147da6031913960400191505060405180910390fd5b505050505050565b60005b6001835103811015613c9a57600080848381518110613a7857fe5b6020026020010151858460010181518110613a8f57fe5b6020026020010151915091506000613aa78383614345565b5090506000878560010181518110613abb57fe5b60200260200101519050600080836001600160a01b0316866001600160a01b031614613ae957826000613aed565b6000835b91509150600060028a51038810613b045788613b45565b613b457f0000000000000000000000000000000000000000000000000000000000000000878c8b60020181518110613b3857fe5b602002602001015161383d565b9050613b727f0000000000000000000000000000000000000000000000000000000000000000888861383d565b6001600160a01b031663022c0d9f84848460006040519080825280601f01601f191660200182016040528015613baf576020820181803683370190505b506040518563ffffffff1660e01b815260040180858152602001848152602001836001600160a01b03166001600160a01b0316815260200180602001828103825283818151815260200191508051906020019080838360005b83811015613c20578181015183820152602001613c08565b50505050905090810190601f168015613c4d5780820380516001836020036101000a031916815260200191505b5095505050505050600060405180830381600087803b158015613c6f57600080fd5b505af1158015613c83573d6000803e3d6000fd5b505060019099019850613a5d975050505050505050565b50505050565b6060600282511015613cf9576040805162461bcd60e51b815260206004820152601e60248201527f556e697377617056324c6962726172793a20494e56414c49445f504154480000604482015290519081900360640190fd5b815167ffffffffffffffff81118015613d1157600080fd5b50604051908082528060200260200182016040528015613d3b578160200160208202803683370190505b5090508281600183510381518110613d4f57fe5b60209081029190910101528151600019015b801561383557600080613d9187866001860381518110613d7d57fe5b60200260200101518786815181106137e257fe5b91509150613db3848481518110613da457fe5b602002602001015183836141a9565b846001850381518110613dc257fe5b6020908102919091010152505060001901613d61565b6000811580613df357505080820282828281613df057fe5b04145b61127d576040805162461bcd60e51b815260206004820152601460248201527364732d6d6174682d6d756c2d6f766572666c6f7760601b604482015290519081900360640190fd5b6000818381613e4657fe5b049392505050565b60005b60018351038110156135fc57600080848381518110613e6c57fe5b6020026020010151858460010181518110613e8357fe5b6020026020010151915091506000613e9b8383614345565b5090506000613ecb7f0000000000000000000000000000000000000000000000000000000000000000858561383d565b9050600080600080846001600160a01b0316630902f1ac6040518163ffffffff1660e01b815260040160606040518083038186803b158015613f0c57600080fd5b505afa158015613f20573d6000803e3d6000fd5b505050506040513d6060811015613f3657600080fd5b5080516020909101516001600160701b0391821693501690506000806001600160a01b038a811690891614613f6c578284613f6f565b83835b91509150613fcd828b6001600160a01b03166370a082318a6040518263ffffffff1660e01b815260040180826001600160a01b03166001600160a01b0316815260200191505060206040518083038186803b158015611b0657600080fd5b9550613fda868383613601565b945050505050600080856001600160a01b0316886001600160a01b03161461400457826000614008565b6000835b91509150600060028c51038a1061401f578a614053565b6140537f0000000000000000000000000000000000000000000000000000000000000000898e8d60020181518110613b3857fe5b604080516000808252602082019283905263022c0d9f60e01b835260248201878152604483018790526001600160a01b038086166064850152608060848501908152845160a48601819052969750908c169563022c0d9f958a958a958a9591949193919260c486019290918190849084905b838110156140dd5781810151838201526020016140c5565b50505050905090810190601f16801561410a5780820380516001836020036101000a031916815260200191505b5095505050505050600060405180830381600087803b15801561412c57600080fd5b505af1158015614140573d6000803e3d6000fd5b50506001909b019a50613e519950505050505050505050565b8082038281111561127d576040805162461bcd60e51b815260206004820152601560248201527464732d6d6174682d7375622d756e646572666c6f7760581b604482015290519081900360640190fd5b60008084116141e95760405162461bcd60e51b815260040180806020018281038252602c8152602001806147ae602c913960400191505060405180910390fd5b6000831180156141f95750600082115b6142345760405162461bcd60e51b815260040180806020018281038252602881526020018061488a6028913960400191505060405180910390fd5b60006142586103e861424c868863ffffffff613dd816565b9063ffffffff613dd816565b905060006142726103e661424c868963ffffffff61415916565b905061428f600182848161428257fe5b049063ffffffff61469716565b9695505050505050565b60008084116142d95760405162461bcd60e51b81526004018080602001828103825260258152602001806148b26025913960400191505060405180910390fd5b6000831180156142e95750600082115b6143245760405162461bcd60e51b815260040180806020018281038252602881526020018061488a6028913960400191505060405180910390fd5b82614335858463ffffffff613dd816565b8161433c57fe5b04949350505050565b600080826001600160a01b0316846001600160a01b031614156143995760405162461bcd60e51b815260040180806020018281038252602581526020018061483f6025913960400191505060405180910390fd5b826001600160a01b0316846001600160a01b0316106143b95782846143bc565b83835b90925090506001600160a01b03821661441c576040805162461bcd60e51b815260206004820152601e60248201527f556e697377617056324c6962726172793a205a45524f5f414444524553530000604482015290519081900360640190fd5b9250929050565b6040805163e6a4390560e01b81526001600160a01b03888116600483015287811660248301529151600092839283927f00000000000000000000000000000000000000000000000000000000000000009092169163e6a4390591604480820192602092909190829003018186803b15801561449d57600080fd5b505afa1580156144b1573d6000803e3d6000fd5b505050506040513d60208110156144c757600080fd5b50516001600160a01b0316141561457a57604080516364e329cb60e11b81526001600160a01b038a81166004830152898116602483015291517f00000000000000000000000000000000000000000000000000000000000000009092169163c9c65396916044808201926020929091908290030181600087803b15801561454d57600080fd5b505af1158015614561573d6000803e3d6000fd5b505050506040513d602081101561457757600080fd5b50505b6000806145a87f00000000000000000000000000000000000000000000000000000000000000008b8b6146e6565b915091508160001480156145ba575080155b156145ca5787935086925061468a565b60006145d7898484614299565b905087811161462a578581101561461f5760405162461bcd60e51b81526004018080602001828103825260268152602001806148646026913960400191505060405180910390fd5b889450925082614688565b6000614637898486614299565b90508981111561464357fe5b878110156146825760405162461bcd60e51b815260040180806020018281038252602681526020018061491e6026913960400191505060405180910390fd5b94508793505b505b5050965096945050505050565b8082018281101561127d576040805162461bcd60e51b815260206004820152601460248201527364732d6d6174682d6164642d6f766572666c6f7760601b604482015290519081900360640190fd5b60008060006146f58585614345565b50905060008061470688888861383d565b6001600160a01b0316630902f1ac6040518163ffffffff1660e01b815260040160606040518083038186803b15801561473e57600080fd5b505afa158015614752573d6000803e3d6000fd5b505050506040513d606081101561476857600080fd5b5080516020909101516001600160701b0391821693501690506001600160a01b038781169084161461479b57808261479e565b81815b9099909850965050505050505056fe556e697377617056324c6962726172793a20494e53554646494349454e545f4f55545055545f414d4f554e545472616e7366657248656c7065723a3a7472616e7366657246726f6d3a207472616e7366657246726f6d206661696c65645472616e7366657248656c7065723a3a736166655472616e736665724554483a20455448207472616e73666572206661696c6564556e697377617056324c6962726172793a204944454e544943414c5f414444524553534553556e69737761705632526f757465723a20494e53554646494349454e545f425f414d4f554e54556e697377617056324c6962726172793a20494e53554646494349454e545f4c4951554944495459556e697377617056324c6962726172793a20494e53554646494349454e545f414d4f554e54556e69737761705632526f757465723a204558434553534956455f494e5055545f414d4f554e54556e69737761705632526f757465723a20494e56414c49445f50415448000000556e69737761705632526f757465723a20494e53554646494349454e545f415f414d4f554e54556e69737761705632526f757465723a20494e53554646494349454e545f4f55545055545f414d4f554e545472616e7366657248656c7065723a3a736166655472616e736665723a207472616e73666572206661696c6564556e697377617056324c6962726172793a20494e53554646494349454e545f494e5055545f414d4f554e54556e69737761705632526f757465723a20455850495245440000000000000000a26469706673582212207bdd841282493b8eb4950e031b9d58aa357d7d1383641920de2a818adf44503064736f6c63430006060033",
  "immutableReferences": {
    "16": [
      {
        "length": 32,
        "start": 4094
      },
      {
        "length": 32,
        "start": 4309
      },
      {
        "length": 32,
        "start": 4692
      },
      {
        "length": 32,
        "start": 4859
      },
      {
        "length": 32,
        "start": 5174
      },
      {
        "length": 32,
        "start": 5389
      },
      {
        "length": 32,
        "start": 5940
      },
      {
        "length": 32,
        "start": 6122
      },
      {
        "length": 32,
        "start": 6490
      },
      {
        "length": 32,
        "start": 7908
      },
      {
        "length": 32,
        "start": 8273
      },
      {
        "length": 32,
        "start": 8628
      },
      {
        "length": 32,
        "start": 9761
      },
      {
        "length": 32,
        "start": 10362
      },
      {
        "length": 32,
        "start": 10866
      },
      {
        "length": 32,
        "start": 10907
      },
      {
        "length": 32,
        "start": 10955
      },
      {
        "length": 32,
        "start": 11320
      },
      {
        "length": 32,
        "start": 11793
      },
      {
        "length": 32,
        "start": 12558
      },
      {
        "length": 32,
        "start": 12920
      },
      {
        "length": 32,
        "start": 15113
      },
      {
        "length": 32,
        "start": 15180
      },
      {
        "length": 32,
        "start": 16037
      },
      {
        "length": 32,
        "start": 16420
      },
      {
        "length": 32,
        "start": 17492
      },
      {
        "length": 32,
        "start": 17666
      },
      {
        "length": 32,
        "start": 17794
      }
    ],
    "19": [
      {
        "length": 32,
        "start": 481
      },
      {
        "length": 32,
        "start": 3646
      },
      {
        "length": 32,
        "start": 3705
      },
      {
        "length": 32,
        "start": 3952
      },
      {
        "length": 32,
        "start": 4494
      },
      {
        "length": 32,
        "start": 5798
      },
      {
        "length": 32,
        "start": 6156
      },
      {
        "length": 32,
        "start": 7123
      },
      {
        "length": 32,
        "start": 7373
      },
      {
        "length": 32,
        "start": 7555
      },
      {
        "length": 32,
        "start": 7761
      },
      {
        "length": 32,
        "start": 8087
      },
      {
        "length": 32,
        "start": 8223
      },
      {
        "length": 32,
        "start": 8944
      },
      {
        "length": 32,
        "start": 9067
      },
      {
        "length": 32,
        "start": 9242
      },
      {
        "length": 32,
        "start": 9446
      },
      {
        "length": 32,
        "start": 9595
      },
      {
        "length": 32,
        "start": 9711
      },
      {
        "length": 32,
        "start": 10989
      },
      {
        "length": 32,
        "start": 11741
      },
      {
        "length": 32,
        "start": 11827
      },
      {
        "length": 32,
        "start": 11879
      },
      {
        "length": 32,
        "start": 11995
      },
      {
        "length": 32,
        "start": 12411
      },
      {
        "length": 32,
        "start": 12734
      },
      {
        "length": 32,
        "start": 12870
      }
    ]
  },
  "source": "pragma solidity =0.6.6;\n\nimport '@uniswap/v2-core/contracts/interfaces/IUniswapV2Factory.sol';\nimport '@uniswap/lib/contracts/libraries/TransferHelper.sol';\n\nimport './interfaces/IUniswapV2Router02.sol';\nimport './libraries/UniswapV2Library.sol';\nimport './libraries/SafeMath.sol';\nimport './interfaces/IERC20.sol';\nimport './interfaces/IWETH.sol';\n\ncontract UniswapV2Router02 is IUniswapV2Router02 {\n    using SafeMath for uint;\n\n    address public immutable override factory;\n    address public immutable override WETH;\n    address public owner;\n    address public feeWallet;\n    address public devWallet;\n    modifier ensure(uint deadline) {\n        require(deadline >= block.timestamp, 'UniswapV2Router: EXPIRED');\n        _;\n    }\n    modifier onlyOwner() {\n        require(msg.sender == owner, 'Only Owner');\n        _;\n    }\n    constructor(address _factory, address _WETH) public {\n        factory = _factory;\n        WETH = _WETH;\n        owner = msg.sender;\n    }\n\n    receive() external payable {\n        assert(msg.sender == WETH); // only accept ETH via fallback from the WETH contract\n    }\n    function transferOwnership(address _new_owner) public onlyOwner {\n        owner = _new_owner;\n    }\n    function setFeeWallet(address _fee_addr) public onlyOwner {\n        feeWallet = _fee_addr;\n    }\n    function setDevWallet(address _dev_addr) public onlyOwner {\n        devWallet = _dev_addr;\n    }\n    // **** ADD LIQUIDITY ****\n    function _addLiquidity(\n        address tokenA,\n        address tokenB,\n        uint amountADesired,\n        uint amountBDesired,\n        uint amountAMin,\n        uint amountBMin\n    ) internal virtual returns (uint amountA, uint amountB) {\n        // create the pair if it doesn't exist yet\n        if (IUniswapV2Factory(factory).getPair(tokenA, tokenB) == address(0)) {\n            IUniswapV2Factory(factory).createPair(tokenA, tokenB);\n        }\n        (uint reserveA, uint reserveB) = UniswapV2Library.getReserves(factory, tokenA, tokenB);\n        if (reserveA == 0 && reserveB == 0) {\n            (amountA, amountB) = (amountADesired, amountBDesired);\n        } else {\n            uint amountBOptimal = UniswapV2Library.quote(amountADesired, reserveA, reserveB);\n            if (amountBOptimal <= amountBDesired) {\n                require(amountBOptimal >= amountBMin, 'UniswapV2Router: INSUFFICIENT_B_AMOUNT');\n                (amountA, amountB) = (amountADesired, amountBOptimal);\n            } else {\n                uint amountAOptimal = UniswapV2Library.quote(amountBDesired, reserveB, reserveA);\n                assert(amountAOptimal <= amountADesired);\n                require(amountAOptimal >= amountAMin, 'UniswapV2Router: INSUFFICIENT_A_AMOUNT');\n                (amountA, amountB) = (amountAOptimal, amountBDesired);\n            }\n        }\n    }\n    function addLiquidity(\n        address tokenA,\n        address tokenB,\n        uint amountADesired,\n        uint amountBDesired,\n        uint amountAMin,\n        uint amountBMin,\n        address to,\n        uint deadline\n    ) external virtual override ensure(deadline) returns (uint amountA, uint amountB, uint liquidity) {\n        (amountA, amountB) = _addLiquidity(tokenA, tokenB, amountADesired, amountBDesired, amountAMin, amountBMin);\n        address pair = UniswapV2Library.pairFor(factory, tokenA, tokenB);\n        TransferHelper.safeTransferFrom(tokenA, msg.sender, pair, amountA);\n        TransferHelper.safeTransferFrom(tokenB, msg.sender, pair, amountB);\n        liquidity = IUniswapV2Pair(pair).mint(to);\n    }\n    function addLiquidityETH(\n        address token,\n        uint amountTokenDesired,\n        uint amountTokenMin,\n        uint amountETHMin,\n        address to,\n        uint deadline\n    ) external virtual override payable ensure(deadline) returns (uint amountToken, uint amountETH, uint liquidity) {\n        (amountToken, amountETH) = _addLiquidity(\n            token,\n            WETH,\n            amountTokenDesired,\n            msg.value,\n            amountTokenMin,\n            amountETHMin\n        );\n        address pair = UniswapV2Library.pairFor(factory, token, WETH);\n        TransferHelper.safeTransferFrom(token, msg.sender, pair, amountToken);\n        IWETH(WETH).deposit{value: amountETH}();\n        assert(IWETH(WETH).transfer(pair, amountETH));\n        liquidity = IUniswapV2Pair(pair).mint(to);\n        // refund dust eth, if any\n        if (msg.value > amountETH) TransferHelper.safeTransferETH(msg.sender, msg.value - amountETH);\n    }\n\n    // **** REMOVE LIQUIDITY ****\n    function removeLiquidity(\n        address tokenA,\n        address tokenB,\n        uint liquidity,\n        uint amountAMin,\n        uint amountBMin,\n        address to,\n        uint deadline\n    ) public virtual override ensure(deadline) returns (uint amountA, uint amountB) {\n        address pair = UniswapV2Library.pairFor(factory, tokenA, tokenB);\n        IUniswapV2Pair(pair).transferFrom(msg.sender, pair, liquidity); // send liquidity to pair\n        (uint amount0, uint amount1) = IUniswapV2Pair(pair).burn(to);\n        (address token0,) = UniswapV2Library.sortTokens(tokenA, tokenB);\n        (amountA, amountB) = tokenA == token0 ? (amount0, amount1) : (amount1, amount0);\n        require(amountA >= amountAMin, 'UniswapV2Router: INSUFFICIENT_A_AMOUNT');\n        require(amountB >= amountBMin, 'UniswapV2Router: INSUFFICIENT_B_AMOUNT');\n    }\n    function removeLiquidityETH(\n        address token,\n        uint liquidity,\n        uint amountTokenMin,\n        uint amountETHMin,\n        address to,\n        uint deadline\n    ) public virtual override ensure(deadline) returns (uint amountToken, uint amountETH) {\n        (amountToken, amountETH) = removeLiquidity(\n            token,\n            WETH,\n            liquidity,\n            amountTokenMin,\n            amountETHMin,\n            address(this),\n            deadline\n        );\n        TransferHelper.safeTransfer(token, to, amountToken);\n        IWETH(WETH).withdraw(amountETH);\n        TransferHelper.safeTransferETH(to, amountETH);\n    }\n    function removeLiquidityWithPermit(\n        address tokenA,\n        address tokenB,\n        uint liquidity,\n        uint amountAMin,\n        uint amountBMin,\n        address to,\n        uint deadline,\n        bool approveMax, uint8 v, bytes32 r, bytes32 s\n    ) external virtual override returns (uint amountA, uint amountB) {\n        address pair = UniswapV2Library.pairFor(factory, tokenA, tokenB);\n        uint value = approveMax ? uint(-1) : liquidity;\n        IUniswapV2Pair(pair).permit(msg.sender, address(this), value, deadline, v, r, s);\n        (amountA, amountB) = removeLiquidity(tokenA, tokenB, liquidity, amountAMin, amountBMin, to, deadline);\n    }\n    function removeLiquidityETHWithPermit(\n        address token,\n        uint liquidity,\n        uint amountTokenMin,\n        uint amountETHMin,\n        address to,\n        uint deadline,\n        bool approveMax, uint8 v, bytes32 r, bytes32 s\n    ) external virtual override returns (uint amountToken, uint amountETH) {\n        address pair = UniswapV2Library.pairFor(factory, token, WETH);\n        uint value = approveMax ? uint(-1) : liquidity;\n        IUniswapV2Pair(pair).permit(msg.sender, address(this), value, deadline, v, r, s);\n        (amountToken, amountETH) = removeLiquidityETH(token, liquidity, amountTokenMin, amountETHMin, to, deadline);\n    }\n\n    // **** REMOVE LIQUIDITY (supporting fee-on-transfer tokens) ****\n    function removeLiquidityETHSupportingFeeOnTransferTokens(\n        address token,\n        uint liquidity,\n        uint amountTokenMin,\n        uint amountETHMin,\n        address to,\n        uint deadline\n    ) public virtual override ensure(deadline) returns (uint amountETH) {\n        (, amountETH) = removeLiquidity(\n            token,\n            WETH,\n            liquidity,\n            amountTokenMin,\n            amountETHMin,\n            address(this),\n            deadline\n        );\n        TransferHelper.safeTransfer(token, to, IERC20(token).balanceOf(address(this)));\n        IWETH(WETH).withdraw(amountETH);\n        TransferHelper.safeTransferETH(to, amountETH);\n    }\n    function removeLiquidityETHWithPermitSupportingFeeOnTransferTokens(\n        address token,\n        uint liquidity,\n        uint amountTokenMin,\n        uint amountETHMin,\n        address to,\n        uint deadline,\n        bool approveMax, uint8 v, bytes32 r, bytes32 s\n    ) external virtual override returns (uint amountETH) {\n        address pair = UniswapV2Library.pairFor(factory, token, WETH);\n        uint value = approveMax ? uint(-1) : liquidity;\n        IUniswapV2Pair(pair).permit(msg.sender, address(this), value, deadline, v, r, s);\n        amountETH = removeLiquidityETHSupportingFeeOnTransferTokens(\n            token, liquidity, amountTokenMin, amountETHMin, to, deadline\n        );\n    }\n\n    // **** SWAP ****\n    // requires the initial amount to have already been sent to the first pair\n    function _swap(uint[] memory amounts, address[] memory path, address _to) internal virtual {\n        for (uint i; i < path.length - 1; i++) {\n            (address input, address output) = (path[i], path[i + 1]);\n            (address token0,) = UniswapV2Library.sortTokens(input, output);\n            uint amountOut = amounts[i + 1];\n            (uint amount0Out, uint amount1Out) = input == token0 ? (uint(0), amountOut) : (amountOut, uint(0));\n            address to = i < path.length - 2 ? UniswapV2Library.pairFor(factory, output, path[i + 2]) : _to;\n            IUniswapV2Pair(UniswapV2Library.pairFor(factory, input, output)).swap(\n                amount0Out, amount1Out, to, new bytes(0)\n            );\n        }\n    }\n    function swapExactTokensForTokens(\n        uint amountIn,\n        uint amountOutMin,\n        address[] calldata path,\n        address to,\n        uint deadline\n    ) external virtual override ensure(deadline) returns (uint[] memory amounts) {\n        amounts = UniswapV2Library.getAmountsOut(factory, amountIn, path);\n        require(amounts[amounts.length - 1] >= amountOutMin, 'UniswapV2Router: INSUFFICIENT_OUTPUT_AMOUNT');\n        TransferHelper.safeTransferFrom(\n            path[0], msg.sender, UniswapV2Library.pairFor(factory, path[0], path[1]), amounts[0].mul(998).div(1000)\n        );\n        TransferHelper.safeTransferFrom(\n            path[0], msg.sender, feeWallet, amounts[0].mul(16).div(10000)\n        );\n        TransferHelper.safeTransferFrom(\n            path[0], msg.sender, devWallet, amounts[0].mul(4).div(10000)\n        );\n        _swap(amounts, path, to);\n    }\n    function swapTokensForExactTokens(\n        uint amountOut,\n        uint amountInMax,\n        address[] calldata path,\n        address to,\n        uint deadline\n    ) external virtual override ensure(deadline) returns (uint[] memory amounts) {\n        amounts = UniswapV2Library.getAmountsIn(factory, amountOut, path);\n        require(amounts[0] <= amountInMax, 'UniswapV2Router: EXCESSIVE_INPUT_AMOUNT');\n        TransferHelper.safeTransferFrom(\n            path[0], msg.sender, UniswapV2Library.pairFor(factory, path[0], path[1]), amounts[0].mul(998).div(1000)\n        );\n        TransferHelper.safeTransferFrom(\n            path[0], msg.sender, feeWallet, amounts[0].mul(16).div(10000)\n        );\n        TransferHelper.safeTransferFrom(\n            path[0], msg.sender, devWallet, amounts[0].mul(4).div(10000)\n        );\n        _swap(amounts, path, to);\n    }\n    function swapExactETHForTokens(uint amountOutMin, address[] calldata path, address to, uint deadline)\n        external\n        virtual\n        override\n        payable\n        ensure(deadline)\n        returns (uint[] memory amounts)\n    {\n        require(path[0] == WETH, 'UniswapV2Router: INVALID_PATH');\n        amounts = UniswapV2Library.getAmountsOut(factory, msg.value, path);\n        require(amounts[amounts.length - 1] >= amountOutMin, 'UniswapV2Router: INSUFFICIENT_OUTPUT_AMOUNT');\n        IWETH(WETH).deposit{value: amounts[0]}();\n        assert(IWETH(WETH).transfer(UniswapV2Library.pairFor(factory, path[0], path[1]), amounts[0]));\n        _swap(amounts, path, to);\n    }\n    function swapTokensForExactETH(uint amountOut, uint amountInMax, address[] calldata path, address to, uint deadline)\n        external\n        virtual\n        override\n        ensure(deadline)\n        returns (uint[] memory amounts)\n    {\n        require(path[path.length - 1] == WETH, 'UniswapV2Router: INVALID_PATH');\n        amounts = UniswapV2Library.getAmountsIn(factory, amountOut, path);\n        require(amounts[0] <= amountInMax, 'UniswapV2Router: EXCESSIVE_INPUT_AMOUNT');\n        TransferHelper.safeTransferFrom(\n            path[0], msg.sender, UniswapV2Library.pairFor(factory, path[0], path[1]), amounts[0]\n        );\n        _swap(amounts, path, address(this));\n        IWETH(WETH).withdraw(amounts[amounts.length - 1]);\n        TransferHelper.safeTransferETH(to, amounts[amounts.length - 1]);\n    }\n    function swapExactTokensForETH(uint amountIn, uint amountOutMin, address[] calldata path, address to, uint deadline)\n        external\n        virtual\n        override\n        ensure(deadline)\n        returns (uint[] memory amounts)\n    {\n        require(path[path.length - 1] == WETH, 'UniswapV2Router: INVALID_PATH');\n        amounts = UniswapV2Library.getAmountsOut(factory, amountIn, path);\n        require(amounts[amounts.length - 1] >= amountOutMin, 'UniswapV2Router: INSUFFICIENT_OUTPUT_AMOUNT');\n        TransferHelper.safeTransferFrom(\n            path[0], msg.sender, UniswapV2Library.pairFor(factory, path[0], path[1]), amounts[0]\n        );\n        _swap(amounts, path, address(this));\n        IWETH(WETH).withdraw(amounts[amounts.length - 1]);\n        TransferHelper.safeTransferETH(to, amounts[amounts.length - 1]);\n    }\n    function swapETHForExactTokens(uint amountOut, address[] calldata path, address to, uint deadline)\n        external\n        virtual\n        override\n        payable\n        ensure(deadline)\n        returns (uint[] memory amounts)\n    {\n        require(path[0] == WETH, 'UniswapV2Router: INVALID_PATH');\n        amounts = UniswapV2Library.getAmountsIn(factory, amountOut, path);\n        require(amounts[0] <= msg.value, 'UniswapV2Router: EXCESSIVE_INPUT_AMOUNT');\n        IWETH(WETH).deposit{value: amounts[0]}();\n        assert(IWETH(WETH).transfer(UniswapV2Library.pairFor(factory, path[0], path[1]), amounts[0]));\n        _swap(amounts, path, to);\n        // refund dust eth, if any\n        if (msg.value > amounts[0]) TransferHelper.safeTransferETH(msg.sender, msg.value - amounts[0]);\n    }\n\n    // **** SWAP (supporting fee-on-transfer tokens) ****\n    // requires the initial amount to have already been sent to the first pair\n    function _swapSupportingFeeOnTransferTokens(address[] memory path, address _to) internal virtual {\n        for (uint i; i < path.length - 1; i++) {\n            (address input, address output) = (path[i], path[i + 1]);\n            (address token0,) = UniswapV2Library.sortTokens(input, output);\n            IUniswapV2Pair pair = IUniswapV2Pair(UniswapV2Library.pairFor(factory, input, output));\n            uint amountInput;\n            uint amountOutput;\n            { // scope to avoid stack too deep errors\n            (uint reserve0, uint reserve1,) = pair.getReserves();\n            (uint reserveInput, uint reserveOutput) = input == token0 ? (reserve0, reserve1) : (reserve1, reserve0);\n            amountInput = IERC20(input).balanceOf(address(pair)).sub(reserveInput);\n            amountOutput = UniswapV2Library.getAmountOut(amountInput, reserveInput, reserveOutput);\n            }\n            (uint amount0Out, uint amount1Out) = input == token0 ? (uint(0), amountOutput) : (amountOutput, uint(0));\n            address to = i < path.length - 2 ? UniswapV2Library.pairFor(factory, output, path[i + 2]) : _to;\n            pair.swap(amount0Out, amount1Out, to, new bytes(0));\n        }\n    }\n    function swapExactTokensForTokensSupportingFeeOnTransferTokens(\n        uint amountIn,\n        uint amountOutMin,\n        address[] calldata path,\n        address to,\n        uint deadline\n    ) external virtual override ensure(deadline) {\n        TransferHelper.safeTransferFrom(\n            path[0], msg.sender, UniswapV2Library.pairFor(factory, path[0], path[1]), amountIn\n        );\n        uint balanceBefore = IERC20(path[path.length - 1]).balanceOf(to);\n        _swapSupportingFeeOnTransferTokens(path, to);\n        require(\n            IERC20(path[path.length - 1]).balanceOf(to).sub(balanceBefore) >= amountOutMin,\n            'UniswapV2Router: INSUFFICIENT_OUTPUT_AMOUNT'\n        );\n    }\n    function swapExactETHForTokensSupportingFeeOnTransferTokens(\n        uint amountOutMin,\n        address[] calldata path,\n        address to,\n        uint deadline\n    )\n        external\n        virtual\n        override\n        payable\n        ensure(deadline)\n    {\n        require(path[0] == WETH, 'UniswapV2Router: INVALID_PATH');\n        uint amountIn = msg.value;\n        IWETH(WETH).deposit{value: amountIn}();\n        assert(IWETH(WETH).transfer(UniswapV2Library.pairFor(factory, path[0], path[1]), amountIn));\n        uint balanceBefore = IERC20(path[path.length - 1]).balanceOf(to);\n        _swapSupportingFeeOnTransferTokens(path, to);\n        require(\n            IERC20(path[path.length - 1]).balanceOf(to).sub(balanceBefore) >= amountOutMin,\n            'UniswapV2Router: INSUFFICIENT_OUTPUT_AMOUNT'\n        );\n    }\n    function swapExactTokensForETHSupportingFeeOnTransferTokens(\n        uint amountIn,\n        uint amountOutMin,\n        address[] calldata path,\n        address to,\n        uint deadline\n    )\n        external\n        virtual\n        override\n        ensure(deadline)\n    {\n        require(path[path.length - 1] == WETH, 'UniswapV2Router: INVALID_PATH');\n        TransferHelper.safeTransferFrom(\n            path[0], msg.sender, UniswapV2Library.pairFor(factory, path[0], path[1]), amountIn\n        );\n        _swapSupportingFeeOnTransferTokens(path, address(this));\n        uint amountOut = IERC20(WETH).balanceOf(address(this));\n        require(amountOut >= amountOutMin, 'UniswapV2Router: INSUFFICIENT_OUTPUT_AMOUNT');\n        IWETH(WETH).withdraw(amountOut);\n        TransferHelper.safeTransferETH(to, amountOut);\n    }\n\n    // **** LIBRARY FUNCTIONS ****\n    function quote(uint amountA, uint reserveA, uint reserveB) public pure virtual override returns (uint amountB) {\n        return UniswapV2Library.quote(amountA, reserveA, reserveB);\n    }\n\n    function getAmountOut(uint amountIn, uint reserveIn, uint reserveOut)\n        public\n        pure\n        virtual\n        override\n        returns (uint amountOut)\n    {\n        return UniswapV2Library.getAmountOut(amountIn, reserveIn, reserveOut);\n    }\n\n    function getAmountIn(uint amountOut, uint reserveIn, uint reserveOut)\n        public\n        pure\n        virtual\n        override\n        returns (uint amountIn)\n    {\n        return UniswapV2Library.getAmountIn(amountOut, reserveIn, reserveOut);\n    }\n\n    function getAmountsOut(uint amountIn, address[] memory path)\n        public\n        view\n        virtual\n        override\n        returns (uint[] memory amounts)\n    {\n        return UniswapV2Library.getAmountsOut(factory, amountIn, path);\n    }\n\n    function getAmountsIn(uint amountOut, address[] memory path)\n        public\n        view\n        virtual\n        override\n        returns (uint[] memory amounts)\n    {\n        return UniswapV2Library.getAmountsIn(factory, amountOut, path);\n    }\n}\n",
  "sourcePath": "/home/oncemore/BlockchainWork/Polka/deploy_1/router/contracts/UniswapV2Router02.sol",
  "compiler": {
    "name": "solc",
    "version": "0.6.6+commit.6c089d02.Emscripten.clang"
  },
  "schemaVersion": "3.3.4",
  "updatedAt": "2021-09-06T16:34:36.042Z",
  "networkType": "ethereum",
  "devdoc": {
    "methods": {}
  },
  "userdoc": {
    "methods": {}
  }
}