{
  "contractName": "UniswapV2Router02",
  "abi": [
    {
      "inputs": [
        {
          "internalType": "address",
          "name": "_factory",
          "type": "address"
        },
        {
          "internalType": "address",
          "name": "_WETH",
          "type": "address"
        },
        {
          "internalType": "address",
          "name": "_treasury",
          "type": "address"
        }
      ],
      "stateMutability": "nonpayable",
      "type": "constructor"
    },
    {
      "inputs": [],
      "name": "WETH",
      "outputs": [
        {
          "internalType": "address",
          "name": "",
          "type": "address"
        }
      ],
      "stateMutability": "view",
      "type": "function"
    },
    {
      "inputs": [],
      "name": "factory",
      "outputs": [
        {
          "internalType": "address",
          "name": "",
          "type": "address"
        }
      ],
      "stateMutability": "view",
      "type": "function"
    },
    {
      "inputs": [],
      "name": "owner",
      "outputs": [
        {
          "internalType": "address",
          "name": "",
          "type": "address"
        }
      ],
      "stateMutability": "view",
      "type": "function"
    },
    {
      "stateMutability": "payable",
      "type": "receive"
    },
    {
      "inputs": [
        {
          "internalType": "address",
          "name": "_new_owner",
          "type": "address"
        }
      ],
      "name": "transferOwnership",
      "outputs": [],
      "stateMutability": "nonpayable",
      "type": "function"
    },
    {
      "inputs": [
        {
          "internalType": "address",
          "name": "tokenA",
          "type": "address"
        },
        {
          "internalType": "address",
          "name": "tokenB",
          "type": "address"
        },
        {
          "internalType": "uint256",
          "name": "amountADesired",
          "type": "uint256"
        },
        {
          "internalType": "uint256",
          "name": "amountBDesired",
          "type": "uint256"
        },
        {
          "internalType": "uint256",
          "name": "amountAMin",
          "type": "uint256"
        },
        {
          "internalType": "uint256",
          "name": "amountBMin",
          "type": "uint256"
        },
        {
          "internalType": "address",
          "name": "to",
          "type": "address"
        },
        {
          "internalType": "uint256",
          "name": "deadline",
          "type": "uint256"
        }
      ],
      "name": "addLiquidity",
      "outputs": [
        {
          "internalType": "uint256",
          "name": "amountA",
          "type": "uint256"
        },
        {
          "internalType": "uint256",
          "name": "amountB",
          "type": "uint256"
        },
        {
          "internalType": "uint256",
          "name": "liquidity",
          "type": "uint256"
        }
      ],
      "stateMutability": "nonpayable",
      "type": "function"
    },
    {
      "inputs": [
        {
          "internalType": "address",
          "name": "token",
          "type": "address"
        },
        {
          "internalType": "uint256",
          "name": "amountTokenDesired",
          "type": "uint256"
        },
        {
          "internalType": "uint256",
          "name": "amountTokenMin",
          "type": "uint256"
        },
        {
          "internalType": "uint256",
          "name": "amountETHMin",
          "type": "uint256"
        },
        {
          "internalType": "address",
          "name": "to",
          "type": "address"
        },
        {
          "internalType": "uint256",
          "name": "deadline",
          "type": "uint256"
        }
      ],
      "name": "addLiquidityETH",
      "outputs": [
        {
          "internalType": "uint256",
          "name": "amountToken",
          "type": "uint256"
        },
        {
          "internalType": "uint256",
          "name": "amountETH",
          "type": "uint256"
        },
        {
          "internalType": "uint256",
          "name": "liquidity",
          "type": "uint256"
        }
      ],
      "stateMutability": "payable",
      "type": "function"
    },
    {
      "inputs": [
        {
          "internalType": "address",
          "name": "tokenA",
          "type": "address"
        },
        {
          "internalType": "address",
          "name": "tokenB",
          "type": "address"
        },
        {
          "internalType": "uint256",
          "name": "liquidity",
          "type": "uint256"
        },
        {
          "internalType": "uint256",
          "name": "amountAMin",
          "type": "uint256"
        },
        {
          "internalType": "uint256",
          "name": "amountBMin",
          "type": "uint256"
        },
        {
          "internalType": "address",
          "name": "to",
          "type": "address"
        },
        {
          "internalType": "uint256",
          "name": "deadline",
          "type": "uint256"
        }
      ],
      "name": "removeLiquidity",
      "outputs": [
        {
          "internalType": "uint256",
          "name": "amountA",
          "type": "uint256"
        },
        {
          "internalType": "uint256",
          "name": "amountB",
          "type": "uint256"
        }
      ],
      "stateMutability": "nonpayable",
      "type": "function"
    },
    {
      "inputs": [
        {
          "internalType": "address",
          "name": "token",
          "type": "address"
        },
        {
          "internalType": "uint256",
          "name": "liquidity",
          "type": "uint256"
        },
        {
          "internalType": "uint256",
          "name": "amountTokenMin",
          "type": "uint256"
        },
        {
          "internalType": "uint256",
          "name": "amountETHMin",
          "type": "uint256"
        },
        {
          "internalType": "address",
          "name": "to",
          "type": "address"
        },
        {
          "internalType": "uint256",
          "name": "deadline",
          "type": "uint256"
        }
      ],
      "name": "removeLiquidityETH",
      "outputs": [
        {
          "internalType": "uint256",
          "name": "amountToken",
          "type": "uint256"
        },
        {
          "internalType": "uint256",
          "name": "amountETH",
          "type": "uint256"
        }
      ],
      "stateMutability": "nonpayable",
      "type": "function"
    },
    {
      "inputs": [
        {
          "internalType": "address",
          "name": "tokenA",
          "type": "address"
        },
        {
          "internalType": "address",
          "name": "tokenB",
          "type": "address"
        },
        {
          "internalType": "uint256",
          "name": "liquidity",
          "type": "uint256"
        },
        {
          "internalType": "uint256",
          "name": "amountAMin",
          "type": "uint256"
        },
        {
          "internalType": "uint256",
          "name": "amountBMin",
          "type": "uint256"
        },
        {
          "internalType": "address",
          "name": "to",
          "type": "address"
        },
        {
          "internalType": "uint256",
          "name": "deadline",
          "type": "uint256"
        },
        {
          "internalType": "bool",
          "name": "approveMax",
          "type": "bool"
        },
        {
          "internalType": "uint8",
          "name": "v",
          "type": "uint8"
        },
        {
          "internalType": "bytes32",
          "name": "r",
          "type": "bytes32"
        },
        {
          "internalType": "bytes32",
          "name": "s",
          "type": "bytes32"
        }
      ],
      "name": "removeLiquidityWithPermit",
      "outputs": [
        {
          "internalType": "uint256",
          "name": "amountA",
          "type": "uint256"
        },
        {
          "internalType": "uint256",
          "name": "amountB",
          "type": "uint256"
        }
      ],
      "stateMutability": "nonpayable",
      "type": "function"
    },
    {
      "inputs": [
        {
          "internalType": "address",
          "name": "token",
          "type": "address"
        },
        {
          "internalType": "uint256",
          "name": "liquidity",
          "type": "uint256"
        },
        {
          "internalType": "uint256",
          "name": "amountTokenMin",
          "type": "uint256"
        },
        {
          "internalType": "uint256",
          "name": "amountETHMin",
          "type": "uint256"
        },
        {
          "internalType": "address",
          "name": "to",
          "type": "address"
        },
        {
          "internalType": "uint256",
          "name": "deadline",
          "type": "uint256"
        },
        {
          "internalType": "bool",
          "name": "approveMax",
          "type": "bool"
        },
        {
          "internalType": "uint8",
          "name": "v",
          "type": "uint8"
        },
        {
          "internalType": "bytes32",
          "name": "r",
          "type": "bytes32"
        },
        {
          "internalType": "bytes32",
          "name": "s",
          "type": "bytes32"
        }
      ],
      "name": "removeLiquidityETHWithPermit",
      "outputs": [
        {
          "internalType": "uint256",
          "name": "amountToken",
          "type": "uint256"
        },
        {
          "internalType": "uint256",
          "name": "amountETH",
          "type": "uint256"
        }
      ],
      "stateMutability": "nonpayable",
      "type": "function"
    },
    {
      "inputs": [
        {
          "internalType": "address",
          "name": "token",
          "type": "address"
        },
        {
          "internalType": "uint256",
          "name": "liquidity",
          "type": "uint256"
        },
        {
          "internalType": "uint256",
          "name": "amountTokenMin",
          "type": "uint256"
        },
        {
          "internalType": "uint256",
          "name": "amountETHMin",
          "type": "uint256"
        },
        {
          "internalType": "address",
          "name": "to",
          "type": "address"
        },
        {
          "internalType": "uint256",
          "name": "deadline",
          "type": "uint256"
        }
      ],
      "name": "removeLiquidityETHSupportingFeeOnTransferTokens",
      "outputs": [
        {
          "internalType": "uint256",
          "name": "amountETH",
          "type": "uint256"
        }
      ],
      "stateMutability": "nonpayable",
      "type": "function"
    },
    {
      "inputs": [
        {
          "internalType": "address",
          "name": "token",
          "type": "address"
        },
        {
          "internalType": "uint256",
          "name": "liquidity",
          "type": "uint256"
        },
        {
          "internalType": "uint256",
          "name": "amountTokenMin",
          "type": "uint256"
        },
        {
          "internalType": "uint256",
          "name": "amountETHMin",
          "type": "uint256"
        },
        {
          "internalType": "address",
          "name": "to",
          "type": "address"
        },
        {
          "internalType": "uint256",
          "name": "deadline",
          "type": "uint256"
        },
        {
          "internalType": "bool",
          "name": "approveMax",
          "type": "bool"
        },
        {
          "internalType": "uint8",
          "name": "v",
          "type": "uint8"
        },
        {
          "internalType": "bytes32",
          "name": "r",
          "type": "bytes32"
        },
        {
          "internalType": "bytes32",
          "name": "s",
          "type": "bytes32"
        }
      ],
      "name": "removeLiquidityETHWithPermitSupportingFeeOnTransferTokens",
      "outputs": [
        {
          "internalType": "uint256",
          "name": "amountETH",
          "type": "uint256"
        }
      ],
      "stateMutability": "nonpayable",
      "type": "function"
    },
    {
      "inputs": [
        {
          "internalType": "uint256",
          "name": "amountIn",
          "type": "uint256"
        },
        {
          "internalType": "uint256",
          "name": "amountOutMin",
          "type": "uint256"
        },
        {
          "internalType": "address[]",
          "name": "path",
          "type": "address[]"
        },
        {
          "internalType": "address",
          "name": "to",
          "type": "address"
        },
        {
          "internalType": "uint256",
          "name": "deadline",
          "type": "uint256"
        }
      ],
      "name": "swapExactTokensForTokens",
      "outputs": [
        {
          "internalType": "uint256[]",
          "name": "amounts",
          "type": "uint256[]"
        }
      ],
      "stateMutability": "nonpayable",
      "type": "function"
    },
    {
      "inputs": [
        {
          "internalType": "uint256",
          "name": "amountOut",
          "type": "uint256"
        },
        {
          "internalType": "uint256",
          "name": "amountInMax",
          "type": "uint256"
        },
        {
          "internalType": "address[]",
          "name": "path",
          "type": "address[]"
        },
        {
          "internalType": "address",
          "name": "to",
          "type": "address"
        },
        {
          "internalType": "uint256",
          "name": "deadline",
          "type": "uint256"
        }
      ],
      "name": "swapTokensForExactTokens",
      "outputs": [
        {
          "internalType": "uint256[]",
          "name": "amounts",
          "type": "uint256[]"
        }
      ],
      "stateMutability": "nonpayable",
      "type": "function"
    },
    {
      "inputs": [
        {
          "internalType": "uint256",
          "name": "amountOutMin",
          "type": "uint256"
        },
        {
          "internalType": "address[]",
          "name": "path",
          "type": "address[]"
        },
        {
          "internalType": "address",
          "name": "to",
          "type": "address"
        },
        {
          "internalType": "uint256",
          "name": "deadline",
          "type": "uint256"
        }
      ],
      "name": "swapExactETHForTokens",
      "outputs": [
        {
          "internalType": "uint256[]",
          "name": "amounts",
          "type": "uint256[]"
        }
      ],
      "stateMutability": "payable",
      "type": "function"
    },
    {
      "inputs": [
        {
          "internalType": "uint256",
          "name": "amountOut",
          "type": "uint256"
        },
        {
          "internalType": "uint256",
          "name": "amountInMax",
          "type": "uint256"
        },
        {
          "internalType": "address[]",
          "name": "path",
          "type": "address[]"
        },
        {
          "internalType": "address",
          "name": "to",
          "type": "address"
        },
        {
          "internalType": "uint256",
          "name": "deadline",
          "type": "uint256"
        }
      ],
      "name": "swapTokensForExactETH",
      "outputs": [
        {
          "internalType": "uint256[]",
          "name": "amounts",
          "type": "uint256[]"
        }
      ],
      "stateMutability": "nonpayable",
      "type": "function"
    },
    {
      "inputs": [
        {
          "internalType": "uint256",
          "name": "amountIn",
          "type": "uint256"
        },
        {
          "internalType": "uint256",
          "name": "amountOutMin",
          "type": "uint256"
        },
        {
          "internalType": "address[]",
          "name": "path",
          "type": "address[]"
        },
        {
          "internalType": "address",
          "name": "to",
          "type": "address"
        },
        {
          "internalType": "uint256",
          "name": "deadline",
          "type": "uint256"
        }
      ],
      "name": "swapExactTokensForETH",
      "outputs": [
        {
          "internalType": "uint256[]",
          "name": "amounts",
          "type": "uint256[]"
        }
      ],
      "stateMutability": "nonpayable",
      "type": "function"
    },
    {
      "inputs": [
        {
          "internalType": "uint256",
          "name": "amountOut",
          "type": "uint256"
        },
        {
          "internalType": "address[]",
          "name": "path",
          "type": "address[]"
        },
        {
          "internalType": "address",
          "name": "to",
          "type": "address"
        },
        {
          "internalType": "uint256",
          "name": "deadline",
          "type": "uint256"
        }
      ],
      "name": "swapETHForExactTokens",
      "outputs": [
        {
          "internalType": "uint256[]",
          "name": "amounts",
          "type": "uint256[]"
        }
      ],
      "stateMutability": "payable",
      "type": "function"
    },
    {
      "inputs": [
        {
          "internalType": "uint256",
          "name": "amountIn",
          "type": "uint256"
        },
        {
          "internalType": "uint256",
          "name": "amountOutMin",
          "type": "uint256"
        },
        {
          "internalType": "address[]",
          "name": "path",
          "type": "address[]"
        },
        {
          "internalType": "address",
          "name": "to",
          "type": "address"
        },
        {
          "internalType": "uint256",
          "name": "deadline",
          "type": "uint256"
        }
      ],
      "name": "swapExactTokensForTokensSupportingFeeOnTransferTokens",
      "outputs": [],
      "stateMutability": "nonpayable",
      "type": "function"
    },
    {
      "inputs": [
        {
          "internalType": "uint256",
          "name": "amountOutMin",
          "type": "uint256"
        },
        {
          "internalType": "address[]",
          "name": "path",
          "type": "address[]"
        },
        {
          "internalType": "address",
          "name": "to",
          "type": "address"
        },
        {
          "internalType": "uint256",
          "name": "deadline",
          "type": "uint256"
        }
      ],
      "name": "swapExactETHForTokensSupportingFeeOnTransferTokens",
      "outputs": [],
      "stateMutability": "payable",
      "type": "function"
    },
    {
      "inputs": [
        {
          "internalType": "uint256",
          "name": "amountIn",
          "type": "uint256"
        },
        {
          "internalType": "uint256",
          "name": "amountOutMin",
          "type": "uint256"
        },
        {
          "internalType": "address[]",
          "name": "path",
          "type": "address[]"
        },
        {
          "internalType": "address",
          "name": "to",
          "type": "address"
        },
        {
          "internalType": "uint256",
          "name": "deadline",
          "type": "uint256"
        }
      ],
      "name": "swapExactTokensForETHSupportingFeeOnTransferTokens",
      "outputs": [],
      "stateMutability": "nonpayable",
      "type": "function"
    },
    {
      "inputs": [
        {
          "internalType": "uint256",
          "name": "amountA",
          "type": "uint256"
        },
        {
          "internalType": "uint256",
          "name": "reserveA",
          "type": "uint256"
        },
        {
          "internalType": "uint256",
          "name": "reserveB",
          "type": "uint256"
        }
      ],
      "name": "quote",
      "outputs": [
        {
          "internalType": "uint256",
          "name": "amountB",
          "type": "uint256"
        }
      ],
      "stateMutability": "pure",
      "type": "function"
    },
    {
      "inputs": [
        {
          "internalType": "uint256",
          "name": "amountIn",
          "type": "uint256"
        },
        {
          "internalType": "uint256",
          "name": "reserveIn",
          "type": "uint256"
        },
        {
          "internalType": "uint256",
          "name": "reserveOut",
          "type": "uint256"
        }
      ],
      "name": "getAmountOut",
      "outputs": [
        {
          "internalType": "uint256",
          "name": "amountOut",
          "type": "uint256"
        }
      ],
      "stateMutability": "pure",
      "type": "function"
    },
    {
      "inputs": [
        {
          "internalType": "uint256",
          "name": "amountOut",
          "type": "uint256"
        },
        {
          "internalType": "uint256",
          "name": "reserveIn",
          "type": "uint256"
        },
        {
          "internalType": "uint256",
          "name": "reserveOut",
          "type": "uint256"
        }
      ],
      "name": "getAmountIn",
      "outputs": [
        {
          "internalType": "uint256",
          "name": "amountIn",
          "type": "uint256"
        }
      ],
      "stateMutability": "pure",
      "type": "function"
    },
    {
      "inputs": [
        {
          "internalType": "uint256",
          "name": "amountIn",
          "type": "uint256"
        },
        {
          "internalType": "address[]",
          "name": "path",
          "type": "address[]"
        }
      ],
      "name": "getAmountsOut",
      "outputs": [
        {
          "internalType": "uint256[]",
          "name": "amounts",
          "type": "uint256[]"
        }
      ],
      "stateMutability": "view",
      "type": "function"
    },
    {
      "inputs": [
        {
          "internalType": "uint256",
          "name": "amountOut",
          "type": "uint256"
        },
        {
          "internalType": "address[]",
          "name": "path",
          "type": "address[]"
        }
      ],
      "name": "getAmountsIn",
      "outputs": [
        {
          "internalType": "uint256[]",
          "name": "amounts",
          "type": "uint256[]"
        }
      ],
      "stateMutability": "view",
      "type": "function"
    },
    {
      "inputs": [
        {
          "internalType": "address",
          "name": "_new_treasury",
          "type": "address"
        }
      ],
      "name": "setPolkaTreasury",
      "outputs": [],
      "stateMutability": "nonpayable",
      "type": "function"
    }
  ],
  "bytecode": "0x60c06040523480156200001157600080fd5b506040516200496e3803806200496e833981810160405260608110156200003757600080fd5b50805160208201516040909201519091906001600160a01b0381166200008f5760405162461bcd60e51b81526004018080602001828103825260318152602001806200493d6031913960400191505060405180910390fd5b6001600160601b0319606093841b81166080529190921b1660a052600180546001600160a01b03929092166001600160a01b0319928316179055600080549091163317905560805160601c60a05160601c61473b62000202600039806101b05280610db05280610deb5280610ee25280611100528061148a52806115f052806119b75280611ab15280611b675280611c355280611d7b5280611e03528061205752806120d25280612181528061224d52806122e2528061235652806128545280612b355280612b8b5280612bbf5280612c335280612e865280612fc95280613051525080610f70528061104752806111c652806111ff528061133a528061151852806115ce528061173e5280611cc85280611e355280611f98528061238852806125e152806127d952806128025280612832528061299f5280612b695280612f195280613083528061391452806139575280613ba25280613d2152806140df528061418d528061420d525061473b6000f3fe6080604052600436106101a05760003560e01c80638da5cb5b116100ec578063d06ca61f1161008a578063f2fde38b11610064578063f2fde38b14610c33578063f305d71914610c66578063f799929114610cac578063fb3bdb4114610cdf576101d9565b8063d06ca61f14610a8b578063ded9382a14610b40578063e8e3370014610bb3576101d9565b8063af2979eb116100c6578063af2979eb14610942578063b6f9de9514610995578063baa2abde14610a19578063c45a015514610a76576101d9565b80638da5cb5b146108c6578063ad5c4648146108f7578063ad615dec1461090c576101d9565b80634a25d94a11610159578063791ac94711610133578063791ac947146106e05780637ff36ab51461077657806385f8c259146107fa5780638803dbee14610830576101d9565b80634a25d94a146105415780635b0d5984146105d75780635c11d7951461064a576101d9565b806302751cec146101de578063054d50d41461024a57806318cbafe5146102925780631f00ca74146103785780632195995c1461042d57806338ed1739146104ab576101d9565b366101d957336001600160a01b037f000000000000000000000000000000000000000000000000000000000000000016146101d757fe5b005b600080fd5b3480156101ea57600080fd5b50610231600480360360c081101561020157600080fd5b506001600160a01b0381358116916020810135916040820135916060810135916080820135169060a00135610d63565b6040805192835260208301919091528051918290030190f35b34801561025657600080fd5b506102806004803603606081101561026d57600080fd5b5080359060208101359060400135610e7d565b60408051918252519081900360200190f35b34801561029e57600080fd5b50610328600480360360a08110156102b557600080fd5b813591602081013591810190606081016040820135600160201b8111156102db57600080fd5b8201836020820111156102ed57600080fd5b803590602001918460208302840111600160201b8311171561030e57600080fd5b91935091506001600160a01b038135169060200135610e92565b60408051602080825283518183015283519192839290830191858101910280838360005b8381101561036457818101518382015260200161034c565b505050509050019250505060405180910390f35b34801561038457600080fd5b506103286004803603604081101561039b57600080fd5b81359190810190604081016020820135600160201b8111156103bc57600080fd5b8201836020820111156103ce57600080fd5b803590602001918460208302840111600160201b831117156103ef57600080fd5b9190808060200260200160405190810160405280939291908181526020018383602002808284376000920191909152509295506111bf945050505050565b34801561043957600080fd5b50610231600480360361016081101561045157600080fd5b506001600160a01b038135811691602081013582169160408201359160608101359160808201359160a08101359091169060c08101359060e081013515159060ff61010082013516906101208101359061014001356111f5565b3480156104b757600080fd5b50610328600480360360a08110156104ce57600080fd5b813591602081013591810190606081016040820135600160201b8111156104f457600080fd5b82018360208201111561050657600080fd5b803590602001918460208302840111600160201b8311171561052757600080fd5b91935091506001600160a01b0381351690602001356112ef565b34801561054d57600080fd5b50610328600480360360a081101561056457600080fd5b813591602081013591810190606081016040820135600160201b81111561058a57600080fd5b82018360208201111561059c57600080fd5b803590602001918460208302840111600160201b831117156105bd57600080fd5b91935091506001600160a01b03813516906020013561143a565b3480156105e357600080fd5b5061028060048036036101408110156105fb57600080fd5b506001600160a01b0381358116916020810135916040820135916060810135916080820135169060a08101359060c081013515159060ff60e082013516906101008101359061012001356115c6565b34801561065657600080fd5b506101d7600480360360a081101561066d57600080fd5b813591602081013591810190606081016040820135600160201b81111561069357600080fd5b8201836020820111156106a557600080fd5b803590602001918460208302840111600160201b831117156106c657600080fd5b91935091506001600160a01b0381351690602001356116d4565b3480156106ec57600080fd5b506101d7600480360360a081101561070357600080fd5b813591602081013591810190606081016040820135600160201b81111561072957600080fd5b82018360208201111561073b57600080fd5b803590602001918460208302840111600160201b8311171561075c57600080fd5b91935091506001600160a01b038135169060200135611969565b6103286004803603608081101561078c57600080fd5b81359190810190604081016020820135600160201b8111156107ad57600080fd5b8201836020820111156107bf57600080fd5b803590602001918460208302840111600160201b831117156107e057600080fd5b91935091506001600160a01b038135169060200135611bed565b34801561080657600080fd5b506102806004803603606081101561081d57600080fd5b5080359060208101359060400135611f40565b34801561083c57600080fd5b50610328600480360360a081101561085357600080fd5b813591602081013591810190606081016040820135600160201b81111561087957600080fd5b82018360208201111561088b57600080fd5b803590602001918460208302840111600160201b831117156108ac57600080fd5b91935091506001600160a01b038135169060200135611f4d565b3480156108d257600080fd5b506108db612046565b604080516001600160a01b039092168252519081900360200190f35b34801561090357600080fd5b506108db612055565b34801561091857600080fd5b506102806004803603606081101561092f57600080fd5b5080359060208101359060400135612079565b34801561094e57600080fd5b50610280600480360360c081101561096557600080fd5b506001600160a01b0381358116916020810135916040820135916060810135916080820135169060a00135612086565b6101d7600480360360808110156109ab57600080fd5b81359190810190604081016020820135600160201b8111156109cc57600080fd5b8201836020820111156109de57600080fd5b803590602001918460208302840111600160201b831117156109ff57600080fd5b91935091506001600160a01b038135169060200135612207565b348015610a2557600080fd5b50610231600480360360e0811015610a3c57600080fd5b506001600160a01b038135811691602081013582169160408201359160608101359160808201359160a08101359091169060c00135612593565b348015610a8257600080fd5b506108db6127d7565b348015610a9757600080fd5b5061032860048036036040811015610aae57600080fd5b81359190810190604081016020820135600160201b811115610acf57600080fd5b820183602082011115610ae157600080fd5b803590602001918460208302840111600160201b83111715610b0257600080fd5b9190808060200260200160405190810160405280939291908181526020018383602002808284376000920191909152509295506127fb945050505050565b348015610b4c57600080fd5b506102316004803603610140811015610b6457600080fd5b506001600160a01b0381358116916020810135916040820135916060810135916080820135169060a08101359060c081013515159060ff60e08201351690610100810135906101200135612828565b348015610bbf57600080fd5b50610c156004803603610100811015610bd757600080fd5b506001600160a01b038135811691602081013582169160408201359160608101359160808201359160a08101359160c0820135169060e0013561293c565b60408051938452602084019290925282820152519081900360600190f35b348015610c3f57600080fd5b506101d760048036036020811015610c5657600080fd5b50356001600160a01b0316612a78565b610c15600480360360c0811015610c7c57600080fd5b506001600160a01b0381358116916020810135916040820135916060810135916080820135169060a00135612ae6565b348015610cb857600080fd5b506101d760048036036020811015610ccf57600080fd5b50356001600160a01b0316612d8b565b61032860048036036080811015610cf557600080fd5b81359190810190604081016020820135600160201b811115610d1657600080fd5b820183602082011115610d2857600080fd5b803590602001918460208302840111600160201b83111715610d4957600080fd5b91935091506001600160a01b038135169060200135612e3e565b6000808242811015610daa576040805162461bcd60e51b815260206004820152601860248201526000805160206146e6833981519152604482015290519081900360640190fd5b610dd9897f00000000000000000000000000000000000000000000000000000000000000008a8a8a308a612593565b9093509150610de98986856131c0565b7f00000000000000000000000000000000000000000000000000000000000000006001600160a01b0316632e1a7d4d836040518263ffffffff1660e01b815260040180828152602001915050600060405180830381600087803b158015610e4f57600080fd5b505af1158015610e63573d6000803e3d6000fd5b50505050610e718583613314565b50965096945050505050565b6000610e8a84848461340c565b949350505050565b60608142811015610ed8576040805162461bcd60e51b815260206004820152601860248201526000805160206146e6833981519152604482015290519081900360640190fd5b6001600160a01b037f00000000000000000000000000000000000000000000000000000000000000001686866000198101818110610f1257fe5b905060200201356001600160a01b03166001600160a01b031614610f6b576040805162461bcd60e51b815260206004820152601d60248201526000805160206145ec833981519152604482015290519081900360640190fd5b610fc97f0000000000000000000000000000000000000000000000000000000000000000898888808060200260200160405190810160405280939291908181526020018383602002808284376000920191909152506134fc92505050565b91508682600184510381518110610fdc57fe5b602002602001015110156110215760405162461bcd60e51b815260040180806020018281038252602b815260200180614632602b913960400191505060405180910390fd5b6110bf8686600081811061103157fe5b905060200201356001600160a01b0316336110a57f00000000000000000000000000000000000000000000000000000000000000008a8a600081811061107357fe5b905060200201356001600160a01b03168b8b600181811061109057fe5b905060200201356001600160a01b0316613648565b856000815181106110b257fe5b6020026020010151613708565b6110fe82878780806020026020016040519081016040528093929190818152602001838360200280828437600092019190915250309250613865915050565b7f00000000000000000000000000000000000000000000000000000000000000006001600160a01b0316632e1a7d4d8360018551038151811061113d57fe5b60200260200101516040518263ffffffff1660e01b815260040180828152602001915050600060405180830381600087803b15801561117b57600080fd5b505af115801561118f573d6000803e3d6000fd5b505050506111b484836001855103815181106111a757fe5b6020026020010151613314565b509695505050505050565b60606111ec7f00000000000000000000000000000000000000000000000000000000000000008484613a13565b90505b92915050565b60008060006112257f00000000000000000000000000000000000000000000000000000000000000008f8f613648565b9050600087611234578c611238565b6000195b6040805163d505accf60e01b815233600482015230602482015260448101839052606481018c905260ff8a16608482015260a4810189905260c4810188905290519192506001600160a01b0384169163d505accf9160e48082019260009290919082900301818387803b1580156112ae57600080fd5b505af11580156112c2573d6000803e3d6000fd5b505050506112d58f8f8f8f8f8f8f612593565b809450819550505050509b509b9950505050505050505050565b60608142811015611335576040805162461bcd60e51b815260206004820152601860248201526000805160206146e6833981519152604482015290519081900360640190fd5b6113937f0000000000000000000000000000000000000000000000000000000000000000898888808060200260200160405190810160405280939291908181526020018383602002808284376000920191909152506134fc92505050565b915086826001845103815181106113a657fe5b602002602001015110156113eb5760405162461bcd60e51b815260040180806020018281038252602b815260200180614632602b913960400191505060405180910390fd5b6113fb8686600081811061103157fe5b6111b482878780806020026020016040519081016040528093929190818152602001838360200280828437600092019190915250899250613865915050565b60608142811015611480576040805162461bcd60e51b815260206004820152601860248201526000805160206146e6833981519152604482015290519081900360640190fd5b6001600160a01b037f000000000000000000000000000000000000000000000000000000000000000016868660001981018181106114ba57fe5b905060200201356001600160a01b03166001600160a01b031614611513576040805162461bcd60e51b815260206004820152601d60248201526000805160206145ec833981519152604482015290519081900360640190fd5b6115717f000000000000000000000000000000000000000000000000000000000000000089888880806020026020016040519081016040528093929190818152602001838360200280828437600092019190915250613a1392505050565b9150868260008151811061158157fe5b602002602001015111156110215760405162461bcd60e51b81526004018080602001828103825260278152602001806145c56027913960400191505060405180910390fd5b6000806116147f00000000000000000000000000000000000000000000000000000000000000008d7f0000000000000000000000000000000000000000000000000000000000000000613648565b9050600086611623578b611627565b6000195b6040805163d505accf60e01b815233600482015230602482015260448101839052606481018b905260ff8916608482015260a4810188905260c4810187905290519192506001600160a01b0384169163d505accf9160e48082019260009290919082900301818387803b15801561169d57600080fd5b505af11580156116b1573d6000803e3d6000fd5b505050506116c38d8d8d8d8d8d612086565b9d9c50505050505050505050505050565b8042811015611718576040805162461bcd60e51b815260206004820152601860248201526000805160206146e6833981519152604482015290519081900360640190fd5b61178d8585600081811061172857fe5b905060200201356001600160a01b0316336117877f00000000000000000000000000000000000000000000000000000000000000008989600081811061176a57fe5b905060200201356001600160a01b03168a8a600181811061109057fe5b8a613708565b60008585600019810181811061179f57fe5b905060200201356001600160a01b03166001600160a01b03166370a08231856040518263ffffffff1660e01b815260040180826001600160a01b03166001600160a01b0316815260200191505060206040518083038186803b15801561180457600080fd5b505afa158015611818573d6000803e3d6000fd5b505050506040513d602081101561182e57600080fd5b50516040805160208881028281018201909352888252929350611870929091899189918291850190849080828437600092019190915250889250613b4b915050565b86611922828888600019810181811061188557fe5b905060200201356001600160a01b03166001600160a01b03166370a08231886040518263ffffffff1660e01b815260040180826001600160a01b03166001600160a01b0316815260200191505060206040518083038186803b1580156118ea57600080fd5b505afa1580156118fe573d6000803e3d6000fd5b505050506040513d602081101561191457600080fd5b50519063ffffffff613de416565b101561195f5760405162461bcd60e51b815260040180806020018281038252602b815260200180614632602b913960400191505060405180910390fd5b5050505050505050565b80428110156119ad576040805162461bcd60e51b815260206004820152601860248201526000805160206146e6833981519152604482015290519081900360640190fd5b6001600160a01b037f000000000000000000000000000000000000000000000000000000000000000016858560001981018181106119e757fe5b905060200201356001600160a01b03166001600160a01b031614611a40576040805162461bcd60e51b815260206004820152601d60248201526000805160206145ec833981519152604482015290519081900360640190fd5b611a508585600081811061172857fe5b611a8e858580806020026020016040519081016040528093929190818152602001838360200280828437600092019190915250309250613b4b915050565b604080516370a0823160e01b815230600482015290516000916001600160a01b037f000000000000000000000000000000000000000000000000000000000000000016916370a0823191602480820192602092909190829003018186803b158015611af857600080fd5b505afa158015611b0c573d6000803e3d6000fd5b505050506040513d6020811015611b2257600080fd5b5051905086811015611b655760405162461bcd60e51b815260040180806020018281038252602b815260200180614632602b913960400191505060405180910390fd5b7f00000000000000000000000000000000000000000000000000000000000000006001600160a01b0316632e1a7d4d826040518263ffffffff1660e01b815260040180828152602001915050600060405180830381600087803b158015611bcb57600080fd5b505af1158015611bdf573d6000803e3d6000fd5b5050505061195f8482613314565b60608142811015611c33576040805162461bcd60e51b815260206004820152601860248201526000805160206146e6833981519152604482015290519081900360640190fd5b7f00000000000000000000000000000000000000000000000000000000000000006001600160a01b031686866000818110611c6a57fe5b905060200201356001600160a01b03166001600160a01b031614611cc3576040805162461bcd60e51b815260206004820152601d60248201526000805160206145ec833981519152604482015290519081900360640190fd5b611d217f0000000000000000000000000000000000000000000000000000000000000000348888808060200260200160405190810160405280939291908181526020018383602002808284376000920191909152506134fc92505050565b91508682600184510381518110611d3457fe5b60200260200101511015611d795760405162461bcd60e51b815260040180806020018281038252602b815260200180614632602b913960400191505060405180910390fd5b7f00000000000000000000000000000000000000000000000000000000000000006001600160a01b031663d0e30db083600081518110611db557fe5b60200260200101516040518263ffffffff1660e01b81526004016000604051808303818588803b158015611de857600080fd5b505af1158015611dfc573d6000803e3d6000fd5b50505050507f00000000000000000000000000000000000000000000000000000000000000006001600160a01b031663a9059cbb611e617f00000000000000000000000000000000000000000000000000000000000000008989600081811061176a57fe5b84600081518110611e6e57fe5b60200260200101516040518363ffffffff1660e01b815260040180836001600160a01b03166001600160a01b0316815260200182815260200192505050602060405180830381600087803b158015611ec557600080fd5b505af1158015611ed9573d6000803e3d6000fd5b505050506040513d6020811015611eef57600080fd5b5051611ef757fe5b611f3682878780806020026020016040519081016040528093929190818152602001838360200280828437600092019190915250899250613865915050565b5095945050505050565b6000610e8a848484613e34565b60608142811015611f93576040805162461bcd60e51b815260206004820152601860248201526000805160206146e6833981519152604482015290519081900360640190fd5b611ff17f000000000000000000000000000000000000000000000000000000000000000089888880806020026020016040519081016040528093929190818152602001838360200280828437600092019190915250613a1392505050565b9150868260008151811061200157fe5b602002602001015111156113eb5760405162461bcd60e51b81526004018080602001828103825260278152602001806145c56027913960400191505060405180910390fd5b6000546001600160a01b031681565b7f000000000000000000000000000000000000000000000000000000000000000081565b6000610e8a848484613f24565b600081428110156120cc576040805162461bcd60e51b815260206004820152601860248201526000805160206146e6833981519152604482015290519081900360640190fd5b6120fb887f00000000000000000000000000000000000000000000000000000000000000008989893089612593565b604080516370a0823160e01b8152306004820152905191945061217f92508a9187916001600160a01b038416916370a0823191602480820192602092909190829003018186803b15801561214e57600080fd5b505afa158015612162573d6000803e3d6000fd5b505050506040513d602081101561217857600080fd5b50516131c0565b7f00000000000000000000000000000000000000000000000000000000000000006001600160a01b0316632e1a7d4d836040518263ffffffff1660e01b815260040180828152602001915050600060405180830381600087803b1580156121e557600080fd5b505af11580156121f9573d6000803e3d6000fd5b505050506111b48483613314565b804281101561224b576040805162461bcd60e51b815260206004820152601860248201526000805160206146e6833981519152604482015290519081900360640190fd5b7f00000000000000000000000000000000000000000000000000000000000000006001600160a01b03168585600081811061228257fe5b905060200201356001600160a01b03166001600160a01b0316146122db576040805162461bcd60e51b815260206004820152601d60248201526000805160206145ec833981519152604482015290519081900360640190fd5b60003490507f00000000000000000000000000000000000000000000000000000000000000006001600160a01b031663d0e30db0826040518263ffffffff1660e01b81526004016000604051808303818588803b15801561233b57600080fd5b505af115801561234f573d6000803e3d6000fd5b50505050507f00000000000000000000000000000000000000000000000000000000000000006001600160a01b031663a9059cbb6123b47f00000000000000000000000000000000000000000000000000000000000000008989600081811061176a57fe5b836040518363ffffffff1660e01b815260040180836001600160a01b03166001600160a01b0316815260200182815260200192505050602060405180830381600087803b15801561240457600080fd5b505af1158015612418573d6000803e3d6000fd5b505050506040513d602081101561242e57600080fd5b505161243657fe5b60008686600019810181811061244857fe5b905060200201356001600160a01b03166001600160a01b03166370a08231866040518263ffffffff1660e01b815260040180826001600160a01b03166001600160a01b0316815260200191505060206040518083038186803b1580156124ad57600080fd5b505afa1580156124c1573d6000803e3d6000fd5b505050506040513d60208110156124d757600080fd5b505160408051602089810282810182019093528982529293506125199290918a918a918291850190849080828437600092019190915250899250613b4b915050565b87611922828989600019810181811061252e57fe5b905060200201356001600160a01b03166001600160a01b03166370a08231896040518263ffffffff1660e01b815260040180826001600160a01b03166001600160a01b0316815260200191505060206040518083038186803b1580156118ea57600080fd5b60008082428110156125da576040805162461bcd60e51b815260206004820152601860248201526000805160206146e6833981519152604482015290519081900360640190fd5b60006126077f00000000000000000000000000000000000000000000000000000000000000008c8c613648565b604080516323b872dd60e01b81523360048201526001600160a01b03831660248201819052604482018d9052915192935090916323b872dd916064808201926020929091908290030181600087803b15801561266257600080fd5b505af1158015612676573d6000803e3d6000fd5b505050506040513d602081101561268c57600080fd5b50506040805163226bf2d160e21b81526001600160a01b03888116600483015282516000938493928616926389afcb44926024808301939282900301818787803b1580156126d957600080fd5b505af11580156126ed573d6000803e3d6000fd5b505050506040513d604081101561270357600080fd5b5080516020909101519092509050600061271d8e8e613fd0565b509050806001600160a01b03168e6001600160a01b031614612740578183612743565b82825b90975095508a8710156127875760405162461bcd60e51b815260040180806020018281038252602681526020018061460c6026913960400191505060405180910390fd5b898610156127c65760405162461bcd60e51b81526004018080602001828103825260268152602001806145526026913960400191505060405180910390fd5b505050505097509795505050505050565b7f000000000000000000000000000000000000000000000000000000000000000081565b60606111ec7f000000000000000000000000000000000000000000000000000000000000000084846134fc565b60008060006128787f00000000000000000000000000000000000000000000000000000000000000008e7f0000000000000000000000000000000000000000000000000000000000000000613648565b9050600087612887578c61288b565b6000195b6040805163d505accf60e01b815233600482015230602482015260448101839052606481018c905260ff8a16608482015260a4810189905260c4810188905290519192506001600160a01b0384169163d505accf9160e48082019260009290919082900301818387803b15801561290157600080fd5b505af1158015612915573d6000803e3d6000fd5b505050506129278e8e8e8e8e8e610d63565b909f909e509c50505050505050505050505050565b60008060008342811015612985576040805162461bcd60e51b815260206004820152601860248201526000805160206146e6833981519152604482015290519081900360640190fd5b6129938c8c8c8c8c8c6140ae565b909450925060006129c57f00000000000000000000000000000000000000000000000000000000000000008e8e613648565b90506129d38d338388613708565b6129df8c338387613708565b806001600160a01b0316636a627842886040518263ffffffff1660e01b815260040180826001600160a01b03166001600160a01b03168152602001915050602060405180830381600087803b158015612a3757600080fd5b505af1158015612a4b573d6000803e3d6000fd5b505050506040513d6020811015612a6157600080fd5b5051949d939c50939a509198505050505050505050565b6000546001600160a01b03163314612ac4576040805162461bcd60e51b815260206004820152600a60248201526927b7363c9027bbb732b960b11b604482015290519081900360640190fd5b600080546001600160a01b0319166001600160a01b0392909216919091179055565b60008060008342811015612b2f576040805162461bcd60e51b815260206004820152601860248201526000805160206146e6833981519152604482015290519081900360640190fd5b612b5d8a7f00000000000000000000000000000000000000000000000000000000000000008b348c8c6140ae565b90945092506000612baf7f00000000000000000000000000000000000000000000000000000000000000008c7f0000000000000000000000000000000000000000000000000000000000000000613648565b9050612bbd8b338388613708565b7f00000000000000000000000000000000000000000000000000000000000000006001600160a01b031663d0e30db0856040518263ffffffff1660e01b81526004016000604051808303818588803b158015612c1857600080fd5b505af1158015612c2c573d6000803e3d6000fd5b50505050507f00000000000000000000000000000000000000000000000000000000000000006001600160a01b031663a9059cbb82866040518363ffffffff1660e01b815260040180836001600160a01b03166001600160a01b0316815260200182815260200192505050602060405180830381600087803b158015612cb157600080fd5b505af1158015612cc5573d6000803e3d6000fd5b505050506040513d6020811015612cdb57600080fd5b5051612ce357fe5b806001600160a01b0316636a627842886040518263ffffffff1660e01b815260040180826001600160a01b03166001600160a01b03168152602001915050602060405180830381600087803b158015612d3b57600080fd5b505af1158015612d4f573d6000803e3d6000fd5b505050506040513d6020811015612d6557600080fd5b5051925034841015612d7d57612d7d33853403613314565b505096509650969350505050565b6000546001600160a01b03163314612dd7576040805162461bcd60e51b815260206004820152600a60248201526927b7363c9027bbb732b960b11b604482015290519081900360640190fd5b6001600160a01b038116612e1c5760405162461bcd60e51b815260040180806020018281038252603181526020018061468a6031913960400191505060405180910390fd5b600180546001600160a01b0319166001600160a01b0392909216919091179055565b60608142811015612e84576040805162461bcd60e51b815260206004820152601860248201526000805160206146e6833981519152604482015290519081900360640190fd5b7f00000000000000000000000000000000000000000000000000000000000000006001600160a01b031686866000818110612ebb57fe5b905060200201356001600160a01b03166001600160a01b031614612f14576040805162461bcd60e51b815260206004820152601d60248201526000805160206145ec833981519152604482015290519081900360640190fd5b612f727f000000000000000000000000000000000000000000000000000000000000000088888880806020026020016040519081016040528093929190818152602001838360200280828437600092019190915250613a1392505050565b91503482600081518110612f8257fe5b60200260200101511115612fc75760405162461bcd60e51b81526004018080602001828103825260278152602001806145c56027913960400191505060405180910390fd5b7f00000000000000000000000000000000000000000000000000000000000000006001600160a01b031663d0e30db08360008151811061300357fe5b60200260200101516040518263ffffffff1660e01b81526004016000604051808303818588803b15801561303657600080fd5b505af115801561304a573d6000803e3d6000fd5b50505050507f00000000000000000000000000000000000000000000000000000000000000006001600160a01b031663a9059cbb6130af7f00000000000000000000000000000000000000000000000000000000000000008989600081811061176a57fe5b846000815181106130bc57fe5b60200260200101516040518363ffffffff1660e01b815260040180836001600160a01b03166001600160a01b0316815260200182815260200192505050602060405180830381600087803b15801561311357600080fd5b505af1158015613127573d6000803e3d6000fd5b505050506040513d602081101561313d57600080fd5b505161314557fe5b61318482878780806020026020016040519081016040528093929190818152602001838360200280828437600092019190915250899250613865915050565b8160008151811061319157fe5b6020026020010151341115611f3657611f3633836000815181106131b157fe5b60200260200101513403613314565b604080516001600160a01b038481166024830152604480830185905283518084039091018152606490920183526020820180516001600160e01b031663a9059cbb60e01b178152925182516000946060949389169392918291908083835b6020831061323d5780518252601f19909201916020918201910161321e565b6001836020036101000a0380198251168184511680821785525050505050509050019150506000604051808303816000865af19150503d806000811461329f576040519150601f19603f3d011682016040523d82523d6000602084013e6132a4565b606091505b50915091508180156132d25750805115806132d257508080602001905160208110156132cf57600080fd5b50515b61330d5760405162461bcd60e51b815260040180806020018281038252602d81526020018061465d602d913960400191505060405180910390fd5b5050505050565b604080516000808252602082019092526001600160a01b0384169083906040518082805190602001908083835b602083106133605780518252601f199092019160209182019101613341565b6001836020036101000a03801982511681845116808217855250505050505090500191505060006040518083038185875af1925050503d80600081146133c2576040519150601f19603f3d011682016040523d82523d6000602084013e6133c7565b606091505b50509050806134075760405162461bcd60e51b81526004018080602001828103825260348152602001806144f96034913960400191505060405180910390fd5b505050565b600080841161344c5760405162461bcd60e51b815260040180806020018281038252602b8152602001806146bb602b913960400191505060405180910390fd5b60008311801561345c5750600082115b6134975760405162461bcd60e51b81526004018080602001828103825260288152602001806145786028913960400191505060405180910390fd5b60006134ab856103e663ffffffff61432216565b905060006134bf828563ffffffff61432216565b905060006134e5836134d9886103e863ffffffff61432216565b9063ffffffff61438516565b90508082816134f057fe5b04979650505050505050565b6060600282511015613555576040805162461bcd60e51b815260206004820152601e60248201527f556e697377617056324c6962726172793a20494e56414c49445f504154480000604482015290519081900360640190fd5b815167ffffffffffffffff8111801561356d57600080fd5b50604051908082528060200260200182016040528015613597578160200160208202803683370190505b50905082816000815181106135a857fe5b60200260200101818152505060005b6001835103811015613640576000806135fa878685815181106135d657fe5b60200260200101518786600101815181106135ed57fe5b60200260200101516143d4565b9150915061361c84848151811061360d57fe5b6020026020010151838361340c565b84846001018151811061362b57fe5b602090810291909101015250506001016135b7565b509392505050565b60008060006136578585613fd0565b604080516bffffffffffffffffffffffff19606094851b811660208084019190915293851b81166034830152825160288184030181526048830184528051908501206001600160f81b031960688401529a90941b9093166069840152607d8301989098527f55c0d641bbc9ea5f9f88d5425539e475a11c238eff495480a1deb9763637b53e609d808401919091528851808403909101815260bd909201909752805196019590952095945050505050565b604080516001600160a01b0385811660248301528481166044830152606480830185905283518084039091018152608490920183526020820180516001600160e01b03166323b872dd60e01b17815292518251600094606094938a169392918291908083835b6020831061378d5780518252601f19909201916020918201910161376e565b6001836020036101000a0380198251168184511680821785525050505050509050019150506000604051808303816000865af19150503d80600081146137ef576040519150601f19603f3d011682016040523d82523d6000602084013e6137f4565b606091505b5091509150818015613822575080511580613822575080806020019051602081101561381f57600080fd5b50515b61385d5760405162461bcd60e51b81526004018080602001828103825260318152602001806144c86031913960400191505060405180910390fd5b505050505050565b60005b6001835103811015613a0d5760008084838151811061388357fe5b602002602001015185846001018151811061389a57fe5b60200260200101519150915060006138b28383613fd0565b50905060008785600101815181106138c657fe5b60200260200101519050600080836001600160a01b0316866001600160a01b0316146138f4578260006138f8565b6000835b91509150600060028a5103881061390f5788613950565b6139507f0000000000000000000000000000000000000000000000000000000000000000878c8b6002018151811061394357fe5b6020026020010151613648565b905061397d7f00000000000000000000000000000000000000000000000000000000000000008888613648565b600154604080516393ae880960e01b815260048101879052602481018690526001600160a01b0385811660448301529283166064820152905192909116916393ae88099160848082019260009290919082900301818387803b1580156139e257600080fd5b505af11580156139f6573d6000803e3d6000fd5b505060019099019850613868975050505050505050565b50505050565b6060600282511015613a6c576040805162461bcd60e51b815260206004820152601e60248201527f556e697377617056324c6962726172793a20494e56414c49445f504154480000604482015290519081900360640190fd5b815167ffffffffffffffff81118015613a8457600080fd5b50604051908082528060200260200182016040528015613aae578160200160208202803683370190505b5090508281600183510381518110613ac257fe5b60209081029190910101528151600019015b801561364057600080613b0487866001860381518110613af057fe5b60200260200101518786815181106135ed57fe5b91509150613b26848481518110613b1757fe5b60200260200101518383613e34565b846001850381518110613b3557fe5b6020908102919091010152505060001901613ad4565b60005b600183510381101561340757600080848381518110613b6957fe5b6020026020010151858460010181518110613b8057fe5b6020026020010151915091506000613b988383613fd0565b5090506000613bc87f00000000000000000000000000000000000000000000000000000000000000008585613648565b9050600080600080846001600160a01b0316630902f1ac6040518163ffffffff1660e01b815260040160606040518083038186803b158015613c0957600080fd5b505afa158015613c1d573d6000803e3d6000fd5b505050506040513d6060811015613c3357600080fd5b5080516020909101516001600160701b0391821693501690506000806001600160a01b038a811690891614613c69578284613c6c565b83835b91509150613cca828b6001600160a01b03166370a082318a6040518263ffffffff1660e01b815260040180826001600160a01b03166001600160a01b0316815260200191505060206040518083038186803b1580156118ea57600080fd5b9550613cd786838361340c565b945050505050600080856001600160a01b0316886001600160a01b031614613d0157826000613d05565b6000835b91509150600060028c51038a10613d1c578a613d50565b613d507f0000000000000000000000000000000000000000000000000000000000000000898e8d6002018151811061394357fe5b600154604080516393ae880960e01b815260048101879052602481018690526001600160a01b03808516604483015292831660648201529051929350908816916393ae88099160848082019260009290919082900301818387803b158015613db757600080fd5b505af1158015613dcb573d6000803e3d6000fd5b50506001909b019a50613b4e9950505050505050505050565b808203828111156111ef576040805162461bcd60e51b815260206004820152601560248201527464732d6d6174682d7375622d756e646572666c6f7760581b604482015290519081900360640190fd5b6000808411613e745760405162461bcd60e51b815260040180806020018281038252602c81526020018061449c602c913960400191505060405180910390fd5b600083118015613e845750600082115b613ebf5760405162461bcd60e51b81526004018080602001828103825260288152602001806145786028913960400191505060405180910390fd5b6000613ee36103e8613ed7868863ffffffff61432216565b9063ffffffff61432216565b90506000613efd6103e6613ed7868963ffffffff613de416565b9050613f1a6001828481613f0d57fe5b049063ffffffff61438516565b9695505050505050565b6000808411613f645760405162461bcd60e51b81526004018080602001828103825260258152602001806145a06025913960400191505060405180910390fd5b600083118015613f745750600082115b613faf5760405162461bcd60e51b81526004018080602001828103825260288152602001806145786028913960400191505060405180910390fd5b82613fc0858463ffffffff61432216565b81613fc757fe5b04949350505050565b600080826001600160a01b0316846001600160a01b031614156140245760405162461bcd60e51b815260040180806020018281038252602581526020018061452d6025913960400191505060405180910390fd5b826001600160a01b0316846001600160a01b031610614044578284614047565b83835b90925090506001600160a01b0382166140a7576040805162461bcd60e51b815260206004820152601e60248201527f556e697377617056324c6962726172793a205a45524f5f414444524553530000604482015290519081900360640190fd5b9250929050565b6040805163e6a4390560e01b81526001600160a01b03888116600483015287811660248301529151600092839283927f00000000000000000000000000000000000000000000000000000000000000009092169163e6a4390591604480820192602092909190829003018186803b15801561412857600080fd5b505afa15801561413c573d6000803e3d6000fd5b505050506040513d602081101561415257600080fd5b50516001600160a01b0316141561420557604080516364e329cb60e11b81526001600160a01b038a81166004830152898116602483015291517f00000000000000000000000000000000000000000000000000000000000000009092169163c9c65396916044808201926020929091908290030181600087803b1580156141d857600080fd5b505af11580156141ec573d6000803e3d6000fd5b505050506040513d602081101561420257600080fd5b50505b6000806142337f00000000000000000000000000000000000000000000000000000000000000008b8b6143d4565b91509150816000148015614245575080155b1561425557879350869250614315565b6000614262898484613f24565b90508781116142b557858110156142aa5760405162461bcd60e51b81526004018080602001828103825260268152602001806145526026913960400191505060405180910390fd5b889450925082614313565b60006142c2898486613f24565b9050898111156142ce57fe5b8781101561430d5760405162461bcd60e51b815260040180806020018281038252602681526020018061460c6026913960400191505060405180910390fd5b94508793505b505b5050965096945050505050565b600081158061433d5750508082028282828161433a57fe5b04145b6111ef576040805162461bcd60e51b815260206004820152601460248201527364732d6d6174682d6d756c2d6f766572666c6f7760601b604482015290519081900360640190fd5b808201828110156111ef576040805162461bcd60e51b815260206004820152601460248201527364732d6d6174682d6164642d6f766572666c6f7760601b604482015290519081900360640190fd5b60008060006143e38585613fd0565b5090506000806143f4888888613648565b6001600160a01b0316630902f1ac6040518163ffffffff1660e01b815260040160606040518083038186803b15801561442c57600080fd5b505afa158015614440573d6000803e3d6000fd5b505050506040513d606081101561445657600080fd5b5080516020909101516001600160701b0391821693501690506001600160a01b038781169084161461448957808261448c565b81815b9099909850965050505050505056fe556e697377617056324c6962726172793a20494e53554646494349454e545f4f55545055545f414d4f554e545472616e7366657248656c7065723a3a7472616e7366657246726f6d3a207472616e7366657246726f6d206661696c65645472616e7366657248656c7065723a3a736166655472616e736665724554483a20455448207472616e73666572206661696c6564556e697377617056324c6962726172793a204944454e544943414c5f414444524553534553556e69737761705632526f757465723a20494e53554646494349454e545f425f414d4f554e54556e697377617056324c6962726172793a20494e53554646494349454e545f4c4951554944495459556e697377617056324c6962726172793a20494e53554646494349454e545f414d4f554e54556e69737761705632526f757465723a204558434553534956455f494e5055545f414d4f554e54556e69737761705632526f757465723a20494e56414c49445f50415448000000556e69737761705632526f757465723a20494e53554646494349454e545f415f414d4f554e54556e69737761705632526f757465723a20494e53554646494349454e545f4f55545055545f414d4f554e545472616e7366657248656c7065723a3a736166655472616e736665723a207472616e73666572206661696c6564526f757465723a20547265617375727920636f6e747261637420616464726573732063616e206e6f74206265207a65726f556e697377617056324c6962726172793a20494e53554646494349454e545f494e5055545f414d4f554e54556e69737761705632526f757465723a20455850495245440000000000000000a26469706673582212201565deb45108db1b55bbee9f47b12ea6636b23d06f634ee2bc629fefc725050864736f6c63430006060033526f757465723a20547265617375727920636f6e747261637420616464726573732063616e206e6f74206265207a65726f",
  "immutableReferences": {
    "186": [
      {
        "length": 32,
        "start": 3952
      },
      {
        "length": 32,
        "start": 4167
      },
      {
        "length": 32,
        "start": 4550
      },
      {
        "length": 32,
        "start": 4607
      },
      {
        "length": 32,
        "start": 4922
      },
      {
        "length": 32,
        "start": 5400
      },
      {
        "length": 32,
        "start": 5582
      },
      {
        "length": 32,
        "start": 5950
      },
      {
        "length": 32,
        "start": 7368
      },
      {
        "length": 32,
        "start": 7733
      },
      {
        "length": 32,
        "start": 8088
      },
      {
        "length": 32,
        "start": 9096
      },
      {
        "length": 32,
        "start": 9697
      },
      {
        "length": 32,
        "start": 10201
      },
      {
        "length": 32,
        "start": 10242
      },
      {
        "length": 32,
        "start": 10290
      },
      {
        "length": 32,
        "start": 10655
      },
      {
        "length": 32,
        "start": 11113
      },
      {
        "length": 32,
        "start": 12057
      },
      {
        "length": 32,
        "start": 12419
      },
      {
        "length": 32,
        "start": 14612
      },
      {
        "length": 32,
        "start": 14679
      },
      {
        "length": 32,
        "start": 15266
      },
      {
        "length": 32,
        "start": 15649
      },
      {
        "length": 32,
        "start": 16607
      },
      {
        "length": 32,
        "start": 16781
      },
      {
        "length": 32,
        "start": 16909
      }
    ],
    "189": [
      {
        "length": 32,
        "start": 432
      },
      {
        "length": 32,
        "start": 3504
      },
      {
        "length": 32,
        "start": 3563
      },
      {
        "length": 32,
        "start": 3810
      },
      {
        "length": 32,
        "start": 4352
      },
      {
        "length": 32,
        "start": 5258
      },
      {
        "length": 32,
        "start": 5616
      },
      {
        "length": 32,
        "start": 6583
      },
      {
        "length": 32,
        "start": 6833
      },
      {
        "length": 32,
        "start": 7015
      },
      {
        "length": 32,
        "start": 7221
      },
      {
        "length": 32,
        "start": 7547
      },
      {
        "length": 32,
        "start": 7683
      },
      {
        "length": 32,
        "start": 8279
      },
      {
        "length": 32,
        "start": 8402
      },
      {
        "length": 32,
        "start": 8577
      },
      {
        "length": 32,
        "start": 8781
      },
      {
        "length": 32,
        "start": 8930
      },
      {
        "length": 32,
        "start": 9046
      },
      {
        "length": 32,
        "start": 10324
      },
      {
        "length": 32,
        "start": 11061
      },
      {
        "length": 32,
        "start": 11147
      },
      {
        "length": 32,
        "start": 11199
      },
      {
        "length": 32,
        "start": 11315
      },
      {
        "length": 32,
        "start": 11910
      },
      {
        "length": 32,
        "start": 12233
      },
      {
        "length": 32,
        "start": 12369
      }
    ]
  },
  "source": "pragma solidity =0.6.6;\n\nimport '@uniswap/v2-core/contracts/interfaces/IUniswapV2Factory.sol';\nimport '@uniswap/lib/contracts/libraries/TransferHelper.sol';\n\nimport './interfaces/IUniswapV2Router02.sol';\nimport './libraries/UniswapV2Library.sol';\nimport './libraries/SafeMath.sol';\nimport './interfaces/IERC20.sol';\nimport './interfaces/IWETH.sol';\n\ncontract UniswapV2Router02 is IUniswapV2Router02 {\n    using SafeMath for uint;\n\n    address public immutable override factory;\n    address public immutable override WETH;\n    address public owner;\n    // Polka Treasury\n    address polkaTreasury;\n    modifier ensure(uint deadline) {\n        require(deadline >= block.timestamp, 'UniswapV2Router: EXPIRED');\n        _;\n    }\n    modifier onlyOwner() {\n        require(msg.sender == owner, 'Only Owner');\n        _;\n    }\n    constructor(address _factory, address _WETH, address _treasury) public {\n        require(_treasury != address(0), \"Router: Treasury contract address can not be zero\");\n        factory = _factory;\n        WETH = _WETH;\n        polkaTreasury = _treasury;\n        owner = msg.sender;\n    }\n\n    receive() external payable {\n        assert(msg.sender == WETH); // only accept ETH via fallback from the WETH contract\n    }\n    function transferOwnership(address _new_owner) public onlyOwner {\n        owner = _new_owner;\n    }\n    // **** ADD LIQUIDITY ****\n    function _addLiquidity(\n        address tokenA,\n        address tokenB,\n        uint amountADesired,\n        uint amountBDesired,\n        uint amountAMin,\n        uint amountBMin\n    ) internal virtual returns (uint amountA, uint amountB) {\n        // create the pair if it doesn't exist yet\n        if (IUniswapV2Factory(factory).getPair(tokenA, tokenB) == address(0)) {\n            IUniswapV2Factory(factory).createPair(tokenA, tokenB);\n        }\n        (uint reserveA, uint reserveB) = UniswapV2Library.getReserves(factory, tokenA, tokenB);\n        if (reserveA == 0 && reserveB == 0) {\n            (amountA, amountB) = (amountADesired, amountBDesired);\n        } else {\n            uint amountBOptimal = UniswapV2Library.quote(amountADesired, reserveA, reserveB);\n            if (amountBOptimal <= amountBDesired) {\n                require(amountBOptimal >= amountBMin, 'UniswapV2Router: INSUFFICIENT_B_AMOUNT');\n                (amountA, amountB) = (amountADesired, amountBOptimal);\n            } else {\n                uint amountAOptimal = UniswapV2Library.quote(amountBDesired, reserveB, reserveA);\n                assert(amountAOptimal <= amountADesired);\n                require(amountAOptimal >= amountAMin, 'UniswapV2Router: INSUFFICIENT_A_AMOUNT');\n                (amountA, amountB) = (amountAOptimal, amountBDesired);\n            }\n        }\n    }\n    function addLiquidity(\n        address tokenA,\n        address tokenB,\n        uint amountADesired,\n        uint amountBDesired,\n        uint amountAMin,\n        uint amountBMin,\n        address to,\n        uint deadline\n    ) external virtual override ensure(deadline) returns (uint amountA, uint amountB, uint liquidity) {\n        (amountA, amountB) = _addLiquidity(tokenA, tokenB, amountADesired, amountBDesired, amountAMin, amountBMin);\n        address pair = UniswapV2Library.pairFor(factory, tokenA, tokenB);\n        TransferHelper.safeTransferFrom(tokenA, msg.sender, pair, amountA);\n        TransferHelper.safeTransferFrom(tokenB, msg.sender, pair, amountB);\n        liquidity = IUniswapV2Pair(pair).mint(to);\n    }\n    function addLiquidityETH(\n        address token,\n        uint amountTokenDesired,\n        uint amountTokenMin,\n        uint amountETHMin,\n        address to,\n        uint deadline\n    ) external virtual override payable ensure(deadline) returns (uint amountToken, uint amountETH, uint liquidity) {\n        (amountToken, amountETH) = _addLiquidity(\n            token,\n            WETH,\n            amountTokenDesired,\n            msg.value,\n            amountTokenMin,\n            amountETHMin\n        );\n        address pair = UniswapV2Library.pairFor(factory, token, WETH);\n        TransferHelper.safeTransferFrom(token, msg.sender, pair, amountToken);\n        IWETH(WETH).deposit{value: amountETH}();\n        assert(IWETH(WETH).transfer(pair, amountETH));\n        liquidity = IUniswapV2Pair(pair).mint(to);\n        // refund dust eth, if any\n        if (msg.value > amountETH) TransferHelper.safeTransferETH(msg.sender, msg.value - amountETH);\n    }\n\n    // **** REMOVE LIQUIDITY ****\n    function removeLiquidity(\n        address tokenA,\n        address tokenB,\n        uint liquidity,\n        uint amountAMin,\n        uint amountBMin,\n        address to,\n        uint deadline\n    ) public virtual override ensure(deadline) returns (uint amountA, uint amountB) {\n        address pair = UniswapV2Library.pairFor(factory, tokenA, tokenB);\n        IUniswapV2Pair(pair).transferFrom(msg.sender, pair, liquidity); // send liquidity to pair\n        (uint amount0, uint amount1) = IUniswapV2Pair(pair).burn(to);\n        (address token0,) = UniswapV2Library.sortTokens(tokenA, tokenB);\n        (amountA, amountB) = tokenA == token0 ? (amount0, amount1) : (amount1, amount0);\n        require(amountA >= amountAMin, 'UniswapV2Router: INSUFFICIENT_A_AMOUNT');\n        require(amountB >= amountBMin, 'UniswapV2Router: INSUFFICIENT_B_AMOUNT');\n    }\n    function removeLiquidityETH(\n        address token,\n        uint liquidity,\n        uint amountTokenMin,\n        uint amountETHMin,\n        address to,\n        uint deadline\n    ) public virtual override ensure(deadline) returns (uint amountToken, uint amountETH) {\n        (amountToken, amountETH) = removeLiquidity(\n            token,\n            WETH,\n            liquidity,\n            amountTokenMin,\n            amountETHMin,\n            address(this),\n            deadline\n        );\n        TransferHelper.safeTransfer(token, to, amountToken);\n        IWETH(WETH).withdraw(amountETH);\n        TransferHelper.safeTransferETH(to, amountETH);\n    }\n    function removeLiquidityWithPermit(\n        address tokenA,\n        address tokenB,\n        uint liquidity,\n        uint amountAMin,\n        uint amountBMin,\n        address to,\n        uint deadline,\n        bool approveMax, uint8 v, bytes32 r, bytes32 s\n    ) external virtual override returns (uint amountA, uint amountB) {\n        address pair = UniswapV2Library.pairFor(factory, tokenA, tokenB);\n        uint value = approveMax ? uint(-1) : liquidity;\n        IUniswapV2Pair(pair).permit(msg.sender, address(this), value, deadline, v, r, s);\n        (amountA, amountB) = removeLiquidity(tokenA, tokenB, liquidity, amountAMin, amountBMin, to, deadline);\n    }\n    function removeLiquidityETHWithPermit(\n        address token,\n        uint liquidity,\n        uint amountTokenMin,\n        uint amountETHMin,\n        address to,\n        uint deadline,\n        bool approveMax, uint8 v, bytes32 r, bytes32 s\n    ) external virtual override returns (uint amountToken, uint amountETH) {\n        address pair = UniswapV2Library.pairFor(factory, token, WETH);\n        uint value = approveMax ? uint(-1) : liquidity;\n        IUniswapV2Pair(pair).permit(msg.sender, address(this), value, deadline, v, r, s);\n        (amountToken, amountETH) = removeLiquidityETH(token, liquidity, amountTokenMin, amountETHMin, to, deadline);\n    }\n\n    // **** REMOVE LIQUIDITY (supporting fee-on-transfer tokens) ****\n    function removeLiquidityETHSupportingFeeOnTransferTokens(\n        address token,\n        uint liquidity,\n        uint amountTokenMin,\n        uint amountETHMin,\n        address to,\n        uint deadline\n    ) public virtual override ensure(deadline) returns (uint amountETH) {\n        (, amountETH) = removeLiquidity(\n            token,\n            WETH,\n            liquidity,\n            amountTokenMin,\n            amountETHMin,\n            address(this),\n            deadline\n        );\n        TransferHelper.safeTransfer(token, to, IERC20(token).balanceOf(address(this)));\n        IWETH(WETH).withdraw(amountETH);\n        TransferHelper.safeTransferETH(to, amountETH);\n    }\n    function removeLiquidityETHWithPermitSupportingFeeOnTransferTokens(\n        address token,\n        uint liquidity,\n        uint amountTokenMin,\n        uint amountETHMin,\n        address to,\n        uint deadline,\n        bool approveMax, uint8 v, bytes32 r, bytes32 s\n    ) external virtual override returns (uint amountETH) {\n        address pair = UniswapV2Library.pairFor(factory, token, WETH);\n        uint value = approveMax ? uint(-1) : liquidity;\n        IUniswapV2Pair(pair).permit(msg.sender, address(this), value, deadline, v, r, s);\n        amountETH = removeLiquidityETHSupportingFeeOnTransferTokens(\n            token, liquidity, amountTokenMin, amountETHMin, to, deadline\n        );\n    }\n\n    // **** SWAP ****\n    // requires the initial amount to have already been sent to the first pair\n    function _swap(uint[] memory amounts, address[] memory path, address _to) internal virtual {\n        for (uint i; i < path.length - 1; i++) {\n            (address input, address output) = (path[i], path[i + 1]);\n            (address token0,) = UniswapV2Library.sortTokens(input, output);\n            uint amountOut = amounts[i + 1];\n            (uint amount0Out, uint amount1Out) = input == token0 ? (uint(0), amountOut) : (amountOut, uint(0));\n            address to = i < path.length - 2 ? UniswapV2Library.pairFor(factory, output, path[i + 2]) : _to;\n            IUniswapV2Pair(UniswapV2Library.pairFor(factory, input, output)).swap(\n                amount0Out, amount1Out, to, polkaTreasury\n            );\n        }\n    }\n    function swapExactTokensForTokens(\n        uint amountIn,\n        uint amountOutMin,\n        address[] calldata path,\n        address to,\n        uint deadline\n    ) external virtual override ensure(deadline) returns (uint[] memory amounts) {\n        amounts = UniswapV2Library.getAmountsOut(factory, amountIn, path);\n        require(amounts[amounts.length - 1] >= amountOutMin, 'UniswapV2Router: INSUFFICIENT_OUTPUT_AMOUNT');\n        TransferHelper.safeTransferFrom(\n            path[0], msg.sender, UniswapV2Library.pairFor(factory, path[0], path[1]), amounts[0]\n        );\n        _swap(amounts, path, to);\n    }\n    function swapTokensForExactTokens(\n        uint amountOut,\n        uint amountInMax,\n        address[] calldata path,\n        address to,\n        uint deadline\n    ) external virtual override ensure(deadline) returns (uint[] memory amounts) {\n        amounts = UniswapV2Library.getAmountsIn(factory, amountOut, path);\n        require(amounts[0] <= amountInMax, 'UniswapV2Router: EXCESSIVE_INPUT_AMOUNT');\n        TransferHelper.safeTransferFrom(\n            path[0], msg.sender, UniswapV2Library.pairFor(factory, path[0], path[1]), amounts[0]\n        );\n        _swap(amounts, path, to);\n    }\n    function swapExactETHForTokens(uint amountOutMin, address[] calldata path, address to, uint deadline)\n        external\n        virtual\n        override\n        payable\n        ensure(deadline)\n        returns (uint[] memory amounts)\n    {\n        require(path[0] == WETH, 'UniswapV2Router: INVALID_PATH');\n        amounts = UniswapV2Library.getAmountsOut(factory, msg.value, path);\n        require(amounts[amounts.length - 1] >= amountOutMin, 'UniswapV2Router: INSUFFICIENT_OUTPUT_AMOUNT');\n        IWETH(WETH).deposit{value: amounts[0]}();\n        assert(IWETH(WETH).transfer(UniswapV2Library.pairFor(factory, path[0], path[1]), amounts[0]));\n        _swap(amounts, path, to);\n    }\n    function swapTokensForExactETH(uint amountOut, uint amountInMax, address[] calldata path, address to, uint deadline)\n        external\n        virtual\n        override\n        ensure(deadline)\n        returns (uint[] memory amounts)\n    {\n        require(path[path.length - 1] == WETH, 'UniswapV2Router: INVALID_PATH');\n        amounts = UniswapV2Library.getAmountsIn(factory, amountOut, path);\n        require(amounts[0] <= amountInMax, 'UniswapV2Router: EXCESSIVE_INPUT_AMOUNT');\n        TransferHelper.safeTransferFrom(\n            path[0], msg.sender, UniswapV2Library.pairFor(factory, path[0], path[1]), amounts[0]\n        );\n        _swap(amounts, path, address(this));\n        IWETH(WETH).withdraw(amounts[amounts.length - 1]);\n        TransferHelper.safeTransferETH(to, amounts[amounts.length - 1]);\n    }\n    function swapExactTokensForETH(uint amountIn, uint amountOutMin, address[] calldata path, address to, uint deadline)\n        external\n        virtual\n        override\n        ensure(deadline)\n        returns (uint[] memory amounts)\n    {\n        require(path[path.length - 1] == WETH, 'UniswapV2Router: INVALID_PATH');\n        amounts = UniswapV2Library.getAmountsOut(factory, amountIn, path);\n        require(amounts[amounts.length - 1] >= amountOutMin, 'UniswapV2Router: INSUFFICIENT_OUTPUT_AMOUNT');\n        TransferHelper.safeTransferFrom(\n            path[0], msg.sender, UniswapV2Library.pairFor(factory, path[0], path[1]), amounts[0]\n        );\n        _swap(amounts, path, address(this));\n        IWETH(WETH).withdraw(amounts[amounts.length - 1]);\n        TransferHelper.safeTransferETH(to, amounts[amounts.length - 1]);\n    }\n    function swapETHForExactTokens(uint amountOut, address[] calldata path, address to, uint deadline)\n        external\n        virtual\n        override\n        payable\n        ensure(deadline)\n        returns (uint[] memory amounts)\n    {\n        require(path[0] == WETH, 'UniswapV2Router: INVALID_PATH');\n        amounts = UniswapV2Library.getAmountsIn(factory, amountOut, path);\n        require(amounts[0] <= msg.value, 'UniswapV2Router: EXCESSIVE_INPUT_AMOUNT');\n        IWETH(WETH).deposit{value: amounts[0]}();\n        assert(IWETH(WETH).transfer(UniswapV2Library.pairFor(factory, path[0], path[1]), amounts[0]));\n        _swap(amounts, path, to);\n        // refund dust eth, if any\n        if (msg.value > amounts[0]) TransferHelper.safeTransferETH(msg.sender, msg.value - amounts[0]);\n    }\n\n    // **** SWAP (supporting fee-on-transfer tokens) ****\n    // requires the initial amount to have already been sent to the first pair\n    function _swapSupportingFeeOnTransferTokens(address[] memory path, address _to) internal virtual {\n        for (uint i; i < path.length - 1; i++) {\n            (address input, address output) = (path[i], path[i + 1]);\n            (address token0,) = UniswapV2Library.sortTokens(input, output);\n            IUniswapV2Pair pair = IUniswapV2Pair(UniswapV2Library.pairFor(factory, input, output));\n            uint amountInput;\n            uint amountOutput;\n            { // scope to avoid stack too deep errors\n            (uint reserve0, uint reserve1,) = pair.getReserves();\n            (uint reserveInput, uint reserveOutput) = input == token0 ? (reserve0, reserve1) : (reserve1, reserve0);\n            amountInput = IERC20(input).balanceOf(address(pair)).sub(reserveInput);\n            amountOutput = UniswapV2Library.getAmountOut(amountInput, reserveInput, reserveOutput);\n            }\n            (uint amount0Out, uint amount1Out) = input == token0 ? (uint(0), amountOutput) : (amountOutput, uint(0));\n            address to = i < path.length - 2 ? UniswapV2Library.pairFor(factory, output, path[i + 2]) : _to;\n            pair.swap(amount0Out, amount1Out, to, polkaTreasury);\n        }\n    }\n    function swapExactTokensForTokensSupportingFeeOnTransferTokens(\n        uint amountIn,\n        uint amountOutMin,\n        address[] calldata path,\n        address to,\n        uint deadline\n    ) external virtual override ensure(deadline) {\n        TransferHelper.safeTransferFrom(\n            path[0], msg.sender, UniswapV2Library.pairFor(factory, path[0], path[1]), amountIn\n        );\n        uint balanceBefore = IERC20(path[path.length - 1]).balanceOf(to);\n        _swapSupportingFeeOnTransferTokens(path, to);\n        require(\n            IERC20(path[path.length - 1]).balanceOf(to).sub(balanceBefore) >= amountOutMin,\n            'UniswapV2Router: INSUFFICIENT_OUTPUT_AMOUNT'\n        );\n    }\n    function swapExactETHForTokensSupportingFeeOnTransferTokens(\n        uint amountOutMin,\n        address[] calldata path,\n        address to,\n        uint deadline\n    )\n        external\n        virtual\n        override\n        payable\n        ensure(deadline)\n    {\n        require(path[0] == WETH, 'UniswapV2Router: INVALID_PATH');\n        uint amountIn = msg.value;\n        IWETH(WETH).deposit{value: amountIn}();\n        assert(IWETH(WETH).transfer(UniswapV2Library.pairFor(factory, path[0], path[1]), amountIn));\n        uint balanceBefore = IERC20(path[path.length - 1]).balanceOf(to);\n        _swapSupportingFeeOnTransferTokens(path, to);\n        require(\n            IERC20(path[path.length - 1]).balanceOf(to).sub(balanceBefore) >= amountOutMin,\n            'UniswapV2Router: INSUFFICIENT_OUTPUT_AMOUNT'\n        );\n    }\n    function swapExactTokensForETHSupportingFeeOnTransferTokens(\n        uint amountIn,\n        uint amountOutMin,\n        address[] calldata path,\n        address to,\n        uint deadline\n    )\n        external\n        virtual\n        override\n        ensure(deadline)\n    {\n        require(path[path.length - 1] == WETH, 'UniswapV2Router: INVALID_PATH');\n        TransferHelper.safeTransferFrom(\n            path[0], msg.sender, UniswapV2Library.pairFor(factory, path[0], path[1]), amountIn\n        );\n        _swapSupportingFeeOnTransferTokens(path, address(this));\n        uint amountOut = IERC20(WETH).balanceOf(address(this));\n        require(amountOut >= amountOutMin, 'UniswapV2Router: INSUFFICIENT_OUTPUT_AMOUNT');\n        IWETH(WETH).withdraw(amountOut);\n        TransferHelper.safeTransferETH(to, amountOut);\n    }\n\n    // **** LIBRARY FUNCTIONS ****\n    function quote(uint amountA, uint reserveA, uint reserveB) public pure virtual override returns (uint amountB) {\n        return UniswapV2Library.quote(amountA, reserveA, reserveB);\n    }\n\n    function getAmountOut(uint amountIn, uint reserveIn, uint reserveOut)\n        public\n        pure\n        virtual\n        override\n        returns (uint amountOut)\n    {\n        return UniswapV2Library.getAmountOut(amountIn, reserveIn, reserveOut);\n    }\n\n    function getAmountIn(uint amountOut, uint reserveIn, uint reserveOut)\n        public\n        pure\n        virtual\n        override\n        returns (uint amountIn)\n    {\n        return UniswapV2Library.getAmountIn(amountOut, reserveIn, reserveOut);\n    }\n\n    function getAmountsOut(uint amountIn, address[] memory path)\n        public\n        view\n        virtual\n        override\n        returns (uint[] memory amounts)\n    {\n        return UniswapV2Library.getAmountsOut(factory, amountIn, path);\n    }\n\n    function getAmountsIn(uint amountOut, address[] memory path)\n        public\n        view\n        virtual\n        override\n        returns (uint[] memory amounts)\n    {\n        return UniswapV2Library.getAmountsIn(factory, amountOut, path);\n    }\n\n    // Set Polka Treasury Address\n    function setPolkaTreasury(address _new_treasury) public onlyOwner {\n        require(_new_treasury != address(0), \"Router: Treasury contract address can not be zero\");\n        polkaTreasury = _new_treasury;\n    }\n}\n",
  "sourcePath": "/home/oncemore/BlockchainWork/Polka/deploy_1/router/contracts/UniswapV2Router02.sol",
  "compiler": {
    "name": "solc",
    "version": "0.6.6+commit.6c089d02.Emscripten.clang"
  },
  "schemaVersion": "3.3.4",
  "updatedAt": "2021-09-16T01:21:08.966Z",
  "devdoc": {
    "methods": {}
  },
  "userdoc": {
    "methods": {}
  }
}