{
  "contractName": "PriceFeed",
  "abi": [
    {
      "inputs": [],
      "stateMutability": "nonpayable",
      "type": "constructor"
    },
    {
      "anonymous": false,
      "inputs": [
        {
          "indexed": false,
          "internalType": "uint256",
          "name": "price",
          "type": "uint256"
        },
        {
          "indexed": false,
          "internalType": "uint256",
          "name": "date",
          "type": "uint256"
        }
      ],
      "name": "priceUpdated",
      "type": "event"
    },
    {
      "anonymous": false,
      "inputs": [
        {
          "indexed": false,
          "internalType": "address",
          "name": "from",
          "type": "address"
        },
        {
          "indexed": false,
          "internalType": "uint256",
          "name": "date",
          "type": "uint256"
        }
      ],
      "name": "updateRequest",
      "type": "event"
    },
    {
      "inputs": [],
      "name": "owner",
      "outputs": [
        {
          "internalType": "address",
          "name": "",
          "type": "address"
        }
      ],
      "stateMutability": "view",
      "type": "function",
      "constant": true
    },
    {
      "inputs": [],
      "name": "priceDetails",
      "outputs": [
        {
          "internalType": "uint256",
          "name": "price",
          "type": "uint256"
        },
        {
          "internalType": "uint256",
          "name": "timestamp",
          "type": "uint256"
        }
      ],
      "stateMutability": "view",
      "type": "function",
      "constant": true
    },
    {
      "inputs": [
        {
          "internalType": "address",
          "name": "",
          "type": "address"
        }
      ],
      "name": "whitelist",
      "outputs": [
        {
          "internalType": "bool",
          "name": "",
          "type": "bool"
        }
      ],
      "stateMutability": "view",
      "type": "function",
      "constant": true
    },
    {
      "inputs": [],
      "name": "callback",
      "outputs": [],
      "stateMutability": "nonpayable",
      "type": "function"
    },
    {
      "inputs": [
        {
          "internalType": "uint256",
          "name": "_price",
          "type": "uint256"
        }
      ],
      "name": "updatePrice",
      "outputs": [],
      "stateMutability": "nonpayable",
      "type": "function"
    },
    {
      "inputs": [
        {
          "internalType": "address",
          "name": "_user",
          "type": "address"
        }
      ],
      "name": "whitelistAddress",
      "outputs": [],
      "stateMutability": "nonpayable",
      "type": "function"
    },
    {
      "inputs": [
        {
          "internalType": "address",
          "name": "_user",
          "type": "address"
        }
      ],
      "name": "removeWhitelistAddress",
      "outputs": [],
      "stateMutability": "nonpayable",
      "type": "function"
    },
    {
      "inputs": [],
      "name": "getPrice",
      "outputs": [
        {
          "internalType": "uint256",
          "name": "",
          "type": "uint256"
        }
      ],
      "stateMutability": "view",
      "type": "function",
      "constant": true
    }
  ],
  "bytecode": "0x608060405234801561001057600080fd5b5033600160006101000a81548173ffffffffffffffffffffffffffffffffffffffff021916908373ffffffffffffffffffffffffffffffffffffffff160217905550610ab8806100616000396000f3fe608060405234801561001057600080fd5b50600436106100885760003560e01c806398d5fdca1161005b57806398d5fdca146100ed5780639b19251a1461010b578063a98d00061461013b578063b7ecbaae1461015a57610088565b8063083b27321461008d57806341566585146100975780638d6cc56d146100b35780638da5cb5b146100cf575b600080fd5b610095610176565b005b6100b160048036038101906100ac91906106aa565b610243565b005b6100cd60048036038101906100c891906106d7565b6103bf565b005b6100d761049f565b6040516100e491906107bd565b60405180910390f35b6100f56104c5565b604051610102919061089c565b60405180910390f35b610125600480360381019061012091906106aa565b6104d2565b6040516101329190610801565b60405180910390f35b6101436104f2565b6040516101519291906108b7565b60405180910390f35b610174600480360381019061016f91906106aa565b610504565b005b600115156000803373ffffffffffffffffffffffffffffffffffffffff1673ffffffffffffffffffffffffffffffffffffffff16815260200190815260200160002060009054906101000a900460ff16151514610208576040517f08c379a00000000000000000000000000000000000000000000000000000000081526004016101ff9061087c565b60405180910390fd5b7fbe1174091ec857d77186470ae988ebe6e3c554a94cfa33aeeb4aeb7fd42e8d6533426040516102399291906107d8565b60405180910390a1565b600160009054906101000a900473ffffffffffffffffffffffffffffffffffffffff1673ffffffffffffffffffffffffffffffffffffffff163373ffffffffffffffffffffffffffffffffffffffff16146102d3576040517f08c379a00000000000000000000000000000000000000000000000000000000081526004016102ca9061085c565b60405180910390fd5b600015156000808373ffffffffffffffffffffffffffffffffffffffff1673ffffffffffffffffffffffffffffffffffffffff16815260200190815260200160002060009054906101000a900460ff16151514610365576040517f08c379a000000000000000000000000000000000000000000000000000000000815260040161035c9061081c565b60405180910390fd5b60016000808373ffffffffffffffffffffffffffffffffffffffff1673ffffffffffffffffffffffffffffffffffffffff16815260200190815260200160002060006101000a81548160ff02191690831515021790555050565b600160009054906101000a900473ffffffffffffffffffffffffffffffffffffffff1673ffffffffffffffffffffffffffffffffffffffff163373ffffffffffffffffffffffffffffffffffffffff161461044f576040517f08c379a00000000000000000000000000000000000000000000000000000000081526004016104469061085c565b60405180910390fd5b80600260000181905550426002600101819055507f7a3325b9d11ddc18edd3dff130141b6ce951061520c6b933a604bf701f3d805281426040516104949291906108b7565b60405180910390a150565b600160009054906101000a900473ffffffffffffffffffffffffffffffffffffffff1681565b6000600260000154905090565b60006020528060005260406000206000915054906101000a900460ff1681565b60028060000154908060010154905082565b600160009054906101000a900473ffffffffffffffffffffffffffffffffffffffff1673ffffffffffffffffffffffffffffffffffffffff163373ffffffffffffffffffffffffffffffffffffffff1614610594576040517f08c379a000000000000000000000000000000000000000000000000000000000815260040161058b9061085c565b60405180910390fd5b600115156000808373ffffffffffffffffffffffffffffffffffffffff1673ffffffffffffffffffffffffffffffffffffffff16815260200190815260200160002060009054906101000a900460ff16151514610626576040517f08c379a000000000000000000000000000000000000000000000000000000000815260040161061d9061083c565b60405180910390fd5b60008060008373ffffffffffffffffffffffffffffffffffffffff1673ffffffffffffffffffffffffffffffffffffffff16815260200190815260200160002060006101000a81548160ff02191690831515021790555050565b60008135905061068f81610a54565b92915050565b6000813590506106a481610a6b565b92915050565b6000602082840312156106c0576106bf610939565b5b60006106ce84828501610680565b91505092915050565b6000602082840312156106ed576106ec610939565b5b60006106fb84828501610695565b91505092915050565b61070d816108f1565b82525050565b61071c81610903565b82525050565b600061072f6028836108e0565b915061073a8261093e565b604082019050919050565b60006107526024836108e0565b915061075d8261098d565b604082019050919050565b60006107756020836108e0565b9150610780826109dc565b602082019050919050565b60006107986022836108e0565b91506107a382610a05565b604082019050919050565b6107b78161092f565b82525050565b60006020820190506107d26000830184610704565b92915050565b60006040820190506107ed6000830185610704565b6107fa60208301846107ae565b9392505050565b60006020820190506108166000830184610713565b92915050565b6000602082019050818103600083015261083581610722565b9050919050565b6000602082019050818103600083015261085581610745565b9050919050565b6000602082019050818103600083015261087581610768565b9050919050565b600060208201905081810360008301526108958161078b565b9050919050565b60006020820190506108b160008301846107ae565b92915050565b60006040820190506108cc60008301856107ae565b6108d960208301846107ae565b9392505050565b600082825260208201905092915050565b60006108fc8261090f565b9050919050565b60008115159050919050565b600073ffffffffffffffffffffffffffffffffffffffff82169050919050565b6000819050919050565b600080fd5b7f54686520676976656e206164647265737320697320616c72656164792077686960008201527f65746c6973746564000000000000000000000000000000000000000000000000602082015250565b7f54686520676976656e2061646472657373206973206e6f742077686965746c6960008201527f7374656400000000000000000000000000000000000000000000000000000000602082015250565b7f43616c6c696e672061646472657373206973206e6f7420746865206f776e6572600082015250565b7f43616c6c696e672061646472657373206973206e6f742077686974656c69737460008201527f6564000000000000000000000000000000000000000000000000000000000000602082015250565b610a5d816108f1565b8114610a6857600080fd5b50565b610a748161092f565b8114610a7f57600080fd5b5056fea264697066735822122063a10b63e9897f90be505b8a8a5cc27e2d7503a69a0ad6ef2b2521f145572d0964736f6c63430008070033",
  "immutableReferences": {},
  "source": "/**\n *Submitted for verification at BscScan.com on 2021-08-12\n*/\n\n/**\n *Submitted for verification at BscScan.com on 2021-08-10\n*/\n\n//SPDX-License-Identifier: <SPDX-License>\n\npragma solidity ^0.8.0;\n\ncontract PriceFeed{\n    struct Price{\n        uint256 price;\n        uint256 timestamp;\n    }\n    \n    mapping(address=>bool)public whitelist;\n    address public owner;\n    Price public priceDetails;\n    \n    event updateRequest(address from, uint256 date);\n    event priceUpdated(uint256 price,uint256 date);\n    \n    modifier onlyWhitelisted(){\n        require(whitelist[msg.sender]==true,\"Calling address is not whitelisted\");\n        _;\n    }\n    \n    modifier onlyOwner(){\n         require(msg.sender==owner,\"Calling address is not the owner\");\n        _;\n    }\n    constructor(){\n        owner=msg.sender;\n    }\n    \n    function callback()public onlyWhitelisted{\n        emit updateRequest(msg.sender,block.timestamp);\n    }\n    \n    function updatePrice(uint256 _price)public onlyOwner{\n        priceDetails.price=_price;\n        priceDetails.timestamp=block.timestamp;\n        emit priceUpdated(_price,block.timestamp);\n    }\n    \n    function whitelistAddress(address _user)public onlyOwner{\n        require(whitelist[_user]==false,\"The given address is already whietlisted\");\n        whitelist[_user]=true;\n    }\n    \n    function removeWhitelistAddress(address _user) public onlyOwner{\n        require(whitelist[_user]==true,\"The given address is not whietlisted\");\n        whitelist[_user]=false;\n    }\n    \n    function getPrice()public view returns(uint256){\n        return priceDetails.price;\n    }\n}",
  "sourcePath": "/home/oncemore/BlockchainWork/Polka/deploy_1/Oracle/contracts/Oracle.sol",
  "compiler": {
    "name": "solc",
    "version": "0.8.7+commit.e28d00a7.Emscripten.clang"
  },
  "schemaVersion": "3.3.4",
  "updatedAt": "2021-08-23T08:23:28.621Z",
  "networkType": "ethereum",
  "devdoc": {
    "kind": "dev",
    "methods": {},
    "version": 1
  },
  "userdoc": {
    "kind": "user",
    "methods": {},
    "version": 1
  }
}